:10000000B1C30000CFC30000CDC30000CBC30000CC
:10001000C9C30000C7C30000C5C30000C3C30000BC
:10002000C1C30000BFC300000C94533C0C9438467D
:100030000C94683CEAC60000B5C30000B3C30000DE
:10004000B1C300000C940622ADC30000ABC3000096
:10005000A9C30000A7C30000A5C300000C9432246C
:10006000A1C300000C94661A0C94091A9BC30000EB
:1000700099C30000DAC4000095C3000093C30000D8
:1000800091C300008FC300008DC300008BC300002C
:1000900089C3000087C3000085C3000083C300003C
:1000A00081C300007FC300007DC300007BC300004C
:1000B00079C3000077C300000C94794973C3000032
:1000C00071C300006FC300000C941A496BC3000099
:1000D00069C3000067C3000065C3000063C300007C
:1000E00061C30000D105D505D905DD05E105E505AC
:1000F000E9057A087D0880088308860889088C0845
:100100008F089208AB08AE08B108B408B708BA085F
:10011000BD08C008C308DC08DF08E208E508E808F5
:10012000EB08EE08F108F408ED0F40184018F70F3F
:10013000041011101E1040182210401830104018E2
:100140003A1044104E104018401840185D106A10C4
:1001500077103F1B411B471B821B821B821B821B8C
:10016000821B821B821B821B821B501B521B541B37
:10017000561B581B5A1B5C1B5E1B821B621B641B9D
:10018000661B681B6A1B6C1B821B6E1B701BAE33CD
:10019000B433B733BA33BF33C733CF336934693479
:1001A0006934DC33DF33E833F1336934693469347B
:1001B000693469346934FD33073412341A341D3418
:1001C00026342F343534693469343E34473452345C
:1001D0006934693469346934693469346934693437
:1001E0006934693469346934693469346934693427
:1001F00069345C34CD40D040D340D640D940DC4057
:10020000DF40E240E540E840EB40084AD73B3BCEC8
:10021000016E84BCBFFDC12F3D6C74319ABD568305
:100220003DDA3D00C77F11BED9E4BB4C3E916BAABD
:10023000AABE000000803F05A84CCDB2D44EB9380C
:1002400036A9020C50B9918688083CA6AAAA2ABEF3
:10025000000000803F000A00544D435F524547496B
:10026000535445525F434F4D4D414E443A20000A8E
:1002700000544D435F434F4D4D414E443A20005290
:10028000455345545F4449474954414C5F53504995
:100290004E444C455F42525553485F54494D4520AA
:1002A0004E6F7420696D706C656D656E7465640A5F
:1002B000004745545F4449474954414C5F535049B6
:1002C0004E444C455F494E464F204E6F7420696D39
:1002D000706C656D656E7465640A000A004E6F6E21
:1002E00065002C20656E64207377697463682074E0
:1002F000726967676572656420616C61726D3A202E
:10030000004C696D6974732073746174653A2000E0
:1003100053746F72696E672070726F6475637420B6
:100320006E756D6265723A200053746F72696E6704
:100330002073657269616C206E756D6265723A201A
:10034000006D6D0D0A00546F74616C2064697374E4
:10035000616E63653A20007365636F6E64730D0AA6
:100360000055702074696D653A20000A00760A0015
:100370002C20002C20002C20002C20002C20002CD5
:1003800020002C20002C2000535441543A005E00E1
:100390000A0020746F2076657273696F6E20007496
:1003A00072617020746F207570646174652066726C
:1003B0006F6D2076657273696F6E20000D0A0054B0
:1003C0006F74616C207265736574733A20000A0063
:1003D0002C20004C61737420574454206164647273
:1003E00065737365733A200000070E091C1B121514
:1003F000383F363124232A2D70777E796C6B626505
:10040000484F464154535A5DE0E7EEE9FCFBF2F5F4
:10041000D8DFD6D1C4C3CACD90979E998C8B8285E4
:10042000A8AFA6A1B4B3BABDC7C0C9CEDBDCD5D2D4
:10043000FFF8F1F6E3E4EDEAB7B0B9BEABACA5A2C4
:100440008F88818693949D9A2720292E3B3C3532B4
:100450001F18111603040D0A5750595E4B4C4542A4
:100460006F68616673747D7A898E878095929B9C94
:10047000B1B6BFB8ADAAA3A4F9FEF7F0E5E2EBEC84
:10048000C1C6CFC8DDDAD3D4696E676075727B7C74
:1004900051565F584D4A4344191E171005020B0C64
:1004A00021262F283D3A33344E49404752555C5B54
:1004B0007671787F6A6D64633E39303722252C2B44
:1004C0000601080F1A1D1413AEA9A0A7B2B5BCBB34
:1004D0009691989F8A8D8483DED9D0D7C2C5CCCB24
:1004E000E6E1E8EFFAFDF4F37C413A007C4F763A1E
:1004F000007C57434F3A002C002C002C007C563ACD
:10050000002C007C54433A007C4C643A007C506ED2
:100510003A007C46533A007C4C6E3A007C42663A84
:10052000007C57506F733A007C4D506F733A005304
:100530006C65657000446F6F723A00436865636B69
:1005400000416C61726D00486F6D65004A6F670015
:10055000486F6C643A0052756E0049646C65006DBA
:100560006D005B546F74616C2064697374616E63B9
:10057000653A20007365636F6E6473005B5570208D
:1005800074696D653A20005B546F74616C2072650C
:10059000736574733A20005B4F50543A005B4153CB
:1005A0004D20434E433B205357205665723A312E1F
:1005B000332E322E32303231303131393B204857F0
:1005C000205665723A005B5645523A312E31662EFE
:1005D00032303137303830323A00244E00204D006E
:1005E00020470020530020460020540033382E00BE
:1005F0005B47433A47005B544C4F3A005B47393204
:100600003A003330003238005B47005B5052423AC8
:10061000005B484C503A24242024232024472024E3
:100620004920244E2024783D76616C20244E783D6C
:100630006C696E6520244A3D6C696E652024534CBC
:1006400050202443202458202448207E2021203F6D
:10065000206374726C2D785D0D0A000D0A4772627A
:100660006C20312E3166205B27242720666F722094
:1006700068656C705D0D0A005D000D0A536D617256
:100680007442656E6368205B5357205665723A3139
:100690002E332E325D205B4857205665723A005348
:1006A0006C656570696E6700526573746F72696E10
:1006B00067207370696E646C6500526573746F7245
:1006C000696E672064656661756C74730050676D50
:1006D00020456E6400436865636B204C696D6974E6
:1006E0007300436865636B20446F6F7200446973E5
:1006F00061626C656400456E61626C6564004361B3
:100700007574696F6E3A20556E6C6F636B6564002B
:10071000272448277C2724582720746F20756E6C67
:100720006F636B00526573657420746F20636F6E26
:1007300074696E7565005B4D53473A00414C4152F8
:100740004D3A000D0A006572726F723A006F6B0DC0
:100750000A0074696D65730A004143206C6F7374FD
:100760003A20000011241FBECFEFD1E2DEBFCDBF83
:1007700000E00CBF12E0A0E0B2E0E4EFFCE900E032
:100780000BBF02C007900D92A632B107D9F720E146
:10079000A6E2B2E001C01D92AE3DB207E1F7B5D5C9
:1007A0000C94784E2DCC8F929F92AF92BF92EF9285
:1007B000FF920F931F93CF93DF93C0910102D091CB
:1007C000020235E0E32E32E0F32EE1E0F0E04C01EE
:1007D000A12CB12CD7016D917D918D919D917D01C1
:1007E0008F01A50194010E94D64DDC01CB019E5FD3
:1007F000AF4FBF4FBC01CD012AE095958795779506
:1008000067952A95D1F70150110959F7C60FD71FDF
:100810003196E730F105F1F684E6B82FBC9FC001B0
:10082000BD9F900D1124DF91CF911F910F91FF90EB
:10083000EF90BF90AF909F908F900895CF92DF92EE
:10084000EF92FF92B0DFAC012091210230912202A1
:10085000A2EEB0E00E944B4E6B017C019A01AEE12A
:10086000B0E00E944B4EDC01CB018C0D9D1DAE1DF6
:10087000BF1D892F9A2FAB2FBB27A7FDBA95909349
:10088000220280932102FF90EF90DF90CF90089595
:10089000CF92DF92EF92FF9286DFAC0120911F0290
:1008A00030912002A2EEB0E00E944B4E6B017C0121
:1008B0009A01AEE1B0E00E944B4EDC01CB018C0D01
:1008C0009D1DAE1DBF1D892F9A2FAB2FBB27A7FDE6
:1008D000BA959093200280931F02FF90EF90DF90D3
:1008E000CF900895CF92DF92EF92FF925CDFAC0140
:1008F00020911D0230911E02A2EEB0E00E944B4EEC
:100900006B017C019A01AEE1B0E00E944B4EDC012C
:10091000CB018C0D9D1DAE1DBF1D892F9A2FAB2FB6
:10092000BB27A7FDBA9590931E0280931D02FF90EE
:10093000EF90DF90CF900895DC0120E030EE43E0AF
:1009400050E00E945A4E28EE3FE540E050E00E9401
:10095000274E30933502209334020895DC0120E0C5
:1009600030EE43E050E00E945A4E28EE3FE540E072
:1009700050E00E94274E30933302209332020895B4
:10098000DC0120E030EE43E050E00E945A4E28EEB9
:100990003FE540E050E00E94274E30933102209323
:1009A00030020895DC012AE935E443E050E00E947A
:1009B0005A4E28EC32E140E050E00E94274E30933E
:1009C0002F0220932E020895DC0120E030E047E062
:1009D00050E00E945A4E28EE3FE540E050E00E9471
:1009E000274E30932D0220932C020895E091920C13
:1009F000F0E0EE56F34F8281883028F088509091D5
:100A00007B00986003C090917B00977F90937B0060
:100A100090917C00907F8F70892B80937C008091D7
:100A20007A00806480937A0008951F920F920FB627
:100A30000F9211240BB60F922F933F934F935F9316
:100A40006F937F938F939F93AF93BF93EF93FF9396
:100A5000809178009091790090932B0280932A02E4
:100A600088E00E94FA48FF91EF91BF91AF919F916A
:100A70008F917F916F915F914F913F912F910F9047
:100A80000BBE0F900FBE0F901F9018958091920C87
:100A9000883060F4E82FF0E0EE0FFF1FE456F34FCC
:100AA00020912A0230912B02318320838F5F809323
:100AB000920C883070F491E0980FE82FF0E0EE5639
:100AC000F34F228D213019F48093920C8FCF892F10
:100AD000F0CF8093920C80E10C94FA488091930CB3
:100AE00081111EC091E09093930C9091920C9830DC
:100AF00091F41092920C883079F091E0980FE82FE1
:100B0000F0E0EE56F34F228D213019F48093920CD1
:100B10006DCF892FF0CF88E08093920C1092930CC8
:100B20000895CF93DF93E2E9FCE0EF0121E062A9B1
:100B300073A962348FE0780760F482A193A10196D3
:100B400093A382A30E94F14D892B19F42A8F13A23B
:100B500012A2329621968CE0E23AF80741F7DF9133
:100B6000CF91BCCFEF92FF921F93CF93DF93C2E957
:100B7000DCE07E0110E0F701828D813069F5128E94
:100B8000812F90E0FC013197E730F10530F48827A0
:100B9000EE58FF4F8F4F0C94434E8A859B85CCDED9
:100BA0001BC08A859B85DADE17C08A859B85E8DEB7
:100BB00013C08A859B85F6DE0FC08A859B853EDE45
:100BC0000BC08A859B8564DE07C08A859B858ADE8B
:100BD00003C08A859B85F8DE1F5FFFEFEF1AFF0ACF
:100BE0002296183009F0C7CF1092930CDF91CF9165
:100BF0001F91FF90EF900895809121029091220221
:100C000064E670E00E94F14DCB01089580911F02CF
:100C10009091200264E670E00E94F14DCB010895AE
:100C20008091340290913502089580913202909122
:100C3000330208958091300290913102089580919D
:100C40002E0290912F02089580912C0290912D02F6
:100C5000089589B1863010F488E004C089B18031EC
:100C600018F483E08093000288E08093920C109245
:100C7000930C909100029093940C9CE09093950CAF
:100C80009DE09093960C9EE09093970C93E0909348
:100C9000980C8093990C89E080939A0C82E0809361
:100CA0009B0C84E090E09093C50C8093C40C82E68A
:100CB00092E09093C70C8093C60C9093C90C8093DC
:100CC000C80C8DE390E09093CB0C8093CA0C2AE77C
:100CD00030E03093CD0C2093CC0C3093CF0C20938C
:100CE000CE0C2FE93FE03093D10C2093D00C9093A1
:100CF000D30C8093D20CE4EBFCE021E030E080895F
:100D00009189892B11F4318B208B808991890297ED
:100D1000819391938CE0E43CF80789F780917A0005
:100D2000876880937A0080917A00886080937A0047
:100D30002091C4103091C5104091C6105091C71039
:100D40006091C0107091C1108091C2109091C31039
:100D50000E94D1499B01AC0160E070EF80E296E413
:100D60000E94B24A60932602709327028093280261
:100D70009093290210927F0C1092810C1092800C9B
:100D80001092820C1092830C1092840C1092850C9D
:100D90001092860C1092870C1092880C1092890C7D
:100DA00010928A0C10928B0C10928C0C10928D0C5D
:100DB00010928E0C10928F0C1092900C1092910C3D
:100DC0000895A0EBB0E01C92E1EBF0E0108280818E
:100DD000886080838C9182608C938C9181608C93ED
:100DE0008081816080838081826080838081846053
:100DF00080838FEF8093B3001092B200E0E7F0E0C1
:100E00008081826080830895DCCF1F920F920FB69D
:100E10000F9211240BB60F922F933F934F935F9332
:100E20006F937F938F939F93AF93BF93EF93FF93B2
:100E3000789484E00E94FA48809123028F5F809327
:100E400023026DE30E94E54D911105C082E00E94EE
:100E5000FA4810922302FF91EF91BF91AF919F91B9
:100E60008F917F916F915F914F913F912F910F9053
:100E70000BBE0F900FBE0F901F901895CF92DF9270
:100E8000EF92FF928EE09DE00E94152DC82ED12C8E
:100E9000E12CF12CFE2CED2CDC2CCC248FE09DE001
:100EA0000E94152DC82AFE2CED2CDC2CCC2480E1D0
:100EB0009DE00E94152DA7019601282BCA01B901BA
:100EC000FF90EF90DF90CF90089590ED980F9A30BB
:100ED00060F09FEB980F963010F4875308959FE9C8
:100EE000980F963020F487550895892F089580E053
:100EF000089590ED980F9A3060F09FEB980F963020
:100F000010F4875308959FE9980F963020F4875581
:100F10000895892F089581E10895CF92DF92EF928D
:100F2000FF920F931F93CF93DF93EC018B016C0122
:100F300086E0C80ED11C8881882391F0F980FF20BB
:100F400079F0C3DFE82E8F2DC0DF90E1E99E800DA0
:100F50001124F80181938F012296CC15DD0559F7F4
:100F6000DF91CF911F910F91FF90EF90DF90CF9085
:100F70000895E1E9F0E080818460808380818D7F45
:100F80008083808180618083E0E9F0E080818260FD
:100F9000808380818E7F808380E090E890939700AB
:100FA0008093960080E090E490939900809398005D
:100FB00010929B0010929A0010929D0010929C003B
:100FC0000895E1E9F0E080818B7F808380818260F9
:100FD000808380818F7E8083E0E9F0E080818D7F57
:100FE00080838081816080830895EBDF1092990077
:100FF0001092980010929B0010929A0010929D00FF
:1010000010929C000895FF920F931F93CF93DF934C
:1010100000D0CDB7DEB78C01DC018C918A3219F09B
:10102000813411F1ECC0F80181818C3409F0E7C002
:1010300019821A821B82BE016F5F7F4FC801029620
:101040006CDF1B810A81F980BCDF8F2D90E09093CB
:10105000990080939800802F90E090939B0080935C
:101060009A00812F90E0C2C0D80111968C918C34E7
:1010700089F040F4853409F4BEC0863409F0BFC05D
:10108000A098BFC0883509F4B8C08A3509F0B7C048
:10109000769AB7C096DFF8018281803311F4A5DF1C
:1010A000B0C0873429F0982F9F7E923409F0A7C0F2
:1010B000D8011396EC9190ED9E0F9A3008F09FC0E6
:1010C0008734B9F1823521F0823409F09AC062C0C8
:1010D0008E2F90E0FC01F197E930F10530F488277C
:1010E000E758FF4F8F4F0C94434E10929900109287
:1010F000980087C08FE090E017C08FE190E014C0A7
:101100008FE290E011C08FE390E00EC08FE490E09A
:101110000BC08FE590E008C08FE690E005C08FE738
:1011200090E002C08FEF90E0909399008093980038
:1011300068C08E2F90E0FC01F197E930F10530F4A2
:101140008827EE57FF4F8F4F0C94434E10929B0011
:1011500010929A0056C08FE090E017C08FE190E0A7
:1011600014C08FE290E011C08FE390E00EC08FE4D6
:1011700090E00BC08FE590E008C08FE690E005C0DE
:101180008FE790E002C08FEF90E090939B008093F8
:101190009A0037C08E2F90E0FC01F197E930F105FD
:1011A00030F48827E557FF4F8F4F0C94434E109231
:1011B0009D0010929C0025C08FE090E017C08FE149
:1011C00090E014C08FE290E011C08FE390E00EC079
:1011D0008FE490E00BC08FE590E008C08FE690E0D0
:1011E00005C08FE790E002C08FEF90E090939D00E4
:1011F00080939C0006C0A09A04C0769802C087E243
:1012000001C080E00F900F900F90DF91CF911F9160
:101210000F91FF900895D5DE8FEF90E090939900A5
:101220008093980090939B0080939A0090939D00E8
:1012300080939C0008951F93CF93DF93182FD62F90
:10124000C42FBFDE812F90E0909399008093980087
:101250006D2F70E070939B0060939A004C2F50E0CC
:1012600050939D0040939C00DF91CF911F91089572
:1012700028B1811109C081E090E001C0880F6A9512
:10128000EAF78095822307C081E090E001C0880FD3
:101290006A95EAF7822B88B90895FC0180819181D3
:1012A000089583B3856083BB8DB188638DB987B1A1
:1012B0008F6087B988B18F6088B9EAE0F1E08081FA
:1012C000877F8083A098A298E0E9F0E010821092D6
:1012D0009100109292008081886A808372DE109261
:1012E00099001092980010929B0010929A00109210
:1012F0009D0010929C00109295001092940084DD45
:10130000A8DC0E9433310C9469490E94E0190E94C4
:1013100075340E94B3240E941D46C3DF8CE0EAEFBF
:10132000FCE0DF011D928A95E9F778941092D70CC2
:1013300087EDE82E8CE0F82E93E1D92EC4E60EEE70
:101340001CE0DCE08091D70CF7019D2D11929A955D
:10135000E9F78093D70CC093DE0CC093DF0CC093E9
:10136000E00CD801ED2F1D92EA95E9F71092EC0CF4
:101370001092EB0C1092060D1092D60C1092EA0C03
:101380001092070D1092D50C0E94961B2CD40E942F
:1013900092180E94BC190E940C3C0E9435400E9489
:1013A00003490E94EB350E9482240E941C3A2DD4EE
:1013B0000E94F0400E942821C5CF0F931F93CF9326
:1013C000DF938C01EB018091C81085FF07C08091ED
:1013D000D70C803219F0C8010E948F3E8091D70C43
:1013E000823029F10E941C1F8091D80C81111FC0EE
:1013F0000E943936882319F00E949B1BF3CFBE014F
:10140000C8010E944537811112C08091C81081FF28
:101410000EC08C8584FF0BC04C815D816E817F8105
:1014200080E1DF91CF911F910F910C949F19DF9173
:10143000CF911F910F9108952F923F924F925F92FB
:101440006F927F928F929F92AF92BF92CF92DF92D4
:10145000EF92FF920F931F93CF93DF93CDB7DEB739
:10146000E0970FB6F894DEBF0FBECDBF988B8F8785
:101470007E876D875A8B498B3901E986FA860B87FF
:101480001C878D8A27962FAD27972B8B34E0C39E20
:1014900060011124CA018C0D9D1D9A8F898FD30183
:1014A000AC0DBD1DBC8FAB8F2D903D904D905C90D1
:1014B000FC012081318142815381C201B1010E942E
:1014C000D2496D8F7E8F8F8F98A3F4E0AF9E8001FD
:1014D000112429893A89200F311F3AA329A3C30176
:1014E000800F911F9CA38BA3DC018D909D90AD90EC
:1014F000BC90F9012081318142815381C501B40141
:101500000E94D2496DA37EA38FA398A7D201C101E7
:10151000B0588D839E83AF83B887D501C401B0587E
:1015200089839A83AB83BC83EF85F889EC0DFD1D1D
:101530002D8D3E8D4F8D58A1608171818281938167
:101540000E94D1496B017C01EF85F889E00FF11F02
:101550002DA13EA14FA158A5608171818281938107
:101560000E94D1494B015C01A70196016D817E81EA
:101570008F8198850E94E94C2B013C01A5019401C3
:1015800069817A818B819C810E94E94C9B01AC012D
:10159000C301B2010E94D2492B013C01A501940173
:1015A0006D817E818F8198850E94E94C4B015C01A1
:1015B000A701960169817A818B819C810E94E94C07
:1015C0009B01AC01C501B4010E94D149A301920164
:1015D0000E94454A6B017C019B89992399F02DEB70
:1015E00037E346E055EBC701B6010E94AE4C87FDDC
:1015F0001DC02BED3FE049EC50E4C701B6010E944D
:10160000D14912C02DEB37E346E055E3C701B601DF
:101610000E94AB4A181654F02BED3FE049EC50E421
:10162000C701B6010E94D2496B017C018090BC10B9
:101630009090BD10A090BE10B090BF1029853A8543
:101640004B855C85CA01B9010E94D249A50194016C
:101650000E94D149A50194010E94E94C0E94764D57
:101660004B015C0120E030E040E05FE3C701B601E0
:101670000E94E94C29853A854B855C850E94E94C9E
:101680009F77A50194010E94B24A0E94884B0E9454
:101690001F4B7C8B6B8BDB01AB2BE9F46D857E855F
:1016A0008F859889E0960FB6F894DEBF0FBECDBF48
:1016B000DF91CF911F910F91FF90EF90DF90CF902E
:1016C000BF90AF909F908F907F906F905F904F9062
:1016D0003F902F9072CEED85FE8514854B01A12C95
:1016E000B12C13FF16C0C501B4010E944B4B9B01E6
:1016F000AC01AD85BE856D917D918D919C910E94CF
:10170000E94CED85FE856083718382839383177F27
:101710001487C501B4010E944B4B2B013C019B0176
:10172000AC01C701B6010E94B24A69877A878B87EC
:101730009C872D89F4E02F9F4001112409891A8983
:10174000080D191DEF85F889E80DF91DD8012D91B7
:101750003D914D915C9160817181828193810E9464
:10176000D149A30192010E94B24A6DA77EA78FA71B
:1017700098AB29853A854B855C85CA01B9010E94E1
:10178000E94C9B01AC0160E070E080E090E40E94D5
:10179000D1496B017C012BEA3AEA4AE25EE36985B2
:1017A0007A858B859C850E94E94C4B015C0120E089
:1017B00030E040E850E4C701B6010E94D2499B01E5
:1017C000AC01C501B4010E94E94C6D8B7E8B8F8BFF
:1017D000988F20E030E040E05FE3C701B6010E944F
:1017E000E94C69A77AA78BA79CA7712C2224239484
:1017F000312CEB89FC892E163F0609F44FCFBBE054
:10180000B71508F444C029A53AA54BA55CA5698184
:101810007A818B819C810E94E94C6B017C012D892E
:101820003E894F89588D6D817E818F8198850E9478
:10183000E94CA70196010E94D2497B016C0129A5C0
:101840003AA54BA55CA56D817E818F8198850E940C
:10185000E94C4B015C012D893E894F89588D698186
:101860007A818B819C810E94E94C9B01AC01C5016E
:10187000B4010E94D1496D837E838F8398877394CE
:10188000C701D60189839A83AB83BC8365C0B1014C
:1018900080E090E00E944B4B29853A854B855C8522
:1018A0000E94E94C6B017C010E94AF4A2B013C0174
:1018B000C701B6010E946C4D4B015C01EB8DFC8DA4
:1018C000C080D180E280F380F7FAF094F7F8F094CA
:1018D000ABA1BCA18D919D910D90BC91A02D898350
:1018E0009A83AB83BC83A7019601C301B2010E9416
:1018F000E94C6D837E838F83988729813A814B8160
:101900005C81C501B4010E94E94C9B01AC016D8171
:101910007E818F8198850E94D2496D837E838F83DB
:101920009887A7019601C501B4010E94E94C6B019B
:101930007C0129813A814B815C81C301B2010E9403
:10194000E94C9B01AC01C701B6010E94D1496983F2
:101950007A838B839C83712C2D8D3E8D4F8D58A166
:101960006D817E818F8198850E94D249E98DFA8DA3
:1019700060837183828393832DA13EA14FA158A5DB
:1019800069817A818B819C810E94D249A9A1BAA1E7
:101990006D937D938D939C9313972DA53EA54FA595
:1019A00058A9F80160817181828193810E94D24996
:1019B000D8016D937D938D939C9313976D857E8550
:1019C00089899A89FADC8091D80C811104C0BFEF13
:1019D0002B1A3B0A0ECFE0960FB6F894DEBF0FBE6F
:1019E000CDBFDF91CF911F910F91FF90EF90DF90CE
:1019F000CF90BF90AF909F908F907F906F905F90AF
:101A00004F903F902F900895CF92DF92EF92FF92E8
:101A10002091D70C223069F06B017C010E94C62115
:101A200040E0C701B601FF90EF90DF90CF900C949B
:101A3000EF3AFF90EF90DF90CF9008950E942C3CFA
:101A400084E00E94A93C83E00E94A93C0E941C1FE4
:101A50008091D80C811105C0D8D00E941C3A0C94FA
:101A60000C3C0895EF92FF920F931F93CF93209118
:101A7000D70C223009F45CC0C42F7B018C010E947A
:101A8000C6218091D80C811113C01092DC0CC3FBCD
:101A9000882780F90E9424400E944140882351F009
:101AA00084E00E94C7480E941C1F80E00E942440DE
:101AB00082E03FC0B701C80180DC81E08093EC0C7C
:101AC00082E00E940C470E941C1F8091D80C81115B
:101AD000EFCF8091D70C8111F6CF8091EC0C813043
:101AE00081F4C4FF0AC08CE0EAEFFCE0AEEEBCE09B
:101AF00001900D928A95E1F707C085E00E94C748E2
:101B000003C081E08093DC0C1092EC0C80E00E941A
:101B100024400E941C1F0E9482240E94EB350E94D8
:101B20001C3A0E94094281E09091DC0C911101C0A5
:101B300080E0CF911F910F91FF90EF900895209139
:101B4000D80C211121C00E9445379091DB0C8823CD
:101B5000B1F09E7F94609093DB0C0E94F8240E9469
:101B600094250E94D5210E943E1D8091D80C8111A0
:101B70000BC08091DB0C82FDF6CF0C9439259B7F46
:101B80009093DB0C0C943E1D0895CF93C82F0E94B8
:101B9000C6218091D80C811102C0C093E50CCF9171
:101BA00008958091EB0C84FD1DC080E10E940C47DC
:101BB0000E9487180E94BF199091D70C892F8C72B0
:101BC00021F48091DB0C867069F0943031F48091BF
:101BD000060D811105C086E001C083E00E94C74860
:101BE0000C94E621089580E4E9E0FDE0DF011D9218
:101BF0008A95E9F76DE27DE080E00E94143381115F
:101C000003C087E00C94A04008956AEF7CE081E275
:101C10009DE00C94B9462F923F924F925F926F9243
:101C20007F928F929F92AF92BF92CF92DF92EF926C
:101C3000FF920F931F93CF93DF93CDB7DEB7E0975B
:101C40000FB6F894DEBF0FBECDBF9BA38AA38AE375
:101C5000E9E4FDE0DF011D928A95E9F78BE0E9E018
:101C6000FDE0AAE4BDE001900D928A95E1F7EAA1BA
:101C7000FBA18081843211F00C945E1881E0809386
:101C80004A0D10924B0D83E08E8FF1E0F8A3212CCA
:101C9000312C19A618A61CA21F8E19A2EE24E394BB
:101CA000F12C772473946AE0462E512C7EE5672E42
:101CB00003E08E8DEAA1FBA1E80FF11DC080CC20CE
:101CC00009F443C29FEB9C0D9A3110F00C9430182C
:101CD0008F5F8E8FAE01465E5F4FBE01625E7F4FAB
:101CE0008AA19BA10E943F3A882311F40C943218D8
:101CF0008A8C9B8CAC8CBD8CC501B4010E94B74D05
:101D00000E941F4B162F70E080E090E00E944D4B28
:101D10009B01AC01C501B4010E94D14920E030E033
:101D200048EC52E40E94E94C0E944C4D0E941F4B2B
:101D3000CB0127E4C21629F03DE4C31609F4E9C03B
:101D40003CC1183209F4C5C020F5143168F41131D2
:101D500008F08AC0143009F452C008F464C01A3084
:101D600009F445C00C9440181C3109F440C050F4EB
:101D7000163110F00C94401825E1211B20934C0DD6
:101D800026E0ACC01E3199F1163209F44CC00C9417
:101D900040181D3309F497C0A8F4153381F140F4BD
:101DA0001B3209F47AC0113309F477C00C9440183F
:101DB0001C3310F00C9440186AEC610F6093500DC6
:101DC00029E08CC01C3538F41A3508F053C01035A2
:101DD00081F10C9440181C3551F01F3510F00C9413
:101DE0004018262D211B20934B0D25E077C000972E
:101DF00031F449A141110C943418A1E0A9A3109326
:101E0000490D212F2D7F2C3119F01C3509F063C0AD
:101E1000009721F00A9711F00C944018610F60931D
:101E2000490D20E060C0B9A1B1110C943418E2E072
:101E3000E9A310934A0D163209F04FC08431910581
:101E400059F08E31910541F08832910529F08233A5
:101E5000910511F00C944018B2010E94F14D6657A3
:101E600060934A0D21E03FC06FEE610F60934E0D0D
:101E700022E034C0892B31F466EA610F60934D0D86
:101E800023E031C06A30710511F00C9440181A3506
:101E900011F40C94401824E026C0F9A1F1110C941F
:101EA0003418113331F410924F0D28E033E039A388
:101EB0001AC00A9711F00C94401870924F0D28E048
:101EC00043E049A310C0892B11F00C9440182AE07C
:101ED0000AC027E003C020E001C021E0892B19F0EF
:101EE00087E10C946218C70102C0880F991F2A95D8
:101EF000E2F728A539A528233923232B19F085E1FA
:101F00000C946218A8A5B9A5A82BB92BB9A7A8A7A6
:101F1000D0CE892B29F7163018F4133090F01CC05E
:101F20001E31B9F030F489EF810F833018F10C9431
:101F30004018183311F00C9440187092540D8EE034
:101F400028C0112319F0113019F103C00093510D6D
:101F50001FC01093510D1CC0143021F0153031F00A
:101F600080E101C080E28093530D02C01092530DB6
:101F70008CE00FC0183021F0193031F080E801C03A
:101F800080E48093520D02C01092520D8DE001C08A
:101F90008BE0F70102C0EE0FFF1F8A95E2F728A53C
:101FA00039A52E233F23232B09F0A9CF28A539A536
:101FB0002E2B3F2B39A728A77CCE8C2D90E0FC013F
:101FC000E654F109E531F10510F00C94401888272A
:101FD000EC56FF4F8F4F0C94434E8092550D9092CC
:101FE000560DA092570DB092580D80E08CC0809293
:101FF000590D90925A0DA0925B0DB0925C0D3CA1D0
:1020000031603CA381E07FC080925D0D90925E0DB7
:10201000A0925F0DB092600D4CA142604CA382E093
:1020200072C08092610D9092620DA092630DB09289
:10203000640D8CA184608CA383E065C01093650D52
:1020400084E061C0C501B4010E941A4B6093660D23
:102050007093670D8093680D9093690D85E053C070
:1020600080926A0D90926B0DA0926C0DB0926D0DE6
:1020700086E049C080926E0D90926F0DA092700D17
:10208000B092710D87E03FC08092720D9092730DF7
:10209000A092740DB092750D88E035C020E030E05C
:1020A0004FE753E4C501B4010E94AE4C18160CF47E
:1020B000DDC71093760D89E026C08092770D90924F
:1020C000780DA092790DB0927A0D9F8D91609F8FBF
:1020D0008AE019C080927B0D90927C0DA0927D0DBC
:1020E000B0927E0DAF8DA260AF8F8BE00CC080925E
:1020F0007F0D9092800DA092810DB092820DBF8DC8
:10210000B460BF8F8CE06701082E02C0CC0CDD1CD0
:102110000A94E2F791012C213D21232B09F0A8C755
:10212000E1E6F3E002C0F595E7958A95E2F7E0FF76
:1021300009C020E030E0A901C501B4010E94AB4A0A
:1021400087FD98C72C283D28B4CDFF8DFF2329F0AB
:1021500029A1211102C032E039A325FE0EC08091D1
:10216000660D9091670DA091680DB091690D813851
:102170009649A849B1050CF07FC788A1882319F0BA
:1021800020FE84C716C080914B0D813061F499A167
:102190009230D1F580914A0D8035B1F18823A1F1BB
:1021A00020FE74C731C080910A0D81112DC020FE20
:1021B0001BC080914C0D813039F523E333E34BECA8
:1021C00051E46091550D7091560D8091570D90918D
:1021D000580D0E94E94C6093550D7093560D8093F5
:1021E000570D9093580D10C08091180D9091190DB6
:1021F000A0911A0DB0911B0D8093550D9093560D23
:10220000A093570DB093580D30FC10C08091140D61
:102210009091150DA091160DB091170D8093720D30
:102220009093730DA093740DB093750DA8A5B9A5E7
:10223000B6FF15C026FE13C020E030E0A901609172
:102240006A0D70916B0D80916C0D90916D0D0E94D7
:10225000AB4A811102C01092540DE89426F8809187
:10226000490D843031F426FC02C08CE12BC7E89480
:1022700026F880914E0D882371F0813031F4B1E061
:10228000B8AB1DA6E2E0ECA70BC018AAF2E0FDA7D0
:1022900021E02CA705C032E038AB41E04DA71CA6D9
:1022A00080914C0D813021F089A18330B1F52DC092
:1022B00049E4E42E4DE0F42E00E010E09F8DC92E9D
:1022C000D12CC601002E02C0959587950A94E2F79D
:1022D00080FF12C023E333E34BEC51E4D7019E9619
:1022E0006D917D918D919C91D1970E94E94CF70160
:1022F00066A777A780AB91AB0F5F1F4FF4E0EF0E9F
:10230000F11C03301105E9F6CFCF80914F0D8130DC
:1023100021F42F8D243009F0B1C68CE0EDE2FDE010
:10232000DE011E9601900D928A95E1F788A599A588
:1023300091FD09C09091490D9AA39A30B9F09C354E
:1023400009F4AAC010C18091500D873010F08DE1C2
:10235000B9C690910F0D891769F3BE01625F7F4F77
:102360000E941433882309F49DC6E4CFAF8DA111D8
:1023700002C08AE1A7C6C10180759927892B09F49B
:1023800074CF60916A0D70916B0D80916C0D90917E
:102390006D0D0E94B74D0E941F4B6730C0F68091B3
:1023A000650D843129F0823009F06AC627FC68C6C1
:1023B000BFEA2B22662319F061506AA303C0E091A3
:1023C000500DEAA369E57DE08AA10E9414338823B9
:1023D00009F468C6B090650D4090450D5090460DCB
:1023E0006090470D7090480D09E41DE039E0C32E60
:1023F0003DE0D32EE12CF12CFF8D8F2E912CC401CA
:102400000E2C02C0959587950A94E2F780FF36C09E
:1024100024E1B2122AC0D601D0962D913D914D9162
:102420005C91D39758966D917D918D919C915B971E
:102430000E94D149F80126A537A540A951A90E94BB
:10244000D149D80150966D937D938D939C9353976A
:10245000B2E0EB1213C0A30192010E94D149F8012E
:10246000608B718B828B938B09C0F80186A597A531
:10247000A0A9B1A9808B918BA28BB38BFFEFEF1A30
:10248000FF0A0C5F1F4F24E0C20ED11C33E0E3169D
:10249000F10409F0B4CF35C14F8D442309F469CF5D
:1024A0004090450D5090460D6090470D7090480D3E
:1024B00009E41DE029E0C22E2DE0D22E5E018EE05F
:1024C000A80EB11CE12CF12C842E912CC4010E2CF1
:1024D00002C0959587950A94E2F780FF29C0D5013F
:1024E0002D913D914D915C91F601608D718D828DA4
:1024F000938D0E94D149D8019E962D913D914D9189
:102500005C91D1970E94D149F80166A777A780AB6B
:1025100091ABF2E0EF1216C0A30192010E94D149E3
:10252000D8019E966D937D938D939C93D1970AC00D
:10253000F60180A991A9A2A9B3A9F80186A797A736
:10254000A0ABB1ABFFEFEF1AFF0A0C5F1F4F24E007
:10255000C20ED11C34E0A30EB11C43E0E416F1041A
:1025600009F0B4CFCDC089A1833071F49AA19E3116
:1025700009F490C0953309F4BEC09C3109F0C0C085
:1025800069E57DE086E089C0AF8DAA2379F3B0913B
:102590004D0DBAA74090450D5090460D6090470DE7
:1025A0007090480D99E0C92E9DE0D92E09E41DE0F8
:1025B0004E01EEE08E0E911CE12CF12CAA2EB12CD6
:1025C000C5010E2C02C0959587950A94E2F780FD0F
:1025D0000BC0F601808D918DA28DB38DF80186A779
:1025E00097A7A0ABB1AB45C0FAA1F53309F441C040
:1025F0002AA521112BC0D601D0962D913D914D9148
:102600005C91D397F40160817181828193810E94F2
:10261000D249D8019E962D913D914D915C91D197D3
:102620000E94D249F80166A777A780AB91ABF2E090
:10263000EF121FC0A30192010E94D249D8019E96B9
:102640006D937D938D939C93D19713C0F601208D4C
:10265000318D428D538DD8019E966D917D918D91D6
:102660009C91D1970E94D249F80166A777A780ABC9
:1026700091ABFFEFEF1AFF0A24E0C20ED11C0C5FF2
:102680001F4F34E0830E911C43E0E416F10409F07F
:1026900097CF6CCF69E57DE087E00E9414338823F3
:1026A00009F400C58F8D811103C01AA219A229C097
:1026B000A9E0BDE0E9E4FDE080E090E04F8D242F4B
:1026C00030E0A901082E02C0559547950A94E2F71B
:1026D00040FD0AC058964D915D916D917C915B973C
:1026E000408B518B628B738B01961496349683309A
:1026F000910539F705C080914A0D823008F0C2C4B7
:102700001AA210914A0D103521F48F8D8111BCC48D
:102710003BC299A1923009F037C2111104C0AF8DAC
:10272000A11132C228C020E030E0A9016091550D0E
:102730007091560D8091570D9091580D0E94AB4AA3
:10274000882309F4A3C41C3809F409C240F41230E8
:10275000A1F01330A9F0113009F016C209C01E38DB
:1027600009F4FDC108F4F8C11F3809F4F5C10CC221
:10277000BF8DB11109C219A207C2E8A1E460E8A3A4
:10278000FF8DFF2309F4F5CD3CA5232F30E03BA7B7
:102790002AA79DA5892F90E09FA78EA781E090E0B2
:1027A0008C010CA402C0000F111F0A94E2F70DA4C3
:1027B00002C0880F991F0A94E2F7082B192B8F2F5C
:1027C00090E080239123892B09F462C4F901EE0F74
:1027D000FF1FEE0FFF1FE75BF24FD901AA0FBB1FD0
:1027E000AA0FBB1FAF5DB24F2D913D914D915C91F2
:1027F00066A577A580A991A90E94D1496B017C01AA
:10280000EEA5FFA5EE0FFF1FEE0FFF1FE75BF24FD8
:10281000AEA5BFA5AA0FBB1FAA0FBB1FAF5DB24FCE
:102820002D913D914D915C9166A577A580A991A9C7
:102830000E94D1492B013C0127FEE2C0E89427F811
:102840004CE050E067E77DE081E29DE00E94644E4D
:10285000892B11F481E236C480914C0D8130B1F4A2
:1028600023E333E34BEC51E460916E0D70916F0DF7
:102870008091700D9091710D0E94E94C60936E0DE6
:1028800070936F0D8093700D9093710D80906E0D0D
:1028900090906F0DA090700DB090710D20E030E021
:1028A00040E850E4C501B4010E94E94CA50194013F
:1028B0000E94E94C4B015C01A7019601C701B601DA
:1028C0000E94E94C9B01AC01C501B4010E94D149B1
:1028D0004B015C01A3019201C301B2010E94E94CCA
:1028E0009B01AC01C501B4010E94D1494B015C01BF
:1028F00020E030E0A9010E94AB4A87FDCBC3C501AF
:10290000B4010E94764D4B015C01A3019201C70105
:10291000B6010E94293B9B01AC01C501B40190584E
:102920000E94B24A4B015C0180914A0D833021F430
:10293000B7FAB094B7F8B09480916E0D90916F0D86
:10294000A091700DB091710D8CA39DA3AEA3BFA3F8
:1029500020E030E0A901BC01CD010E94AB4A87FF15
:1029600011C0B7FAB094B7F8B0948CA19DA1AEA1F4
:10297000BFA1B05880936E0D90936F0DA093700D12
:10298000B093710D0AA51BA5000F111F000F111F99
:10299000075A124FA3019201C501B4010E94E94CEC
:1029A0009B01AC01C701B6010E94D14920E030E093
:1029B00040E05FE30E94E94CD8016D937D938D93D5
:1029C0009C9313970EA51FA5000F111F000F111F39
:1029D000075A124FA7019601C501B4010E94E94CA4
:1029E000A30192010E94D24920E030E040E05FE381
:1029F0000E94E94CF8016083718382839383C4C091
:102A0000FCA18F2E912C08211921012B09F444C31C
:102A100021EF222280914C0D813009F456C00EA581
:102A20001FA5000F111F000F111F075A124FD801C9
:102A30002D913D914D915C91C301B2010E94D1490C
:102A40002B013C018AA59BA5880F991F880F991F10
:102A5000FC01E75AF24F5F012081318142815381AD
:102A6000C701B6010E94D149A30192010E94293BEE
:102A70006B017C01D8012D913D914D915C91F50147
:102A800060817181828193810E94293B4B015C01AD
:102A900060936E0D70936F0D8093700D9093710D18
:102AA0009B01AC01C701B6010E94D1496B017C01B9
:102AB000E894F7F82AE037ED43EA5BE3C701B60193
:102AC0000E94AE4C18165CF15FC089E4A82E8DE020
:102AD000B82E00E010E0C401002E02C09595879545
:102AE0000A94E2F780FF12C023E333E34BEC51E496
:102AF000D50150966D917D918D919C9153970E9437
:102B0000E94CF501608B718B828B938B0F5F1F4FAC
:102B1000F4E0AF0EB11C03301105E9F680CF20E0E0
:102B200030E040E05FE3C701B6010E94AE4C1816EA
:102B30000CF490CE2FE632E143E85AE3C501B4012C
:102B40000E94E94C9B01AC01C701B6010E94AE4C4A
:102B500018160CF47FCE18C028A1206128A31E5897
:102B6000123018F438A1386038A34F8D442309F48B
:102B700000CC4CE050E067E77DE081E29DE00E9400
:102B8000644E892B09F466CE28A1217088A180FFAC
:102B900003C0C1018E7D03C0C1018E7D9C7FA9A1B0
:102BA000A111937E892B09F079C2FE0131963F0174
:102BB0008DE0DF011D928A95E9F7222379F188A53E
:102BC00099A5867B892B09F06BC28091490D8533CD
:102BD00011F0811165C28091140D9091150DA09195
:102BE000160DB091170D8D839E83AF83B88790919A
:102BF000120D8091110D892B8D8769E47DE0C30151
:102C00000E948D4981115EC28CE0E7E7FDE0A1E200
:102C1000BDE001900D928A95E1F720C28091C81025
:102C20001091120D81FF26C080914A0D8150833092
:102C300018F0B8A1B064B8A3EF8DEE2339F0F9A174
:102C4000F23021F428A1206828A314C0103191F497
:102C50008091090D815098A19074833030F49923AC
:102C600049F038A1306238A305C0911103C048A1D2
:102C7000406248A38091660D9091670DA091680D08
:102C8000B091690D80931D0D90931E0DA0931F0DA3
:102C9000B093200D89879A87AB87BC8780914B0DB5
:102CA00080930A0D882311F088E08D878091550D5F
:102CB0009091560DA091570DB091580D8093180D1D
:102CC0009093190DA0931A0DB0931B0D89839A83CD
:102CD000AB83BC83C090720DD090730DE090740DE7
:102CE000F090750DA70196016091140D7091150D6E
:102CF0008091160D9091170D0E94AB4A08A10074A7
:102D0000811103C088A185FF1FC0112369F098A11C
:102D100097FD0AC0002321F040E050E0BA0102C054
:102D2000B701A601812F0BD38091720D9091730D85
:102D3000A091740DB091750D8093140D9093150DA5
:102D4000A093160DB093170D01110CC08091140DB6
:102D50009091150DA091160DB091170D8D839E8346
:102D6000AF83B8878091760D80931C0D8091530DB1
:102D70009091120D981749F04D815E816F81788591
:102D8000DED28091530D8093120D9D858091120D9E
:102D9000892B8D878091520D9091110D981769F0B4
:102DA000F6D28091520D811103C01092110D05C011
:102DB0009091110D892B8093110D9D858091110D9E
:102DC000892B8D878091540D9091130D981721F0C8
:102DD0008093130D0E94C50D8091490D843051F4EC
:102DE00060916A0D70916B0D80916C0D90916D0DDD
:102DF0000E94040D80914E0D80930D0D80914C0D1D
:102E000080930B0DA9A1A33071F580914F0D809394
:102E10000E0D811108C010927F0D1092800D10923E
:102E2000810D1092820DC0907F0DD090800DE090AA
:102E3000810DF090820DA70196016091450D709172
:102E4000460D8091470D9091480D0E94AB4A882312
:102E500051F0C092450DD092460DE092470DF09290
:102E6000480D0E949C468091500D90910F0D98172F
:102E700069F080930F0D8CE0FE013E96ADE2BDE05F
:102E800001900D928A95E1F70E949C4680914D0D2C
:102E900080930C0D8091490D8632F1F138F48C311C
:102EA00009F18E31F9F08A3069F04FC08C35D1F1DB
:102EB000863609F441C0883209F047C061E27DE0FE
:102EC00087E02DC069E57DE08AA10E94773180917D
:102ED0000F0DBAA1B81339C08CE0E9E5FDE0ADE211
:102EE000BDE025C08D8581608D87E9A1EE2329F0A5
:102EF000B30187E79DE00E94DD09B30189E59DE00C
:102F00000E94DD098CE0E9E5FDE0A1E2BDE0019071
:102F10000D928A95E1F719C061E27DE086E00E949A
:102F2000773113C08CE0E7E7FDE0A9E3BDE0019055
:102F30000D928A95E1F707C08CE0E9E3FDE0DF013F
:102F40001D928A95E9F70E949C4680914A0D8093D4
:102F5000090D8035F1F1B9A1B230D9F5813029F0F0
:102F6000811109C08D8581608D87B30187E79DE060
:102F70000E94DD0999C082508230D8F4E0906E0D35
:102F8000F0906F0D0091700D1091710DE8A1E2FBB2
:102F9000332430F83F9288A8ADA4CCA429E53DE0C5
:102FA00041E25DE0B30187E79DE00E941C0A0F90BB
:102FB0007BC08D8584608D8748A1B30187E79DE044
:102FC0000E94320D882309F46FC0813011F40E94F1
:102FD000050E8091510D8093100D882309F472C065
:102FE0000E94C6218091100D9091D70C833039F446
:102FF000923091F188E00E940C471ED72DC081E0ED
:103000008093090D10920D0D10920C0D10920A0D67
:1030100010920F0D1092120D1092110D1092130DAF
:1030200084E68093DE0C8093DF0C8093E00C92307A
:1030300081F06DE27DE080E00E941433882391F1FD
:103040000E949C4640E050E0BA0180E053D180E00D
:1030500097D188E00E94BB401092100D80E032C0F2
:1030600081E030C082E02EC088E12CC086E22AC018
:1030700089E128C084E026C08BE124C085E222C01B
:1030800084E120C08EE11EC08FE11CC086E11AC021
:1030900080E218C082E216C083E214C084E212C04B
:1030A00080E110C087E00EC08CE0E7E7FDE0A1E220
:1030B000BDE001900D928A95E1F78BCF1E8E18A28C
:1030C0000C94470EE0960FB6F894DEBF0FBECDBF4E
:1030D000DF91CF911F910F91FF90EF90DF90CF90F4
:1030E000BF90AF909F908F907F906F905F904F9028
:1030F0003F902F90089590910201892F887093FF3F
:1031000005C08091A00085FB882780F90895E0EA3A
:10311000F0E080818F7D8083E2E0F1E08081877F35
:1031200080830895E1E0F1E080818061808383E025
:103130008093A00089E18093A10080E094E09093C7
:10314000A9008093A8008081886080832091C410AA
:103150003091C5104091C6105091C7106091C010B9
:103160007091C1108091C2109091C3100E94D149FA
:103170009B01AC0160E070EC8FE794E40E94B24ADE
:10318000609336027093370280933802909339022D
:10319000BECF9093AB008093AA00892B21F480913D
:1031A000A0008F7D03C08091A00080628093A0006A
:1031B00008954F925F926F927F928F929F92AF92FB
:1031C000BF92CF92DF92EF92FF926B017C018090D1
:1031D000C4109090C510A090C610B090C710409039
:1031E000C0105090C1106090C2107090C310A30125
:1031F0009201C501B4010E94AE4C87FF19C06091D5
:10320000E00C70E080E090E00E944D4B2AE037ED4A
:1032100043E25CE30E94E94CA70196010E94E94C5D
:103220006B017C01A30192010E94AE4C87FD0BC093
:103230004092E60C5092E70C6092E80C7092E90C18
:1032400080E094E04AC0A5019401C701B6010E9444
:10325000AB4A1816FCF020E030E0A901C701B60126
:103260000E94AB4A81110BC01092E60C1092E70C41
:103270001092E80C1092E90C80E090E02EC0809251
:10328000E60C9092E70CA092E80CB092E90C81E079
:1032900090E023C0C092E60CD092E70CE092E80CDC
:1032A000F092E90CA5019401C701B6010E94D14931
:1032B0002091360230913702409138025091390204
:1032C0000E94E94C0E94884B20E030E040E85FE338
:1032D0000E94D2490E941F4BCB01FF90EF90DF90DC
:1032E000CF90BF90AF909F908F907F906F905F90A6
:1032F0004F9008959091D80C911120C081110AC06F
:103300001092E60C1092E70C1092E80C1092E90C67
:10331000FEDE12C09091C81091FF05C0803219F4F2
:1033200040E050E0BA01CB01BA0143DF32DF8091C7
:1033300002018860809302011092E20C0895CF92FE
:10334000DF92EF92FF92CF939091D70C923071F071
:103350006A017B01C82F0E94C621B701A6018C2FEC
:10336000CF91FF90EF90DF90CF90C4CFCF91FF909F
:10337000EF90DF90CF900895089580E0089508952C
:103380008091D80C811102C01092E20C0895CF9365
:103390009091D70C923029F0C82FF8D78C2FCF916D
:1033A000EFCFCF91089580914602909147029817F0
:1033B00020F0981B892F809508958150891B0895CE
:1033C000E0ECF0E08081826080831092C50080E1B3
:1033D0008093C400E1ECF0E08081886980830895E7
:1033E000E091450291E09E0F20914402921305C0A6
:1033F0002091EB0C24FFF8CF0BC0F0E0ED53F24F1F
:103400008083909345028091C10080628093C100C7
:1034100008951F920F920FB60F9211240BB60F92C0
:103420008F939F93EF93FF9380914402E82FF0E0F6
:10343000ED53F24F90819093C6008F5F80934402CA
:1034400090914502891305C08091C1008F7D8093C2
:10345000C100FF91EF919F918F910F900BBE0F9044
:103460000FBE0F901F9018959091460280914702D1
:10347000981749F0E92FF0E0ED53F14F80819F5FFD
:103480009093460208958FEF089520913A0230916B
:103490003B0280913C0290913D028217930769F0B4
:1034A000F901ED57F24F80812F5F3F4F2F73332784
:1034B00030933B0220933A0208958FEF0895809154
:1034C0003C0290913A02891B8F7308951F920F92CC
:1034D0000FB60F9211240BB60F922F933F934F9379
:1034E0005F936F937F938F939F93AF93BF93CF938C
:1034F000EF93FF93C091C60080914302813019F091
:103500008330C1F168C08C2F0E94790780933E02FE
:10351000803140F590914202E92F90FD07C0E69579
:10352000F0E0E15CFD4F8295807F08C0F0E03197CC
:10353000F595E795E15CFD4F2081820F80839F5FC9
:1035400090934202963008F4DDC01092430210922C
:103550004202409141026091400280913F020E94EC
:103560001B09D0C010924302109242028AE20E94CC
:10357000A04031C020913C0230913D0281E0820F99
:103580008F7390E040913A0250913B028417950767
:10359000F1F0F901ED57F24FC08390933D02809313
:1035A0003C0280914202811102C0C09324028F5FCD
:1035B0008093420290912402891708F4A3C01092CC
:1035C00043021092420281E00E94F1489BC080E3D6
:1035D0000E94A04097C0CF3389F048F4C132A1F0D7
:1035E000C632B9F1C831D1F50E94D10D8BC0CF35AB
:1035F00069F0CE3729F0CE3589F50EC081E001C0E3
:1036000082E00E940C477EC088E0FBCF81E080937F
:1036100043021092420276C083E0809343021092EC
:10362000420220913C0230913D0281E0820F8F7373
:1036300090E040913A0250913B028417950739F28D
:10364000F901ED57F24FC08390933D0280933C0205
:1036500059C00E94F5070E940B0954C0C7FF44C01F
:103660008C2F90E0FC01E458F109EE31F10508F0EF
:1036700049C08827E755FF4F8F4F0C94434E80E297
:10368000C0CF8091D70C85FF3DC080E4BACF9FB7F3
:10369000F8948091080D81608093080D9FBF32C01F
:1036A00081E00DC082E00BC084E009C088E007C063
:1036B00080E105C080E203C080E401C080E80E9490
:1036C000D34820C081E00DC082E00BC084E009C077
:1036D00088E007C080E105C080E203C080E401C04B
:1036E00080E80E94DC480EC0A091470281E08A0F6A
:1036F00090914602891731F0B0E0AD53B14FCC93B1
:1037000080934702FF91EF91CF91BF91AF919F912D
:103710008F917F916F915F914F913F912F910F907A
:103720000BBE0F900FBE0F901F901895809147020F
:103730008093460208950E941036892B19F082E08A
:103740000C940C470895CF92DF92EF92FF92CF93A3
:10375000DF9380914802845090914A02973009F497
:103760009AC078F4933009F45AC028F49130E9F003
:10377000923059F107C1953009F46BC008F45DC06F
:1037800079C09A3009F4CCC038F4983009F48DC06F
:10379000993009F494C0F6C09C3009F4FCC008F4D8
:1037A000C4C0923309F4C6C0EDC0833081F44091A7
:1037B0004D0260914C0280914B02DF91CF91FF90BE
:1037C000EF90DF90CF900C941B09823011F08EE2C5
:1037D000DAC08BE492E00E944D09EC01BC0180E06C
:1037E00090E00E944B4B6B017C012091C010309106
:1037F000C1104091C2105091C3100E94AB4A1816DC
:10380000A4F0B701A601CD2B11F480E001C080E146
:10381000DF91CF91FF90EF90DF90CF906BCD813013
:10382000B1F680914B02823010F08CE2ACC0811175
:1038300002C0A098B0C0A09AAEC0813041F680917D
:103840004B02823090F7811102C07698A4C0769A1C
:10385000A2C08C3009F0BBCF89E293E00E94BF3E4A
:103860008BE492E0DF91CF91FF90EF90DF90CF90CB
:103870000C94CF30883009F0AACF80E193E00E9409
:10388000BF3E8BE492E0DF91CF91FF90EF90DF900D
:10389000CF900C94E33081119ACFDF91CF91FF90BC
:1038A000EF90DF90CF900C94F730811190CFDF91A3
:1038B000CF91FF90EF90DF90CF900C941531811154
:1038C00086CF0E94B03EC82F81E093E00E94BF3EA9
:1038D0006C2F70E080E090E00E94543F82EE92E016
:1038E0000E94BF3ECC23A9F0C0FF02C088E778DD6C
:1038F000C4FF02C088E574DDC1FF02C089E770DD46
:10390000C5FF02C089E56CDDC2FF07C08AE568DD3E
:1039100004C08DED92E00E94BF3E8BED92E02AC084
:10392000811155CF81EB92E025C0811150CF8FE7F7
:1039300092E020C0823071F481E792E00E94BF3EA5
:1039400060914B0270E080E090E00E94543F8FE66F
:1039500092E010C0853009F03ACF88E592E00E94ED
:10396000BF3E60914B0270E080E090E00E94543FC7
:1039700086E592E0DF91CF91FF90EF90DF90CF90BE
:103980000C94BF3E8BE2DF91CF91FF90EF90DF90E0
:10399000CF900C94A040DF91CF91FF90EF90DF90FB
:1039A000CF9008950F931F93CF93DF9380915C0284
:1039B00081115FC081E080935C0284E1E8E4F2E081
:1039C000DF011D928A95E9F77ADD853008F445C05C
:1039D0005CDD8E3509F03EC058DDC82F809348026B
:1039E0008531B0F509E412E0D1E0DC1730F44DDDAB
:1039F000F80181938F01DF5FF8CFD0E02197AE010E
:103A000068E472E080E00E94722DC85BDD4F98810F
:103A100089131CC098DE8091490290915D0289173C
:103A200069F080935D0280912502811107C0809129
:103A30004A028C3019F08FE20E94A04080915D0212
:103A40008F5F80935D021092250207C089E203C058
:103A50008EE201C08DE20E94A04010925C022FDD38
:103A6000853038F081E0DF91CF911F910F910C9458
:103A7000F148DF91CF911F910F910895CF93DF937C
:103A8000C091060DCC23B9F081E08093D70C8C2F28
:103A90000E94AF40C150C23018F00E94CD480BC008
:103AA00081E00E94BB4080E10E94BD488091EB0C08
:103AB00084FFFCCFF2CFC091EB0CCC2309F402C100
:103AC000C4FF04C081E08093D80CB3C1C0FF05C01F
:103AD0000E949E4381E00E94BD488C2F887E09F49D
:103AE00071C08091D70C982F937009F05AC08872DA
:103AF00099F08091D90C807C79F456D782E080933C
:103B0000DB0C8091D70C803239F4C7FD90C18091D5
:103B1000D90C80688093D90C8091D70C811103C097
:103B200091E09093D90CC6FF07C085FD05C0909128
:103B3000D90C90649093D90CC3FF05C0807E19F412
:103B400080E18093D70CC5FF2CC086E00E94BB406B
:103B50008091D90C87FD20C09091D70C9034A9F4A6
:103B600083FF13C08091DB0C82FF09C01DD786E064
:103B70008093DB0C8091D90C8E7F8093D90C80913F
:103B8000D90C837E82608093D90C8091D70C8038C9
:103B900019F080E48093D70C8091D90C80628093D7
:103BA000D90CC7FF0CC08091D70C813029F48091CB
:103BB000D90C85608093D90C80E88093D70C88EE6F
:103BC0000E94BD48C1FF42C08C2F8876E1F58091EC
:103BD000D70C803471F48091D90C85FD0AC084FF24
:103BE00003C01092D70C05C082FF03C08860809389
:103BF000D90C8091D70C882381F084FF24C0909148
:103C0000D90C90FF20C0803141F48091E10C8823D1
:103C100021F088608093E10C16C01092DB0C0E94AA
:103C20001036892B61F08091D90C86FD08C0109266
:103C3000D90C88E08093D70C77D7B7D304C0109203
:103C4000D90C1092D70C82E00E94BD48C2FF3AC046
:103C50008091D70C807D9091D90C8823A9F0809118
:103C6000DA0C811111C097FD0FC00E94383A809183
:103C7000DB0C81FF05C09091D90C91609093D90C19
:103C8000897F8093DB0C1BC097FF09C01092DB0C6F
:103C90000E94EB3537D60E94050E0E941C3A809197
:103CA000D90C85FF08C08F7781608093D90C80E4A0
:103CB0008093D70C04C01092D90C1092D70C84E0DA
:103CC0000E94BD48C091D60CCC2381F10E94E548EA
:103CD0003091DE0CC0FF02C084E601C0832FC1FD1D
:103CE000865FC2FD8A50C3FD8F5FC4FD8150893C51
:103CF00008F088EC8A3008F48AE02091DF0CC5FFD8
:103D000002C094E601C0922FC6FD92E3C7FD99E17F
:103D1000381302C0921751F08093DE0C9093DF0CA1
:103D20001092E20C0E94B4360E94383AD091EA0C0C
:103D3000DD2309F450C00E94EB489091E00CD0FFC5
:103D400002C084E601C0892FD1FD865FD2FD8A5072
:103D5000D3FD8F5FD4FD8150893C08F088EC8A3018
:103D600008F48AE0981749F09091DB0C98609093E2
:103D7000DB0C8093E00C1092E20CD5FF0FC0809119
:103D8000D70C803159F48091E10C811102C082E09E
:103D900003C080FF03C084608093E10C8D2F807C82
:103DA000D1F08091D70C882311F08871A1F0C091D7
:103DB000110DD7FF05C0C7FF02C0CF7701C0C06893
:103DC000D6FF05C0C6FF02C0CF7B01C0C0648C2FE8
:103DD000D7DAC093110DC091070DCC2339F00E94A2
:103DE000F748C0FDDFDDC4FD0E943B30C091D40C1C
:103DF000CC2371F00E940049C1FD0E94882FC2FDB2
:103E00000E949105C3FD0E944605C4FD0E94B205B3
:103E10008091080D882321F00E941C461092080D05
:103E20008091D70C8C7F29F0DF91CF917DC680E205
:103E30007ACEDF91CF9108952F923F924F925F9269
:103E40006F927F928F929F92AF92BF92CF92DF92AA
:103E5000EF92FF920F931F93CF93DF93CDB7DEB70F
:103E6000A7970FB6F894DEBF0FBECDBF07DE8091D7
:103E7000D90C882309F4D3C1CE0101961C018DE031
:103E8000D1011D928A95E9F786E08D870E94103650
:103E9000009771F40091120D8091110D082B809004
:103EA000140D9090150DA090160DB090170D06C032
:103EB000FC01018982A893A8A4A8B5A88091C81084
:103EC00081FF03C080E20E94DC48C12CD12C90EC21
:103ED000E92E90E4F92E102F1073F02FF07FFEA33F
:103EE00000740FA38091D90C882309F498C1909194
:103EF000D80C911194C180FF90C19091D70C292FBB
:103F0000207C09F449C182FDA4C01092E10C6AEF43
:103F10007CE0CE010E960E94B9468091D90C81FDBD
:103F200021C08CE0FE013E96DE015A9601900D9272
:103F30008A95E1F72AA13BA14CA15DA1C701B60179
:103F40000E94D2496B017C0120E030E048E951EC4D
:103F50000E94AB4A87FD06C0C12CD12C88E9E82E0F
:103F600081ECF82E0091C81004FF65C04E885F8870
:103F7000688C798C20E030E048E951ECC301B20153
:103F80000E94AB4A87FF57C001FD55C08091E50CE8
:103F9000813009F050C0A7019601C301B2010E940F
:103FA000AB4A87FF19C0CE8ADF8AE88EF98E80E09F
:103FB00090E0A8E4B3E489839A83AB83BC838D85C6
:103FC0009EA1892B8D878D829E82AF82B886B1019A
:103FD000CE010E960E949F0DA6E0AD871D821E8227
:103FE0001F82188640E050E0BA0180E083D980E06B
:103FF000C7D920E030E048E951EC6E897F89888D8F
:10400000998D0E94AB4A87FF1DC080E090E0A8E92F
:10401000B1EC8E8B9F8BA88FB98F80E090E0AAE7E0
:10402000B4E489839A83AB83BC83B101CE010E963D
:104030000E949F0D07C040E050E0BA0180E05AD9CD
:1040400080E09ED98091D90C8D7F84608093D90CBB
:10405000E4C0903889F48BE00E94BB4040E050E01F
:10406000BA0180E047D980E08BD9B0D18091D80CDB
:104070008111D5C003DDFACF903449F40E947B460C
:10408000811105C08091D90C8F7D8093D90C8091CE
:10409000D90C83FFC2C08091C8108271803109F5AC
:1040A0008091E50C8130E9F420E030E048E951EC02
:1040B0006E897F89888D998D0E94AB4A18168CF085
:1040C000CE8ADF8AE88EF98E80E090E0AAE7B4E439
:1040D00089839A83AB83BC83B101CE010E960E9483
:1040E0009F0D8091120D8823C9F08091D90C81FD1C
:1040F00015C08091C81081FF06C08091DB0C8860DC
:104100008093DB0C0BC0B501A401812FF3D841E0F3
:1041100060E070E080E890E40E94EF3A8091110D39
:10412000882369F08091D90C81FD09C08FA128D91D
:1041300041E060E070E080E89FE30E94EF3A809108
:10414000C81082718031E9F48091E50C8130C9F4A6
:104150008091D90C81FD15C080E090E0A8E4B3E423
:1041600089839A83AB83BC838D859EA1892B8D87A0
:104170008D829E82AF82B886B101CE014A960E949E
:104180009F0D8091D90C81FD48C080618093D90C2E
:1041900082E00E940C4741C08091E10C882381F1AC
:1041A00081FF0DC08091120D882339F140E050E06D
:1041B000BA0180E09FD8A1E0A093E10C2EC08C70E2
:1041C00061F18091120D882389F08AE00E94BB4042
:1041D0008091C81081FF06C08091DB0C88608093BD
:1041E000DB0C04C0B501A401812F84D88091E10CBF
:1041F00083FF03C082E00E940C471092E10C0DC0C7
:104200008091DB0C83FF09C0B501A401812F72D816
:104210008091DB0C877F8093DB0C30DC63CEA7962C
:104220000FB6F894DEBF0FBECDBFDF91CF911F91C7
:104230000F91FF90EF90DF90CF90BF90AF909F9045
:104240008F907F906F905F904F903F902F90089548
:10425000CF93DF938091C81083FF0AC00E94373C40
:10426000882331F081E08093D70C87E00E94BB4027
:104270008091D70C817839F082E00E94BB4081E0C8
:104280008093D70C10C01092D70C0E947B468823D5
:1042900031F08091EB0C80628093EB0CCDDD8EE5EC
:1042A00092E00E947E4681E00E94F148C0E0D0E0AA
:1042B000DBD88F3F09F460C08A3011F08D30A1F552
:1042C000BBDD8091D80C81115EC0EC2FF0E0E25A8A
:1042D000FD4F1082D0FF02C08BE023C080915E02B0
:1042E0008823F9F0843229F48EE592E00E94154784
:1042F00018C0813429F48EE592E00E94030811C0B1
:104300008A3229F48EE592E00E940308CFCF809193
:10431000D70C817211F089E004C08EE592E00E9412
:104320000B0E0E94A040C2CFDD2329F0893209F094
:10433000BFCFDD7FBDCF813208F4BACF8F3209F411
:10434000B7CF883299F08B3399F0CF3F99F02C2F6B
:1043500030E0E1E0EC0F9FE9980FD901A25ABD4F80
:104360009A3108F480528C93CE2FA2CFD2E0A0CF06
:10437000D4E09ECFD1E09CCFDED95EDD8091D80C19
:10438000882309F495CFDF91CF910895D4D954DDD6
:104390008091D80C811108C00E941036892BB9F782
:1043A0008091D70C883099F30895E6EAF3E0809184
:1043B000A20386878091B310880F845081958587EA
:1043C000EFE6F0E0808182608083089580916F0045
:1043D0008D7F80936F0080918100887F81608093C2
:1043E00081001092A0038091B6109091D70C8F3F5E
:1043F00039F42091060D211103C0903831F402C028
:10440000943019F090E00C941E3B08951F920F9287
:104410000FB60F9211240BB60F922F933F934F9329
:104420005F936F937F938F939F93AF93BF93EF931C
:10443000FF938091A003811102C288B19091B503CE
:10444000907E8F71892B88B982B1837E9091B4035D
:10445000892B82B98091B30386BD82E085BD81E05E
:104460008093A00378948091C7039091C803892B0F
:1044700009F0B3C08091A5039091A403981709F4A3
:104480009CC08091A50328E0829FC0011124FC01FB
:10449000E753FC4FF093C803E093C70322813381B5
:1044A0003093890020938800208131813093C303A9
:1044B0002093C203E4812091C4032E1761F1E0939D
:1044C000C40322E1E29FF0011124E75EFB4FF09369
:1044D000C603E093C5034485558566857785769543
:1044E0006795579547954093AE035093AF036093FC
:1044F000B0037093B1034093AA035093AB0360934E
:10450000AC037093AD034093A6035093A70360934D
:10451000A8037093A903E091C503F091C603308905
:104520002091A10323272093B503DC01A753BC4F9F
:1045300015969C9115974081518162817381092E56
:1045400004C076956795579547950A94D2F740939E
:10455000B6035093B7036093B8037093B9034481D3
:10456000558166817781092E04C0769567955795A8
:1045700047950A94D2F74093BA035093BB036093D4
:10458000BC037093BD03408551856285738504C06B
:1045900076956795579547959A95D2F74093BE03C0
:1045A0005093BF036093C0037093C10316968D911F
:1045B0009C9117970E94C91810C008DFE091C503AD
:1045C000F091C6038189882321F080E090E00E9469
:1045D000C91884E00E940C4732C18091EC0C8130F4
:1045E00011F40E9448401092B4034091A6035091E8
:1045F000A7036091A8037091A9038091B6039091DD
:10460000B703A091B803B091B903840F951FA61FFB
:10461000B71F8093A6039093A703A093A803B0931A
:10462000A903E091C503F091C603448555856685CD
:104630007785481759076A077B0768F524E02093B8
:10464000B4034485558566857785841B950BA60B39
:10465000B70B8093A6039093A703A093A803B093EE
:10466000A90320898091FA0C9091FB0CA091FC0C7D
:10467000B091FD0C27FF04C00197A109B10903C047
:104680000196A11DB11D8093FA0C9093FB0CA09391
:10469000FC0CB093FD0C4091AA035091AB036091C8
:1046A000AC037091AD038091BA039091BB03A091CC
:1046B000BC03B091BD03840F951FA61FB71F809345
:1046C000AA039093AB03A093AC03B093AD034485CE
:1046D000558566857785481759076A077B0778F5FA
:1046E0002091B40328602093B403448555856685E2
:1046F0007785841B950BA60BB70B8093AA03909329
:10470000AB03A093AC03B093AD0320898091FE0C62
:104710009091FF0CA091000DB091010D26FF04C0F7
:104720000197A109B10903C00196A11DB11D809394
:10473000FE0C9093FF0CA093000DB093010D4091DF
:10474000AE035091AF036091B0037091B1038091BB
:10475000BE039091BF03A091C003B091C103840F29
:10476000951FA61FB71F8093AE039093AF03A0932E
:10477000B003B093B10344855585668577854817A6
:1047800059076A077B0778F52091B40320612093CD
:10479000B4034485558566857785841B950BA60BE8
:1047A000B70B8093AE039093AF03A093B003B09385
:1047B000B10320898091020D9091030DA091040D09
:1047C000B091050D25FF04C00197A109B10903C0EF
:1047D0000196A11DB11D8093020D9093030DA0932E
:1047E000040DB093050D8091D70C843039F490916D
:1047F000B4038091DD0C89238093B4038091C203BC
:104800009091C30301979093C3038093C203892BB4
:1048100069F41092C8031092C7038091A5038F5FBB
:104820008093A5038A3011F41092A5039091B403EC
:104830008091A20389278093B4031092A003FF9173
:10484000EF91BF91AF919F918F917F916F915F9108
:104850004F913F912F910F900BBE0F900FBE0F9075
:104860001F9018951F920F920FB60F9211248F93DD
:104870009F9382B19091A2039C71837E892B82B910
:1048800015BC9F918F910F900FBE0F901F901895A0
:104890000F931F93CF93DF931092A2031092A10363
:1048A000C0E0D0E01C2F0C2F8091B41090E00C2EB3
:1048B00002C0959587950A94E2F780FF08C0812F82
:1048C0000E9480349091A203892B8093A20380914F
:1048D000B51090E002C0959587950A95E2F780FFA4
:1048E00008C0812F0E948A349091A103892B809364
:1048F000A1032196C330D105A9F6DF91CF911F9175
:104900000F910895CF93DF9361DD8EE3EEE5F3E041
:10491000DF011D928A95E9F7C6EAD3E083E2FE0142
:1049200011928A95E9F710929F0310929E031092BC
:10493000A5031092A40381E08093A3031092A00327
:10494000A7DF8091A1038F8782B1837E9091A2031C
:10495000892B82B988B18F719091A103892B88B975
:10496000DF91CF91089581B18C6181B987B1806E5B
:1049700087B9E1E8F0E080818F7E80838081886064
:104980008083E0E8F0E080818C7F808380818F707D
:104990008083EEE6F0E08081887F808314BC15BCC4
:1049A0008081816080830895CF93DF93C0919E03BF
:1049B000D0919F032097C9F080915F03816080931D
:1049C0005F036091820370918303809184039091CF
:1049D00085039B01AC010E94E94C6E8B7F8B888F15
:1049E000998F10929F0310929E03DF91CF910895AB
:1049F00080915F0381FF34C090915E0390937003B8
:104A00004091640350916503609166037091670360
:104A10004093710350937203609373037093740314
:104A20004091600350916103609162037091630350
:104A30004093790350937A0360937B0370937C03D4
:104A4000409168035091690360916A0370916B0310
:104A500040937503509376036093770370937803C4
:104A60008E7F846080935F0310929F0310929E0359
:104A7000089580915F0381FF50C02091700332E15F
:104A8000239FC0011124875E9B4F90939D038093C9
:104A90009C0320935E038091710390917203A09117
:104AA0007303B09174038093640390936503A093A0
:104AB0006603B09367038091790390917A03A09184
:104AC0007B03B0917C038093600390936103A09378
:104AD0006203B09363032091750330917603409194
:104AE00077035091780320936803309369034093D0
:104AF0006A0350936B0383E080935F0360E070E090
:104B000080EA9FE30E94B24A60936C0370936D0346
:104B100080936E0390936F0302C010925F03109214
:104B20009F0310929E0308952F923F924F925F929F
:104B30006F927F928F929F92AF92BF92CF92DF92AD
:104B4000EF92FF920F931F93CF93DF93CDB7DEB712
:104B5000E8970FB6F894DEBF0FBECDBF8091DB0C97
:104B600080FD39C79091A5038091A303981709F49C
:104B700032C780919E0390919F03892B09F024C333
:104B80008091DB0C82FF03C00E94073602C00E94A6
:104B9000103690939F0380939E0320909E03309045
:104BA0009F032114310409F416C710915F03812F6C
:104BB000817010FF09C012FF04C01E7F10935F03B5
:104BC000ECC010925F03E9C090915E039F5F993043
:104BD00009F0892F80935E03E82EF12C22E12E9DAF
:104BE000F0012F9DF00D1124E75EFB4FF0939D0324
:104BF000E0939C03D10150969C915097908BE2E1F9
:104C00008E9FC001112420E030E04D915D916D91A7
:104C10007D91FC01E20FF31FE75EFB4F03E0440FC1
:104C2000551F661F771F0A95D1F740835183628312
:104C300073832C5F3F4F2C30310539F722E12E9DD5
:104C4000F0012F9DF00D11249F01275E3B4FF101D4
:104C500084859585A685B78543E0880F991FAA1F8F
:104C6000BB1F4A95D1F7F90184879587A687B78737
:104C7000D1011C966D917D918D919C911F970E9401
:104C80004B4B60936403709365038093660390932A
:104C90006703F10122A133A144A155A10E94B24AA8
:104CA0009B01AC01609368037093690380936A036E
:104CB00090936B0360E070E080EA9FE30E94B24A49
:104CC00060936C0370936D0380936E0390936F03F6
:104CD00010926003109261031092620310926303BA
:104CE0008091DB0C81FD02C013FF1FC060918A031D
:104CF00070918B0380918C0390918D03609382035C
:104D00007093830380938403909385039B01AC018C
:104D10000E94E94CD10156966D937D938D939C939F
:104D20005997177F10935F030FC0F1016689778948
:104D3000808D918D0E94764D6093820370938303E2
:104D40008093840390938503F2E1FE9D8001FF9D93
:104D5000100D1124075E1B4FD80151961C928091B3
:104D6000C81081FF1AC0F101818985FF16C026A5F0
:104D700037A540A951A960E070E080E89FE30E9458
:104D8000B24A60939603709397038093980390932D
:104D90009903E1E0D8015196EC9310927E031092B2
:104DA0007F031092800310928103D1015E962D91B2
:104DB0003D914D915C91919760E070E080E09FE3C0
:104DC0000E94B24A4B015C018091DB0CF101C2A050
:104DD000D3A0E4A0F5A081FF4EC0F2E0F0937D03E4
:104DE000D10156964D905D906D907C905997A3019E
:104DF0009201C501B4010E94E94C9B01AC01C701BD
:104E0000B6010E94D1494B015C0120E030E0A901CC
:104E10000E94AB4A87FF1EC0F101668D778D80A18D
:104E200091A19B01AC010E94D249A70196010E9469
:104E3000E94C9B01AC01C301B2010E94D1490E941F
:104E4000764D60938A0370938B0380938C039093C9
:104E50008D03B5C180927E0390927F03A092800360
:104E6000B092810310928A0310928B0310928C03EC
:104E700010928D03A4C110927D03C0928E03D09234
:104E80008F03E0929003F092910382FF0DC0109285
:104E90008A0310928B0310928C0310928D03198257
:104EA0001A821B821C8210C00E94203669837A837A
:104EB0008B839C830E94764D60938A0370938B034F
:104EC00080938C0390938D0380919E0390919F0318
:104ED0000E94413669877A878B879C879B01AC014A
:104EE0000E94E94C2B013C0120919E0330919F03CD
:104EF0003A8B298BD90192968D919D910D90BC9101
:104F0000A02D8D879E87AF87B88BD90156962D919E
:104F10003D914D915C9159972D833E834F835887E6
:104F2000C301B2010E94AB4A87FF76C0A301920180
:104F30006D817E818F8198850E94D149A501940160
:104F40000E94E94C9B01AC016D857E858F85988917
:104F50000E94D14960938E0370938F0380939003D6
:104F60009093910320E030E0A9010E94AB4A18160B
:104F70007CF1B2E0B0937D03E989FA89668D778D83
:104F800080A191A19B01AC010E94D2492D853E8553
:104F90004F8558890E94E94C9B01AC01A989BA89C7
:104FA00056966D917D918D919C9159970E94D14912
:104FB0000E94764D60938A0370938B0380938C03D9
:104FC00090938D0380915F03886080935F03F7C0A7
:104FD00029813A814B815C81C301B2010E94D14990
:104FE000A50194010E94E94C60939203709393038E
:104FF000809394039093950329853A854B855C852E
:10500000209386033093870340938803509389034A
:1050100033E030937D03D3C029813A814B815C8199
:105020006D817E818F8198850E94D149A50194016F
:105030000E94E94C2D853E854F8558890E94D249B2
:1050400020E030E040E05FE30E94E94C6B017C012E
:1050500020E030E0A9010E94AE4C18160CF097C079
:10506000A70196016D857E858F8598890E94AE4C3B
:1050700018160CF088C029813A814B815C81C301EC
:10508000B2010E94D149A50194010E94E94C9B0103
:10509000AC01609392037093930380939403909375
:1050A0009503C701B6010E94AE4C1816DCF5898540
:1050B0009A85AB85BC858093860390938703A093E4
:1050C0008803B09389032D813E814F815885C301A8
:1050D000B2010E94AB4A811104C091E090937D031C
:1050E0006EC02D813E814F815885C301B2010E945F
:1050F000D149A50194010E94E94C9B01AC0160914A
:105100008E0370918F0380919003909191030E9480
:10511000D14960938E0370938F0380939003909393
:1051200091034DC0C0928E03D0928F03E092900302
:10513000F0929103C0929203D0929303E092940371
:10514000F0929503A989BA895E966D917D918D91B2
:105150009C9191979B01AC010E94D249A7019601B5
:105160000E94E94C29813A814B815C810E94D2499D
:105170000E94764D60938603709387038093880323
:10518000909389031CC0B2E0B0937D0318C01092C5
:105190008E0310928F0310929003109291038091CE
:1051A0008A0390918B03A0918C03B0918D0380931F
:1051B000860390938703A0938803B093890380911B
:1051C000DB0C88608093DB0CE091A40348E0E49F53
:1051D000900111243A8B298BF901E753FC4F809100
:1051E0005E03848380919E0390919F0398AF8FAB61
:1051F000DC019296BC91BF8FFC01F3A1F8A3DC0106
:105200009496BC91B9A3FC01F5A1FAA320916C037B
:1052100030916D0340916E0350916F036F8D78A1B3
:105220008B2F9F2F0E94D1496BA77CA78DA79EA78C
:1052300020E030E0A9010E94AB4A87FF04C01BA612
:105240001CA61DA61EA6209186032B8B30918703DA
:105250003C8B409188034D8B509189035E8B8091EC
:105260008E038B8F90918F039C8FA0919003AD8FB5
:10527000B0919103BE8FE0918203E983F0918303A3
:10528000FD83209184032987309185033D874091D8
:1052900092034BA3509193035CA3809194038DA33D
:1052A000909195039EA3A0917E03AFA3B0917F033D
:1052B000B8A7E0918003E9A7F0918103FAA72091B4
:1052C0008A032FA730918B0338AB40918C0349ABF5
:1052D00050918D035AAB3F8C08A129A01AA18EE3EF
:1052E000C82E83ECD82E8EE2E82E89E3F82E1F8A92
:1052F000188E198E1A8E4601570180917D038130D8
:1053000009F4FBC0AFA9B8AD5E962D913D914D91CA
:105310005C919197813008F472C0833009F024C108
:10532000C701B6010E94E94C2B013C012B893C8945
:105330004D895E8969817D8189859D850E94D149DC
:105340009B01AC01C301B2010E94AE4C87FD2EC08F
:105350002B8D3C8D4D8D5E8D6F8D78A189A19AA18D
:105360000E94D1499B01AC010E94D2496B017C0192
:1053700029813D8149855D856B897C898D899E89DF
:105380000E94D2499B01AC01C701B6010E94B24AFA
:105390006B017C01B1E0B0937D03EB89E983FC896B
:1053A000FD832D8929873E893D8795C020E030E027
:1053B00040E05FE3C301B2010E94E94C9B01AC01F4
:1053C00069817D8189859D850E94D149A7019601CA
:1053D0000E94E94C9B01AC01632D702F822D912F0F
:1053E0000E94D149362E072F282E192FA301920192
:1053F00069817D8189859D850E94D14979C0C701D8
:10540000B6010E94E94C2B013C0120E030E040E075
:105410005FE30E94E94C29813D8149855D850E94B9
:10542000D249A70196010E94E94C9B01AC01632D72
:10543000702F822D912F0E94D149362E072F282EB2
:10544000192F262F372F482F592F6B8D7C8D8D8D3F
:105450009E8D0E94AE4C18160CF042C02B8D3C8DD8
:105460004D8D5E8D6F8D78A189A19AA10E94D14941
:105470009B01AC010E94D2496B017C0129813D81D5
:1054800049855D856B897C898D899E890E94D24979
:105490009B01AC01C701B6010E94B24A6B017C01BD
:1054A0002BA13CA14DA15EA16B8D7C8D8D8D9E8D20
:1054B0000E94AB4A811104C0B2E0B0937D0303C0E7
:1054C000E1E0E0937D03FB89F9832C892D833D89FD
:1054D00039874E894D873B8C0C8D2D8C1E8DC0C01D
:1054E000A301920169817D8189859D850E94D249B0
:1054F00069837D8389879D87B3C02B893C894D89CA
:105500005E89C701B6010E94E94C9B01AC01632D85
:10551000702F822D912F0E94D1493B012C019B01BC
:10552000AC016BA17CA18DA19EA10E94AE4C18166E
:105530000CF092C02BA13CA14DA15EA1632D702F58
:10554000822D912F0E94D1492B893C894D895E89FA
:105550000E94B24A6B017C0152E050937D033BA054
:105560000CA12DA01EA17CC0C701B6010E94E94C70
:105570002B013C019B01AC0169817D8189859D8561
:105580000E94AE4C1816CCF520E030E040E05FE31E
:10559000C301B2010E94E94C9B01AC0169817D818C
:1055A00089859D850E94D149A70196010E94E94CF9
:1055B0009B01AC01632D702F822D912F0E94D14948
:1055C0006BAB7CAB8DAB9EAB2FA138A549A55AA583
:1055D0000E94AE4C18168CF4A301920169817D8162
:1055E00089859D850E94D14969837D8389879D87AF
:1055F0003BA80CA92DA81EA933C02FA138A549A5E9
:105600005AA5632D702F822D912F0E94D1499B01A5
:10561000AC010E94D2496B017C012FA538A949A990
:105620005AA969817D8189859D850E94D2499B0106
:10563000AC01C701B6010E94B24A6B017C01BFA553
:10564000B983E8A9ED83F9A9F9872AA92D873FA095
:1056500008A529A41AA504C0362C072D242C152D25
:10566000A70196016F89788D898D9A8D0E94D24904
:105670006F8B788F898F9A8F9B01AC01C501B40124
:105680000E94AE4C1816B4F02BA53CA54DA55EA506
:10569000632D702F822D912F0E94AE4C18160CF5A1
:1056A0002EE333EC4EE259E3C501B4010E94D24926
:1056B0004B015C012F89388D498D5A8DC501B4018C
:1056C0000E94D1496B017C012FA138A549A55AA59B
:1056D000632D702F822D912F0E94AE4C18160CF462
:1056E0000CCE89819D81A985BD858093820390938D
:1056F0008303A0938403B0938503E0919C03F0910E
:105700009D039189911104C08091DB0C83FF43C0FC
:10571000AFA9B8AD51968C915197807359F1D2963B
:10572000CD90DD90ED90FC90D5979923D1F020910C
:10573000960330919703409198035091990360919B
:1057400082037091830380918403909185030E946A
:10575000E94C9B01AC01C701B6010E94E94C6B0109
:105760007C01C701B6010E94D91890939B038093D6
:105770009A030CC01092E60C1092E70C1092E80C01
:105780001092E90C10929B0310929A038091DB0C0B
:10579000877F8093DB0C80919A0390919B03E9892A
:1057A000FA89E753FC4FFE83ED839783868320912C
:1057B00068033091690340916A0350916B03632D34
:1057C000702F822D912F0E94E94C2B013C010E94E9
:1057D000984A6B017C01609164037091650380912C
:1057E0006603909167030E94984A4B015C01A701F0
:1057F00096010E94D1490E941F4B69837A838B8353
:105800009C83E981FA81AD81BE81ED93FC93EF2BFE
:1058100041F48091DB0C81FF04C081608093DB0C3C
:10582000C5C02091600330916103409162035091A3
:1058300063036F89788D898D9A8D0E94D2496D831B
:105840007E838F839887A3019201C501B4010E94D2
:10585000D1499B01AC016D817E818F8198850E9429
:10586000B24A4B015C0120EC31EE44E65EE40E945A
:10587000E94C0E94984A0E941F4BE989FA89E75334
:10588000FC4F603D37E073078105910510F41582E8
:1058900030C0603A4FE074078105910518F451E07B
:1058A00055830BC06034AFE17A078105910518F488
:1058B000B2E0B58302C023E02583E989FA89E75382
:1058C000FC4F2581022E04C09695879577956795A4
:1058D0000A94D2F749815A8102C0440F551F2A9574
:1058E000E2F7518340836115710551E08507910509
:1058F00038F4E989FA89E753FC4F7383628304C063
:105900008FEF9FEF938382838091A3038093A403FF
:105910008F5F8A3019F08093A30302C01092A30313
:10592000E0919E03F0919F03832D902FA22DB12F24
:1059300082A393A3A4A3B5A3C0926403D0926503EA
:10594000E0926603F0926703A3019201C701B601DA
:105950000E94D149A50194010E94E94C6093600323
:1059600070936103809362039093630320917E039D
:1059700030917F034091800350918103632D702FFC
:10598000822D912F0E94AB4A8111ECC820E030E0BB
:10599000A901632D702F822D912F0E94AE4C909102
:1059A000DB0C18165CF491609093DB0C80915F0324
:1059B00082FD11C0826080935F030DC092FF04C01E
:1059C00091609093DB0C07C010929F0310929E038E
:1059D0000E94F335C7C8E8960FB6F894DEBF0FBE35
:1059E000CDBFDF91CF911F910F91FF90EF90DF908E
:1059F000CF90BF90AF909F908F907F906F905F906F
:105A00004F903F902F9008958091D70C8C7749F05C
:105A10006091820370918303809184039091850348
:105A2000089560E070E0CB010895F999FECF92BD32
:105A300081BD81E08FBB80B50895F999FECFF894C0
:105A400092BD81BD81E08FBB80B58627962F9823BC
:105A500039F06F3F19F060BD84E006C084E104C0F6
:105A6000882321F060BD84E28FBBF99A7894089571
:105A7000EF92FF920F931F93CF93DF938B01040F4D
:105A8000151FEB017C01E61AF70AC7018C0F9D1F59
:105A9000C017D10719F06991D0DFF7CFDF91CF910F
:105AA0001F910F91FF90EF900895EF92FF920F9347
:105AB0001F93CF93DF938C01040F151FEC017B0123
:105AC000E81AF90AC7018C0F9D1FC017D10719F0FA
:105AD000ACDF8993F7CFDF91CF911F910F91FF90AA
