:1000000032C3000050C300004EC300004CC30000C8
:100010004AC3000048C3000046C3000044C30000B8
:1000200042C3000040C300000C942A390C940A43D8
:100030000C943F396BC6000036C3000034C3000087
:1000400032C300000C94581F2EC300002CC30000C4
:100050002AC3000028C3000026C300000C9484219A
:1000600022C300000C949E190C9462191CC300005A
:100070001AC300005BC4000016C3000014C30000D4
:1000800012C3000010C300000EC300000CC3000028
:100090000AC3000008C3000006C3000004C3000038
:1000A00002C3000000C30000FEC20000FCC200004A
:1000B000FAC20000F8C200000C943146F4C20000FD
:1000C000F2C20000F0C200000C94E645ECC2000051
:1000D000EAC20000E8C20000E6C20000E4C200007C
:1000E000E2C20000520556055A055E056205660526
:1000F0006A05F707FA07FD0700080308060809085C
:100100000C080F0828082B082E0831083408370877
:100110003A083D08400859085C085F08620865080D
:1001200068086B086E087108480F9A179A17520FE3
:100130005F0F6C0F790F9A177D0F9A178B0F9A1715
:10014000950F9F0FA90F9A179A179A17B80FC50FF7
:10015000D20F321A341A3A1A751A751A751A751A94
:10016000751A751A751A751A751A431A451A471AA7
:10017000491A4B1A4D1A4F1A511A751A551A571A0D
:10018000591A5B1A5D1A5F1A751A611A631A85305B
:100190008B308E30913096309E30A63040314031D9
:1001A0004031B330B630BF30C830403140314031DB
:1001B000403140314031D430DE30E930F130F4307C
:1001C000FD3006310C314031403115311E312931BD
:1001D0004031403140314031403140314031403197
:1001E0004031403140314031403140314031403187
:1001F000403133319F3DA23DA53DA83DAB3DAE3DD5
:10020000B13DB43DB73DBA3DBD3D084AD73B3BCEBD
:10021000016E84BCBFFDC12F3D6C74319ABD568305
:100220003DDA3D00C77F11BED9E4BB4C3E916BAABD
:10023000AABE000000803F05A84CCDB2D44EB9380C
:1002400036A9020C50B9918688083CA6AAAA2ABEF3
:10025000000000803F006D6D0D0A00546F74616CEA
:100260002064697374616E63653A20007365636F1F
:100270006E64730D0A0055702074696D653A200034
:10028000760A002C20002C20002C20002C20002C92
:1002900020002C20002C20002C2000535441543AE4
:1002A000005E000A0020746F2076657273696F6EBD
:1002B00020007472617020746F20757064617465C1
:1002C0002066726F6D2076657273696F6E20000D07
:1002D0000A00546F74616C207265736574733A2000
:1002E000000A002C20004C61737420574454206194
:1002F00064647265737365733A200000070E091C0D
:100300001B1215383F363124232A2D70777E796CE5
:100310006B6265484F464154535A5DE0E7EEE9FC95
:10032000FBF2F5D8DFD6D1C4C3CACD90979E998C85
:100330008B8285A8AFA6A1B4B3BABDC7C0C9CEDBB6
:10034000DCD5D2FFF8F1F6E3E4EDEAB7B0B9BEAB25
:10035000ACA5A28F88818693949D9A2720292E3B55
:100360003C35321F18111603040D0A5750595E4BC5
:100370004C45426F68616673747D7A898E8780957B
:10038000929B9CB1B6BFB8ADAAA3A4F9FEF7F0E565
:10039000E2EBECC1C6CFC8DDDAD3D4696E67607515
:1003A000727B7C51565F584D4A4344191E17100505
:1003B000020B0C21262F283D3A33344E4940475238
:1003C000555C5B7671787F6A6D64633E39303722A5
:1003D000252C2B0601080F1A1D1413AEA9A0A7B2D5
:1003E000B5BCBB9691989F8A8D8483DED9D0D7C245
:1003F000C5CCCBE6E1E8EFFAFDF4F37C413A007CB2
:100400004F763A007C57434F3A002C002C002C00CA
:100410007C563A002C007C54433A007C4C643A00F1
:100420007C506E3A007C46533A007C4C6E3A007C1D
:1004300042663A007C57506F733A007C4D506F73A0
:100440003A00536C65657000446F6F723A00436800
:1004500065636B00416C61726D00486F6D65004AA9
:100460006F6700486F6C643A0052756E0049646CA7
:1004700065006D6D005B546F74616C20646973740A
:10048000616E63653A20007365636F6E6473005B31
:1004900055702074696D653A20005B546F74616C0F
:1004A000207265736574733A20005B4F50543A00B4
:1004B0005B41534D20434E433B20535720566572BA
:1004C0003A312E332E312E32303231303131323B0F
:1004D000204857205665723A005B5645523A312EF5
:1004E00031662E32303137303830323A00244E0007
:1004F000204D0020470020530020460020540033A8
:10050000382E005B47433A47005B544C4F3A005B40
:100510004739323A003330003238005B47005B50D5
:1005200052423A005B484C503A2424202423202491
:100530004720244920244E2024783D76616C2024D5
:100540004E783D6C696E6520244A3D6C696E65206D
:1005500024534C50202443202458202448207E201B
:1005600021203F206374726C2D785D0D0A000D0A06
:100570004772626C20312E3166205B27242720666B
:100580006F722068656C705D0D0A005D000D0A5386
:100590006D61727442656E6368205B5357205665C7
:1005A000723A312E332E315D205B485720566572EA
:1005B0003A00536C656570696E6700526573746FBD
:1005C00072696E67207370696E646C650052657342
:1005D000746F72696E672064656661756C74730010
:1005E00050676D20456E6400436865636B204C69FD
:1005F0006D69747300436865636B20446F6F7200AC
:1006000044697361626C656400456E61626C656427
:100610000043617574696F6E3A20556E6C6F636B41
:10062000656400272448277C2724582720746F20DE
:10063000756E6C6F636B00526573657420746F2008
:10064000636F6E74696E7565005B4D53473A004188
:100650004C41524D3A000D0A006572726F723A00B9
:100660006F6B0D0A000011241FBECFEFD1E2DEBF79
:10067000CDBF00E00CBF12E0A0E0B2E0E4E6F6E996
:1006800000E00BBF02C007900D92A432B107D9F76A
:1006900020E1A4E2B2E001C01D92A038B207E1F768
:1006A0008FD50C94304BACCC8F929F92AF92BF926F
:1006B000EF92FF920F931F93CF93DF93C0910102AC
:1006C000D091020235E0E32E32E0F32EE1E0F0E0DB
:1006D0004C01A12CB12CD7016D917D918D919D91F3
:1006E0007D018F01A50194010E948E4ADC01CB019E
:1006F0009E5FAF4FBF4FBC01CD012AE09595879516
:10070000779567952A95D1F70150110959F7C60FCA
:10071000D71F3196E730F105F1F684E6B82FBC9F7C
:10072000C001BD9F900D1124DF91CF911F910F91BA
:10073000FF90EF90BF90AF909F908F900895CF92D1
:10074000DF92EF92FF92B0DFAC0120912102309155
:100750002202A2EEB0E00E94034B6B017C019A01E1
:10076000AEE1B0E00E94034BDC01CB018C0D9D1D7E
:10077000AE1DBF1D892F9A2FAB2FBB27A7FDBA95A2
:100780009093220280932102FF90EF90DF90CF9010
:100790000895CF92DF92EF92FF9286DFAC01209115
:1007A0001F0230912002A2EEB0E00E94034B6B01C9
:1007B0007C019A01AEE1B0E00E94034BDC01CB0169
:1007C0008C0D9D1DAE1DBF1D892F9A2FAB2FBB27F2
:1007D000A7FDBA959093200280931F02FF90EF909F
:1007E000DF90CF900895CF92DF92EF92FF925CDF7F
:1007F000AC0120911D0230911E02A2EEB0E00E94D9
:10080000034B6B017C019A01AEE1B0E00E94034B07
:10081000DC01CB018C0D9D1DAE1DBF1D892F9A2FB4
:10082000AB2FBB27A7FDBA9590931E0280931D02A4
:10083000FF90EF90DF90CF900895DC0120E030EE44
:1008400043E050E00E94124B28EE3FE540E050E0CC
:100850000E94DF4A30933302209332020895DC0174
:1008600020E030EE43E050E00E94124B28EE3FE5DE
:1008700040E050E00E94DF4A309331022093300282
:100880000895DC0120E030EE43E050E00E94124B7E
:1008900028EE3FE540E050E00E94DF4A30932F020F
:1008A00020932E020895DC012AE935E443E050E06C
:1008B0000E94124B28EC32E140E050E00E94DF4AF7
:1008C00030932D0220932C020895DC0120E030E0CB
:1008D00047E050E00E94124B28EE3FE540E050E038
:1008E0000E94DF4A30932B0220932A020895E09160
:1008F000740CF0E0EC58F34F8281883028F0885077
:1009000090917B00986003C090917B00977F9093BB
:100910007B0090917C00907F8F70892B80937C006E
:1009200080917A00806480937A0008951F920F92DC
:100930000FB60F9211240BB60F922F933F934F9344
:100940005F936F937F938F939F93AF93BF93EF9337
:10095000FF93809178009091790090932902809381
:10096000280288E00E94C645FF91EF91BF91AF91A8
:100970009F918F917F916F915F914F913F912F91B7
:100980000F900BBE0F900FBE0F901F901895809187
:10099000740C883060F4E82FF0E0EE0FFF1FE2588F
:1009A000F34F2091280230912902318320838F5FF9
:1009B0008093740C883070F491E0980FE82FF0E089
:1009C000EC58F34F228D213019F48093740C8FCFA3
:1009D000892FF0CF8093740C80E10C94C6458091F0
:1009E000750C81111EC091E09093750C9091740C60
:1009F000983091F41092740C883079F091E0980F4F
:100A0000E82FF0E0EC58F34F228D213019F4809359
:100A1000740C6DCF892FF0CF88E08093740C109206
:100A2000750C0895CF93DF93E4E7FCE0EF0121E03C
:100A300062A973A962348FE0780760F482A193A160
:100A4000019693A382A30E94A94A892B19F42A8FA5
:100A500013A212A2329621968CE0E438F80741F7EF
:100A6000DF91CF91BCCFEF92FF921F93CF93DF9393
:100A7000C4E7DCE07E0110E0F701828D813069F58A
:100A8000128E812F90E0FC013197E730F10530F4B0
:100A90008827EE58FF4F8F4F0C94FB4A8A859B8521
:100AA000CCDE1BC08A859B85DADE17C08A859B85D4
:100AB000E8DE13C08A859B85F6DE0FC08A859B859C
:100AC0003EDE0BC08A859B8564DE07C08A859B85D8
:100AD0008ADE03C08A859B85F8DE1F5FFFEFEF1A71
:100AE000FF0A2296183009F0C7CF1092750CDF91DB
:100AF000CF911F91FF90EF900895809121029091E6
:100B0000220264E670E00E94A94ACB010895809118
:100B10001F029091200264E670E00E94A94ACB0176
:100B200008958091320290913302089580913002AD
:100B300090913102089580912E0290912F02089594
:100B400080912C0290912D02089580912A0290911B
:100B50002B02089589B1863010F488E004C089B171
:100B6000803118F483E08093000288E08093740C55
:100B70001092750C909100029093760C9CE09093EB
:100B8000770C9DE09093780C9EE09093790C93E025
:100B900090937A0C80937B0C89E080937C0C82E0AC
:100BA00080937D0C84E090E09093A70C8093A60C3A
:100BB00082E692E09093A90C8093A80C9093AB0CE2
:100BC0008093AA0C8DE390E09093AD0C8093AC0CD5
:100BD0002AE730E03093AF0C2093AE0C3093B10C89
:100BE0002093B00C2FE93FE03093B30C2093B20C6C
:100BF0009093B50C8093B40CE6E9FCE021E030E082
:100C000080899189892B11F4318B208B808991897E
:100C10000297819391938CE0E63AF80789F78091E7
:100C20007A00876880937A0080917A008860809348
:100C30007A002091661030916710409168105091B1
:100C400069106091621070916310809164109091AE
:100C500065100E9489469B01AC0160E070EF80E264
:100C600096E40E946A476093240270932502809361
:100C70002602909327021092610C1092630C10923E
:100C8000620C1092640C1092650C1092660C10921B
:100C9000670C1092680C1092690C10926A0C1092FA
:100CA0006B0C10926C0C10926D0C10926E0C1092DA
:100CB0006F0C1092700C1092710C1092720C1092BA
:100CC000730C0895A0EBB0E01C92E1EBF0E0108211
:100CD0008081886080838C9182608C938C9181600C
:100CE0008C93808181608083808182608083808119
:100CF000846080838FEF8093B3001092B200E0E7AE
:100D0000F0E08081826080830895DCCF1F920F9293
:100D10000FB60F9211240BB60F922F933F934F9360
:100D20005F936F937F938F939F93AF93BF93EF9353
:100D3000FF93789484E00E94C645809123028F5FE0
:100D4000809323026DE30E949D4A911105C082E0C9
:100D50000E94C64510922302FF91EF91BF91AF917F
:100D60009F918F917F916F915F914F913F912F91C3
:100D70000F900BBE0F900FBE0F901F901895CF9243
:100D8000DF92EF92FF928EE09DE00E94672AC82ECC
:100D9000D12CE12CF12CFE2CED2CDC2CCC248FE082
:100DA0009DE00E94672AC82AFE2CED2CDC2CCC2466
:100DB00080E19DE00E94672AA7019601282BCA01C5
:100DC000B901FF90EF90DF90CF90089590ED980FCC
:100DD0009A3060F09FEB980F963010F48753089587
:100DE0009FE9980F963020F487550895892F08952C
:100DF00080E0089590ED980F9A3060F09FEB980F87
:100E0000963010F4875308959FE9980F963020F498
:100E100087550895892F089581E10895CF92DF9233
:100E2000EF92FF920F931F93CF93DF93EC018B010F
:100E30006C0186E0C80ED11C8881882391F0F9806E
:100E4000FF2079F0C3DFE82E8F2DC0DF90E1E99E0F
:100E5000800D1124F80181938F012296CC15DD05B8
:100E600059F7DF91CF911F910F91FF90EF90DF9095
:100E7000CF900895E1E9F0E08081846080838081F3
:100E80008D7F8083808180618083E0E9F0E08081D4
:100E90008260808380818E7F808380E090E8909361
:100EA00097008093960080E090E49093990080935F
:100EB000980010929B0010929A0010929D00109240
:100EC0009C000895E1E9F0E080818B7F8083808140
:100ED0008260808380818F7E8083E0E9F0E0808182
:100EE0008D7F80838081816080830895EBDF109205
:100EF0009B0010929A0010929D0010929C001092FC
:100F000099001092980008950F931F93CF93DF9349
:100F100000D0CDB7DEB78C01DC018C918A3219F09C
:100F20008134F9F0E9C0F80181818C3409F0E4C022
:100F300019821A821B82BE016F5F7F4FC801029621
:100F40006DDFC0DF898190E09093990080939800D5
:100F50008A8190E090939B0080939A008B8190E02F
:100F6000C2C0D80111968C918C3489F040F485343C
:100F700009F4BEC0863409F0BFC0A098BFC0883550
:100F800009F4B8C08A3509F0B7C0769AB7C09ADFBD
:100F9000F8018281803311F4A9DFB0C0873429F0D1
:100FA000982F9F7E923409F0A7C0D8011396EC9138
:100FB00090ED9E0F9A3008F09FC08734B9F18235CA
:100FC00021F0823409F09AC062C08E2F90E0FC01BB
:100FD000F197E930F10530F48827E758FF4F8F4F3C
:100FE0000C94FB4A109299001092980087C08FE0F1
:100FF00090E017C08FE190E014C08FE290E011C044
:101000008FE390E00EC08FE490E00BC08FE590E09E
:1010100008C08FE690E005C08FE790E002C08FEF38
:1010200090E0909399008093980068C08E2F90E094
:10103000FC01F197E930F10530F48827EE57FF4FB6
:101040008F4F0C94FB4A10929B0010929A0056C04E
:101050008FE090E017C08FE190E014C08FE290E045
:1010600011C08FE390E00EC08FE490E00BC08FE5DD
:1010700090E008C08FE690E005C08FE790E002C0E6
:101080008FEF90E090939B0080939A0037C08E2F53
:1010900090E0FC01F197E930F10530F48827E5573D
:1010A000FF4F8F4F0C94FB4A10929D0010929C00B2
:1010B00025C08FE090E017C08FE190E014C08FE270
:1010C00090E011C08FE390E00EC08FE490E00BC081
:1010D0008FE590E008C08FE690E005C08FE790E0D4
:1010E00002C08FEF90E090939D0080939C0006C01B
:1010F000A09A04C0769802C087E201C080E00F90F9
:101100000F900F90DF91CF911F910F910895DADE2C
:101110008FEF90E090939B0080939A0090939D00B6
:1011200080939C009093990080939800089528B133
:10113000811109C081E090E001C0880F6A95EAF74B
:101140008095822307C081E090E001C0880F6A95F6
:10115000EAF7822B88B9089583B3856083BB8DB18C
:1011600088638DB987B18F6087B988B18F6088B97E
:10117000EAE0F1E08081877F8083A098A298E0E98F
:10118000F0E0108210929100109292008081886AA3
:10119000808398DE1092950010929400109299002E
:1011A0001092980010929B0010929A0010929D004D
:1011B00010929C00AADDCEDC0E940A2E0C942146DF
:1011C0000E9439190E944C310E9405220E94EF4270
:1011D000C3DF8CE0ECEDFCE0DF011D928A95E9F7BE
:1011E00078941092B90C89EBE82E8CE0F82E93E1FC
:1011F000D92EC4E600ED1CE0DCE08091B90CF701CB
:101200009D2D11929A95E9F78093B90CC093C00C6B
:10121000C093C10CC093C20CD801ED2F1D92EA956A
:10122000E9F71092CE0C1092CD0C1092E80C1092AF
:10123000B80C1092CC0C1092E90C1092B70C0E94D2
:10124000891A2CD40E94EC170E9415190E94E338C9
:101250000E94073D0E94CF450E94C2320E94D421C5
:101260000E94F3362DD40E94C23D0E947E1EC5CF3F
:101270000F931F93CF93DF938C01EB0180916A1042
:1012800085FF07C08091B90C803219F0C8010E9417
:10129000643B8091B90C823029F10E94721C8091CC
:1012A000BA0C81111FC00E941033882319F00E94CC
:1012B0008E1AF3CFBE01C8010E941C34811112C0E6
:1012C00080916A1081FF0EC08C8584FF0BC04C8119
:1012D0005D816E817F8180E1DF91CF911F910F91C0
:1012E0000C94F918DF91CF911F910F9108952F92CF
:1012F0003F924F925F926F927F928F929F92AF92A6
:10130000BF92CF92DF92EF92FF920F931F93CF93F2
:10131000DF93CDB7DEB7E0970FB6F894DEBF0FBE10
:10132000CDBF988B8F877E876D875A8B498B39010C
:10133000E986FA860B871C878D8A27962FAD27971B
:101340002B8B34E0C39E60011124CA018C0D9D1DBE
:101350009A8F898FD301AC0DBD1DBC8FAB8F2D90A3
:101360003D904D905C90FC01208131814281538100
:10137000C201B1010E948A466D8F7E8F8F8F98A324
:10138000F4E0AF9E8001112429893A89200F311F92
:101390003AA329A3C301800F911F9CA38BA3DC0157
:1013A0008D909D90AD90BC90F9012081318142815A
:1013B0005381C501B4010E948A466DA37EA38FA309
:1013C00098A7D201C101B0588D839E83AF83B8879F
:1013D000D501C401B05889839A83AB83BC83EF8560
:1013E000F889EC0DFD1D2D8D3E8D4F8D58A160812E
:1013F0007181828193810E9489466B017C01EF8516
:10140000F889E00FF11F2DA13EA14FA158A56081E1
:101410007181828193810E9489464B015C01A70101
:1014200096016D817E818F8198850E94A1492B0153
:101430003C01A501940169817A818B819C810E9484
:10144000A1499B01AC01C301B2010E948A462B0154
:101450003C01A50194016D817E818F8198850E9458
:10146000A1494B015C01A701960169817A818B81B9
:101470009C810E94A1499B01AC01C501B4010E945D
:101480008946A30192010E94FD466B017C019B8964
:10149000992399F02DEB37E346E055EBC701B601F0
:1014A0000E94664987FD1DC02BED3FE049EC50E4EA
:1014B000C701B6010E94894612C02DEB37E346E012
:1014C00055E3C701B6010E946347181654F02BED8F
:1014D0003FE049EC50E4C701B6010E948A466B0127
:1014E0007C0180905E1090905F10A0906010B09092
:1014F000611029853A854B855C85CA01B9010E9436
:101500008A46A50194010E948946A50194010E9482
:10151000A1490E942E4A4B015C0120E030E040E0EE
:101520005FE3C701B6010E94A14929853A854B8531
:101530005C850E94A1499F77A50194010E946A479A
:101540000E9440480E94D7477C8B6B8BDB01AB2B02
:10155000E9F46D857E858F859889E0960FB6F894BD
:10156000DEBF0FBECDBFDF91CF911F910F91FF90D6
:10157000EF90DF90CF90BF90AF909F908F907F9033
:101580006F905F904F903F902F9072CEED85FE85CB
:1015900014854B01A12CB12C13FF16C0C501B40159
:1015A0000E9403489B01AC01AD85BE856D917D9184
:1015B0008D919C910E94A149ED85FE856083718388
:1015C00082839383177F1487C501B4010E94034867
:1015D0002B013C019B01AC01C701B6010E946A4787
:1015E00069877A878B879C872D89F4E02F9F40013C
:1015F000112409891A89080D191DEF85F889E80D4C
:10160000F91DD8012D913D914D915C9160817181C1
:10161000828193810E948946A30192010E946A47B8
:101620006DA77EA78FA798AB29853A854B855C85EA
:10163000CA01B9010E94A1499B01AC0160E070E0C0
:1016400080E090E40E9489466B017C012BEA3AEA33
:101650004AE25EE369857A858B859C850E94A14973
:101660004B015C0120E030E040E850E4C701B601E6
:101670000E948A469B01AC01C501B4010E94A149A8
:101680006D8B7E8B8F8B988F20E030E040E05FE3A6
:10169000C701B6010E94A14969A77AA78BA79CA799
:1016A000712C22242394312CEB89FC892E163F06C1
:1016B00009F44FCFBBE0B71508F444C029A53AA5FB
:1016C0004BA55CA569817A818B819C810E94A1498F
:1016D0006B017C012D893E894F89588D6D817E81FA
:1016E0008F8198850E94A149A70196010E948A4690
:1016F0007B016C0129A53AA54BA55CA56D817E8176
:101700008F8198850E94A1494B015C012D893E89FA
:101710004F89588D69817A818B819C810E94A14972
:101720009B01AC01C501B4010E9489466D837E8393
:101730008F8398877394C701D60189839A83AB837B
:10174000BC8365C0B10180E090E00E940348298518
:101750003A854B855C850E94A1496B017C010E9402
:1017600067472B013C01C701B6010E94244A4B0187
:101770005C01EB8DFC8DC080D180E280F380F7FAB4
:10178000F094F7F8F094ABA1BCA18D919D910D90D0
:10179000BC91A02D89839A83AB83BC83A70196015A
:1017A000C301B2010E94A1496D837E838F83988714
:1017B00029813A814B815C81C501B4010E94A14914
:1017C0009B01AC016D817E818F8198850E948A4644
:1017D0006D837E838F839887A7019601C501B4012D
:1017E0000E94A1496B017C0129813A814B815C8176
:1017F000C301B2010E94A1499B01AC01C701B6011E
:101800000E94894669837A838B839C83712C2D8DFA
:101810003E8D4F8D58A16D817E818F8198850E946C
:101820008A46E98DFA8D60837183828393832DA12B
:101830003EA14FA158A569817A818B819C810E942C
:101840008A46A9A1BAA16D937D938D939C9313971A
:101850002DA53EA54FA558A9F8016081718182810F
:1018600093810E948A46D8016D937D938D939C93BA
:1018700013976D857E8589899A89FADC8091BA0CE7
:10188000811104C0BFEF2B1A3B0A0ECFE0960FB6B2
:10189000F894DEBF0FBECDBFDF91CF911F910F91A6
:1018A000FF90EF90DF90CF90BF90AF909F908F9080
:1018B0007F906F905F904F903F902F900895CF92C0
:1018C000DF92EF92FF922091B90C223069F06B0108
:1018D0007C010E94181F40E0C701B601FF90EF9005
:1018E000DF90CF900C94C637FF90EF90DF90CF90B1
:1018F00008950E94033984E00E947E3983E00E94AB
:101900007E390E94721C8091BA0C811105C0D8D01A
:101910000E94F3360C94E3380895EF92FF920F93F0
:101920001F93CF932091B90C223009F45CC0C42FCF
:101930007B018C010E94181F8091BA0C811113C089
:101940001092BE0CC3FB882780F90E94F63C0E94CF
:10195000133D882351F084E00E9499450E94721C37
:1019600080E00E94F63C82E03FC0B701C80180DC05
:1019700081E08093CE0C82E00E94DE430E94721CC4
:101980008091BA0C8111EFCF8091B90C8111F6CF03
:101990008091CE0C813081F4C4FF0AC08CE0ECED64
:1019A000FCE0A0EDBCE001900D928A95E1F707C044
:1019B00085E00E94994503C081E08093BE0C10929F
:1019C000CE0C80E00E94F63C0E94721C0E94D42142
:1019D0000E94C2320E94F3360E94DB3E81E0909169
:1019E000BE0C911101C080E0CF911F910F91FF902B
:1019F000EF9008952091BA0C211121C00E941C344F
:101A00009091BD0C8823B1F09E7F94609093BD0CA3
:101A10000E944A220E94E6220E94271F0E94961AD4
:101A20008091BA0C81110BC08091BD0C82FDF6CF64
:101A30000C948B229B7F9093BD0C0C94961A089566
:101A4000CF93C82F0E94181F8091BA0C811102C039
:101A5000C093C70CCF9108958091CD0C84FD1DC01B
:101A600080E10E94DE430E94E1170E9418199091C4
:101A7000B90C892F8C7221F48091BD0C867069F0AD
:101A8000943031F48091E80C811105C086E001C0EA
:101A900083E00E9499450C94381F089580E4EBEE92
:101AA000FCE0DF011D928A95E9F76FE07DE080E0C0
:101AB0000E94EB2F811103C087E00C94723D0895C2
:101AC0006CED7CE083E09DE00C948B432F923F9281
:101AD0004F925F926F927F928F929F92AF92BF923E
:101AE000CF92DF92EF92FF920F931F93CF93DF93EA
:101AF000CDB7DEB7E0970FB6F894DEBF0FBECDBF0F
:101B00009BA38AA38AE3EBE2FDE0DF011D928A95A5
:101B1000E9F78BE0EBEEFCE0ACE2BDE001900D926A
:101B20008A95E1F7EAA1FBA18081843211F00C943F
:101B3000B81781E080932C0D10922D0D83E08E8FCD
:101B4000F1E0F8A3212C312C19A618A61CA21F8E97
:101B500019A2EE24E394F12C772473946AE0462EC4
:101B6000512C7EE5672E03E08E8DEAA1FBA1E80FE4
:101B7000F11DC080CC2009F443C29FEB9C0D9A312B
:101B800010F00C948A178F5F8E8FAE01465E5F4F08
:101B9000BE01625E7F4F8AA19BA10E9416378823F7
:101BA00011F40C948C178A8C9B8CAC8CBD8CC50169
:101BB000B4010E946F4A0E94D747162F70E080E060
:101BC00090E00E9405489B01AC01C501B4010E9450
:101BD000894620E030E048EC52E40E94A1490E948E
:101BE000044A0E94D747CB0127E4C21629F03DE4FE
:101BF000C31609F4E9C03CC1183209F4C5C020F588
:101C0000143168F4113108F08AC0143009F452C05C
:101C100008F464C01A3009F445C00C949A171C31BA
:101C200009F440C050F4163110F00C949A1725E1D5
:101C3000211B20932E0D26E0ACC01E3199F11632E7
:101C400009F44CC00C949A171D3309F497C0A8F4FA
:101C5000153381F140F41B3209F47AC0113309F4D1
:101C600077C00C949A171C3310F00C949A176AECF6
:101C7000610F6093320D29E08CC01C3538F41A35A1
:101C800008F053C0103581F10C949A171C3551F0AF
:101C90001F3510F00C949A17262D211B20932D0D23
:101CA00025E077C0009731F449A141110C948E17BB
:101CB000A1E0A9A310932B0D212F2D7F2C3119F01A
:101CC0001C3509F063C0009721F00A9711F00C94BD
:101CD0009A17610F60932B0D20E060C0B9A1B1117C
:101CE0000C948E17E2E0E9A310932C0D163209F044
:101CF0004FC08431910559F08E31910541F0883201
:101D0000910529F08233910511F00C949A17B201D4
:101D10000E94A94A665760932C0D21E03FC06FEEE8
:101D2000610F6093300D22E034C0892B31F466EAF4
:101D3000610F60932F0D23E031C06A30710511F0FF
:101D40000C949A171A3511F40C949A1724E026C0B3
:101D5000F9A1F1110C948E17113331F41092310D59
:101D600028E033E039A31AC00A9711F00C949A17AF
:101D70007092310D28E043E049A310C0892B11F087
:101D80000C949A172AE00AC027E003C020E001C0A3
:101D900021E0892B19F087E10C94BC17C70102C020
:101DA000880F991F2A95E2F728A539A528233923FA
:101DB000232B19F085E10C94BC17A8A5B9A5A82B75
:101DC000B92BB9A7A8A7D0CE892B29F7163018F4BC
:101DD000133090F01CC01E31B9F030F489EF810F40
:101DE000833018F10C949A17183311F00C949A1749
:101DF0007092360D8EE028C0112319F0113019F1C0
:101E000003C00093330D1FC01093330D1CC014305A
:101E100021F0153031F080E101C080E28093350D72
:101E200002C01092350D8CE00FC0183021F019302F
:101E300031F080E801C080E48093340D02C010923C
:101E4000340D8DE001C08BE0F70102C0EE0FFF1FE3
:101E50008A95E2F728A539A52E233F23232B09F0E5
:101E6000A9CF28A539A52E2B3F2B39A728A77CCE93
:101E70008C2D90E0FC01E654F109E531F10510F0FC
:101E80000C949A178827EC56FF4F8F4F0C94FB4AFF
:101E90008092370D9092380DA092390DB0923A0D84
:101EA00080E08CC080923B0D90923C0DA0923D0D45
:101EB000B0923E0D3CA131603CA381E07FC0809296
:101EC0003F0D9092400DA092410DB092420D4CA159
:101ED00042604CA382E072C08092430D9092440D08
:101EE000A092450DB092460D8CA184608CA383E036
:101EF00065C01093470D84E061C0C501B4010E9424
:101F0000D2476093480D7093490D80934A0D90938A
:101F10004B0D85E053C080924C0D90924D0DA092D8
:101F20004E0DB0924F0D86E049C08092500D9092B8
:101F3000510DA092520DB092530D87E03FC0809298
:101F4000540D9092550DA092560DB092570D88E009
:101F500035C020E030E04FE753E4C501B4010E94F2
:101F6000664918160CF4DCC71093580D89E026C09A
:101F70008092590D90925A0DA0925B0DB0925C0D1B
:101F80009F8D91609F8F8AE019C080925D0D909225
:101F90005E0DA0925F0DB092600DAF8DA260AF8F0D
:101FA0008BE00CC08092610D9092620DA092630D47
:101FB000B092640DBF8DB460BF8F8CE06701082EB6
:101FC00002C0CC0CDD1C0A94E2F791012C213D21CA
:101FD000232B09F0A7C7E1E6F3E002C0F595E795EA
:101FE0008A95E2F7E0FF09C020E030E0A901C501D1
:101FF000B4010E94634787FD97C72C283D28B4CDC4
:10200000FF8DFF2329F029A1211102C032E039A35D
:1020100025FE0EC08091480D9091490DA0914A0D6A
:10202000B0914B0D81389649A849B1050CF07EC797
:1020300088A1882319F020FE83C716C080912D0D3A
:10204000813061F499A19230D1F580912C0D8035C9
:10205000B1F18823A1F120FE73C731C08091EC0C4F
:1020600081112DC020FE1BC080912E0D813039F5CD
:1020700023E333E34BEC51E46091370D7091380D5D
:102080008091390D90913A0D0E94A1496093370DCE
:102090007093380D8093390D90933A0D10C0809154
:1020A000FA0C9091FB0CA091FC0CB091FD0C80936C
:1020B000370D9093380DA093390DB0933A0D30FC45
:1020C00010C08091F60C9091F70CA091F80CB09193
:1020D000F90C8093540D9093550DA093560DB09329
:1020E000570DA8A5B9A5B6FF15C026FE13C020E060
:1020F00030E0A90160914C0D70914D0D80914E0D15
:1021000090914F0D0E946347811102C01092360DCD
:10211000E89426F880912B0D843031F426FC02C01F
:102120008CE12AC7E89426F88091300D882371F05D
:10213000813031F4B1E0B8AB1DA6E2E0ECA70BC0F2
:1021400018AAF2E0FDA721E02CA705C032E038ABC9
:1021500041E04DA71CA680912E0D813021F089A170
:102160008330B1F52DC04BE2E42E4DE0F42E00E0BB
:1021700010E09F8DC92ED12CC601002E02C095956E
:1021800087950A94E2F780FF12C023E333E34BEC18
:1021900051E4D7019E966D917D918D919C91D1973F
:1021A0000E94A149F70166A777A780AB91AB0F5FAB
:1021B0001F4FF4E0EF0EF11C03301105E9F6CFCF0D
:1021C0008091310D813021F42F8D243009F0B0C67B
:1021D0008CE0EFE0FDE0DE011E9601900D928A9505
:1021E000E1F788A599A591FD09C090912B0D9AA3BF
:1021F0009A30B9F09C3509F4AAC010C18091320D13
:10220000873010F08DE1B8C69091F10C891769F311
:10221000BE01625F7F4F0E94EB2F882309F49CC6AA
:10222000E4CFAF8DA11102C08AE1A6C6C1018075BD
:102230009927892B09F474CF60914C0D70914D0D45
:1022400080914E0D90914F0D0E946F4A0E94D7478A
:102250006730C0F68091470D843129F0823009F053
:1022600069C627FC67C6BFEA2B22662319F06150B6
:102270006AA303C0E091320DEAA36BE37DE08AA17B
:102280000E94EB2F882309F467C6B090470D409059
:10229000270D5090280D6090290D70902A0D0BE2AB
:1022A0001DE03BEEC32E3CE0D32EE12CF12CFF8D44
:1022B0008F2E912CC4010E2C02C0959587950A94FF
:1022C000E2F780FF36C024E1B2122AC0D601D096D0
:1022D0002D913D914D915C91D39758966D917D9143
:1022E0008D919C915B970E948946F80126A537A5A0
:1022F00040A951A90E948946D80150966D937D93BB
:102300008D939C935397B2E0EB1213C0A3019201FB
:102310000E948946F801608B718B828B938B09C078
:10232000F80186A597A5A0A9B1A9808B918BA28B56
:10233000B38BFFEFEF1AFF0A0C5F1F4F24E0C20EB2
:10234000D11C33E0E316F10409F0B4CF35C14F8D51
:10235000442309F469CF4090270D5090280D6090D8
:10236000290D70902A0D0BE21DE02BEEC22E2CE001
:10237000D22E5E018EE0A80EB11CE12CF12C842E31
:10238000912CC4010E2C02C0959587950A94E2F712
:1023900080FF29C0D5012D913D914D915C91F601B1
:1023A000608D718D828D938D0E948946D8019E9695
:1023B0002D913D914D915C91D1970E948946F801F4
:1023C00066A777A780AB91ABF2E0EF1216C0A3012E
:1023D00092010E948946D8019E966D937D938D93BC
:1023E0009C93D1970AC0F60180A991A9A2A9B3A98B
:1023F000F80186A797A7A0ABB1ABFFEFEF1AFF0AD2
:102400000C5F1F4F24E0C20ED11C34E0A30EB11CA0
:1024100043E0E416F10409F0B4CFCDC089A18330C4
:1024200071F49AA19E3109F490C0953309F4BEC0AD
:102430009C3109F0C0C06BE37DE086E089C0AF8DC0
:10244000AA2379F3B0912F0DBAA74090270D509091
:10245000280D6090290D70902A0D9BEEC92E9CE0EE
:10246000D92E0BE21DE04E01EEE08E0E911CE12C08
:10247000F12CAA2EB12CC5010E2C02C09595879582
:102480000A94E2F780FD0BC0F601808D918DA28D3C
:10249000B38DF80186A797A7A0ABB1AB45C0FAA151
:1024A000F53309F441C02AA521112BC0D601D096DD
:1024B0002D913D914D915C91D397F4016081718193
:1024C000828193810E948A46D8019E962D913D91EA
:1024D0004D915C91D1970E948A46F80166A777A733
:1024E00080AB91ABF2E0EF121FC0A30192010E94FA
:1024F0008A46D8019E966D937D938D939C93D19738
:1025000013C0F601208D318D428D538DD8019E96DA
:102510006D917D918D919C91D1970E948A46F80191
:1025200066A777A780AB91ABFFEFEF1AFF0A24E015
:10253000C20ED11C0C5F1F4F34E0830E911C43E090
:10254000E416F10409F097CF6CCF6BE37DE087E0F0
:102550000E94EB2F882309F4FFC48F8D811103C0E3
:102560001AA219A229C0ABEEBCE0EBE2FDE080E0CC
:1025700090E04F8D242F30E0A901082E02C0559520
:1025800047950A94E2F740FD0AC058964D915D9137
:102590006D917C915B97408B518B628B738B019615
:1025A000149634968330910539F705C080912C0D2F
:1025B000823008F0C1C41AA210912C0D103521F4FC
:1025C0008F8D8111BBC43BC299A1923009F037C2F3
:1025D000111104C0AF8DA11132C228C020E030E03B
:1025E000A9016091370D7091380D8091390D90914E
:1025F0003A0D0E946347882309F4A2C41C3809F4E9
:1026000009C240F41230A1F01330A9F0113009F0E2
:1026100016C209C01E3809F4FDC108F4F8C11F38FC
:1026200009F4F5C10CC2BF8DB11109C219A207C2CC
:10263000E8A1E460E8A3FF8DFF2309F4F5CD3CA5F4
:10264000232F30E03BA72AA79DA5892F90E09FA7C5
:102650008EA781E090E08C010CA402C0000F111F36
:102660000A94E2F70DA402C0880F991F0A94E2F7BA
:10267000082B192B8F2F90E080239123892B09F4AD
:1026800061C4F901EE0FFF1FEE0FFF1FE55DF24F72
:10269000D901AA0FBB1FAA0FBB1FAD5FB24F2D916F
:1026A0003D914D915C9166A577A580A991A90E9465
:1026B00089466B017C01EEA5FFA5EE0FFF1FEE0F13
:1026C000FF1FE55DF24FAEA5BFA5AA0FBB1FAA0F66
:1026D000BB1FAD5FB24F2D913D914D915C9166A5B1
:1026E00077A580A991A90E9489462B013C0127FE6C
:1026F000E2C0E89427F84CE050E069E57DE083E033
:102700009DE00E941C4B892B11F481E235C480911D
:102710002E0D8130B1F423E333E34BEC51E46091AF
:10272000500D7091510D8091520D9091530D0E945A
:10273000A1496093500D7093510D8093520D909369
:10274000530D8090500D9090510DA090520DB0906F
:10275000530D20E030E040E850E4C501B4010E9490
:10276000A149A50194010E94A1494B015C01A70167
:102770009601C701B6010E94A1499B01AC01C501A8
:10278000B4010E9489464B015C01A3019201C3017F
:10279000B2010E94A1499B01AC01C501B4010E9494
:1027A00089464B015C0120E030E0A9010E946347AB
:1027B00087FDCAC3C501B4010E942E4A4B015C01CA
:1027C000A3019201C701B6010E9400389B01AC0130
:1027D000C501B40190580E946A474B015C01809189
:1027E0002C0D833021F4B7FAB094B7F8B0948091EF
:1027F000500D9091510DA091520DB091530D8CA39D
:102800009DA3AEA3BFA320E030E0A901BC01CD0190
:102810000E94634787FF11C0B7FAB094B7F8B0942D
:102820008CA19DA1AEA1BFA1B0588093500D9093F3
:10283000510DA093520DB093530D0AA51BA5000F87
:10284000111F000F111F055C124FA3019201C5015A
:10285000B4010E94A1499B01AC01C701B6010E94CD
:10286000894620E030E040E05FE30E94A149D801C2
:102870006D937D938D939C9313970EA51FA5000FC9
:10288000111F000F111F055C124FA7019601C50112
:10289000B4010E94A149A30192010E948A4620E04E
:1028A00030E040E05FE30E94A149F801608371835A
:1028B00082839383C4C0FCA18F2E912C08211921FF
:1028C000012B09F443C321EF222280912E0D813088
:1028D00009F456C00EA51FA5000F111F000F111FF0
:1028E000055C124FD8012D913D914D915C91C30132
:1028F000B2010E9489462B013C018AA59BA5880F45
:10290000991F880F991FFC01E55CF24F5F01208140
:10291000318142815381C701B6010E948946A301DA
:1029200092010E9400386B017C01D8012D913D91EC
:102930004D915C91F50160817181828193810E944A
:1029400000384B015C016093500D7093510D8093E2
:10295000520D9093530D9B01AC01C701B6010E942B
:1029600089466B017C01E894F7F82AE037ED43EAE9
:102970005BE3C701B6010E94664918165CF15FC0AF
:102980008BE2A82E8DE0B82E00E010E0C401002EEE
:1029900002C0959587950A94E2F780FF12C023E361
:1029A00033E34BEC51E4D50150966D917D918D91BF
:1029B0009C9153970E94A149F501608B718B828B8A
:1029C000938B0F5F1F4FF4E0AF0EB11C0330110566
:1029D000E9F680CF20E030E040E05FE3C701B601D8
:1029E0000E94664918160CF490CE2FE632E143E8B7
:1029F0005AE3C501B4010E94A1499B01AC01C70182
:102A0000B6010E94664918160CF47FCE18C028A1A2
:102A1000206128A31E58123018F438A1386038A35A
:102A20004F8D442309F400CC4CE050E069E57DE093
:102A300083E09DE00E941C4B892B09F466CE28A1FF
:102A4000217088A180FF03C0C1018E7D03C0C10138
:102A50008E7D9C7FA9A1A111937E892B09F078C25C
:102A6000FE0131963F018DE0DF011D928A95E9F765
:102A7000222379F188A599A5867B892B09F06AC262
:102A800080912B0D853311F0811164C28091F60C79
:102A90009091F70CA091F80CB091F90C8D839E8366
:102AA000AF83B8879091F40C8091F30C892B8D87BC
:102AB0006BE27DE0C3010E94454681115DC28CE05E
:102AC000E9E5FDE0A3E0BDE001900D928A95E1F714
:102AD0001FC280916A101091F40C81FF26C0809172
:102AE0002C0D8150833018F0B8A1B064B8A3EF8DDD
:102AF000EE2339F0F9A1F23021F428A1206828A3AF
:102B000014C0103191F48091EB0C815098A1907415
:102B1000833030F4992349F038A1306238A305C0DE
:102B2000911103C048A1406248A38091480D909143
:102B3000490DA0914A0DB0914B0D8093FF0C9093DD
:102B4000000DA093010DB093020D89879A87AB8782
:102B5000BC8780912D0D8093EC0C882311F088E0C8
:102B60008D878091370D9091380DA091390DB091DE
:102B70003A0D8093FA0C9093FB0CA093FC0CB0934D
:102B8000FD0C89839A83AB83BC83C090540DD09095
:102B9000550DE090560DF090570DA70196016091EC
:102BA000F60C7091F70C8091F80C9091F90C0E9442
:102BB000634708A10074811103C088A185FF1FC06D
:102BC000112369F098A197FD0AC0002321F040E08D
:102BD00050E0BA0102C0B701A601812F0AD380914B
:102BE000540D9091550DA091560DB091570D8093B5
:102BF000F60C9093F70CA093F80CB093F90C01111C
:102C00000CC08091F60C9091F70CA091F80CB0914B
:102C1000F90C8D839E83AF83B8878091580D809384
:102C2000FE0C8091350D9091F40C981749F04D8170
:102C30005E816F817885DDD28091350D8093F40CB3
:102C40009D858091F40C892B8D878091340D909116
:102C5000F30C981769F0F4D28091340D811103C000
:102C60001092F30C05C09091F30C892B8093F30C18
:102C70009D858091F30C892B8D878091360D9091E5
:102C8000F50C981721F08093F50C0E94200D80918F
:102C90002B0D843051F460914C0D70914D0D80914D
:102CA0004E0D90914F0D0E945F0C8091300D8093DE
:102CB000EF0C80912E0D8093ED0CA9A1A33071F53E
:102CC0008091310D8093F00C811108C01092610D3C
:102CD0001092620D1092630D1092640DC090610D00
:102CE000D090620DE090630DF090640DA701960105
:102CF0006091270D7091280D8091290D90912A0DDA
:102D00000E946347882351F0C092270DD092280D6E
:102D1000E092290DF0922A0D0E946E438091320DAF
:102D20009091F10C981769F08093F10C8CE0FE0102
:102D30003E96AFE0BDE001900D928A95E1F70E94CA
:102D40006E4380912F0D8093EE0C80912B0D863277
:102D5000F1F138F48C3109F18E31F9F08A3069F0F3
:102D60004FC08C35D1F1863609F441C0883209F064
:102D700047C063E07DE087E02DC06BE37DE08AA182
:102D80000E944E2E8091F10CBAA1B81339C08CE08C
:102D9000EBE3FDE0AFE0BDE025C08D8581608D8770
:102DA000E9A1EE2329F0B30189E59DE00E943809ED
:102DB000B3018BE39DE00E9438098CE0EBE3FDE07A
:102DC000A3E0BDE001900D928A95E1F719C063E0A0
:102DD0007DE086E00E944E2E13C08CE0E9E5FDE028
:102DE000ABE1BDE001900D928A95E1F707C08CE060
:102DF000EBE1FDE0DF011D928A95E9F70E946E4349
:102E000080912C0D8093EB0C8035F1F1B9A1B2309B
:102E1000D9F5813029F0811109C08D8581608D87B8
:102E2000B30189E59DE00E94380998C08250823044
:102E3000D8F4E090500DF090510D0091520D10918A
:102E4000530DE8A1E2FB332430F83F9288A8ADA4EB
:102E5000CCA42BE33DE043E05DE0B30189E59DE0D8
:102E60000E9477090F907AC08D8584608D8748A174
:102E7000B30189E59DE00E948D0C882309F46EC0A2
:102E8000813011F40E94600D8091330D8093F20C1B
:102E9000882309F471C0CCD78091F20C9091B90CC1
:102EA000833039F4923091F188E00E94DE431AD5E4
:102EB0002DC081E08093EB0C1092EF0C1092EE0C81
:102EC0001092EC0C1092F10C1092F40C1092F30C86
:102ED0001092F50C84E68093C00C8093C10C809313
:102EE000C20C923081F06FE07DE080E00E94EB2F19
:102EF000882391F10E946E4340E050E0BA0180E0E7
:102F000053D180E096D188E00E948D3D1092F20C62
:102F100080E032C081E030C082E02EC088E12CC069
:102F200086E22AC089E128C084E026C08BE124C063
:102F300085E222C084E120C08EE11EC08FE11CC06A
:102F400086E11AC080E218C082E216C083E214C093
:102F500084E212C080E110C087E00EC08CE0E9E599
:102F6000FDE0A3E0BDE001900D928A95E1F78CCFE2
:102F70001E8E18A20C94A20DE0960FB6F894DEBF38
:102F80000FBECDBFDF91CF911F910F91FF90EF90BA
:102F9000DF90CF90BF90AF909F908F907F906F9079
:102FA0005F904F903F902F90089590910201892F4C
:102FB000887093FF05C08091A00085FB882780F969
:102FC0000895E0EAF0E080818F7D8083E2E0F1E027
:102FD0008081877F80830895E1E0F1E080818061D6
:102FE000808383E08093A00089E18093A10080E04A
:102FF00094E09093A9008093A800808188608083EA
:1030000020916610309167104091681050916910BE
:1030100060916210709163108091641090916510BE
:103020000E9489469B01AC0160E070EC8FE794E45C
:103030000E946A476093340270933502809336028F
:1030400090933702BECF9093AB008093AA00892B58
:1030500021F48091A0008F7D03C08091A000806248
:103060008093A00008954F925F926F927F928F920B
:103070009F92AF92BF92CF92DF92EF92FF926B013D
:103080007C018090661090906710A0906810B090BE
:1030900069104090621050906310609064107090BE
:1030A0006510A3019201C501B4010E94664987FF22
:1030B00019C06091C20C70E080E090E00E94054869
:1030C0002AE037ED43E25CE30E94A149A7019601A3
:1030D0000E94A1496B017C01A30192010E946649F3
:1030E00087FD0BC04092C80C5092C90C6092CA0C6C
:1030F0007092CB0C80E094E04AC0A5019401C70116
:10310000B6010E9463471816FCF020E030E0A901E8
:10311000C701B6010E94634781110BC01092C80C11
:103120001092C90C1092CA0C1092CB0C80E090E067
:103130002EC08092C80C9092C90CA092CA0CB0927A
:10314000CB0C81E090E023C0C092C80CD092C90C97
:10315000E092CA0CF092CB0CA5019401C701B60114
:103160000E94894620913402309135024091360206
:10317000509137020E94A1490E94404820E030E06F
:1031800040E85FE30E948A460E94D747CB01FF9048
:10319000EF90DF90CF90BF90AF909F908F907F90F7
:1031A0006F905F904F9008959091BA0C911120C04C
:1031B00081110AC01092C80C1092C90C1092CA0C4E
:1031C0001092CB0CFEDE12C090916A1091FF05C0E8
:1031D000803219F440E050E0BA01CB01BA0143DF7C
:1031E00032DF809102018860809302011092C40C4A
:1031F0000895CF92DF92EF92FF92CF939091B90C06
:10320000923069F06A017B01C82F12D6B701A6017E
:103210008C2FCF91FF90EF90DF90CF90C5CFCF91C3
:10322000FF90EF90DF90CF900895089580E008958B
:1032300008958091BA0C811102C01092C40C0895B7
:10324000CF939091B90C923029F0C82FF1D58C2FE3
:10325000CF91EFCFCF91089580914002909141029C
:10326000981720F0981B892F809508958150891B0D
:103270000895E0ECF0E08081826080831092C500C8
:1032800080E18093C400E1ECF0E080818869808374
:103290000895E0913F0291E09E0F20913E0292132B
:1032A00005C02091CD0C24FFF8CF0BC0F0E0EB5906
:1032B000F24F808390933F028091C100806280939F
:1032C000C10008951F920F920FB60F9211240BB6F2
:1032D0000F928F939F93EF93FF9380913E02E82F7D
:1032E000F0E0EB59F24F90819093C6008F5F80938E
:1032F0003E0290913F02891305C08091C1008F7DED
:103300008093C100FF91EF919F918F910F900BBE21
:103310000F900FBE0F901F901895909140028091D2
:103320004102981749F0E92FF0E0EB59F14F808105
:103330009F5F9093400208958FEF08951F920F9220
:103340000FB60F9211240BB60F922F933F934F930A
:103350005F936F937F938F939F93AF93BF93CF931D
:10336000EF93FF93C091C60080913D02813009F038
:1033700045C08C2F0E94FA06809338028031B8F540
:1033800090913C02E92F90FD07C0E695F0E0E75CE4
:10339000FD4F8295807F08C0F0E03197F595E79565
:1033A000E75CFD4F2081820F80839F5F90933C02FA
:1033B000963008F49AC010923D0210923C020E948E
:1033C00062078091390290E0909399008093980071
:1033D00080913A0290E090939B0080939A008091B4
:1033E0003B0290E090939D0080939C007EC01092E1
:1033F0003D0210923C0287E20E94723DC632E1F02B
:1034000030F4C83161F0C132E1F488E00CC0CF354E
:1034100069F0CE3739F0CF33A1F481E004C00E94C7
:103420002C0D63C082E00E94DE435FC081E0809388
:103430003D0210923C0259C00E9476070E94870804
:1034400054C0C7FF44C08C2F90E0FC01E458F10940
:10345000EE31F10508F049C08827E755FF4F8F4F3F
:103460000C94FB4A80E2DFCF8091B90C85FF3DC010
:1034700080E4D9CF9FB7F8948091EA0C8160809363
:10348000EA0C9FBF32C081E00DC082E00BC084E037
:1034900009C088E007C080E105C080E203C080E485
:1034A00001C080E80E94A54520C081E00DC082E0F7
:1034B0000BC084E009C088E007C080E105C080E25D
:1034C00003C080E401C080E80E94AE450EC0E091D8
:1034D000410281E08E0F90914002891731F0F0E0B7
:1034E000EB59F14FC08380934102FF91EF91CF914F
:1034F000BF91AF919F918F917F916F915F914F910C
:103500003F912F910F900BBE0F900FBE0F901F9009
:103510001895809141028093400208950E94E732FD
:10352000892B19F082E00C94DE430895CF93DF934A
:10353000C091E80CCC23B9F081E08093B90C8C2FBA
:103540000E94813DC150C23018F00E949F450BC0BF
:1035500081E00E948D3D80E10E948F458091CD0CDD
:1035600084FFFCCFF2CFC091CD0CCC2309F402C173
:10357000C4FF04C081E08093BA0CB1C1C0FF05C094
:103580000E94704081E00E948F458C2F887E09F454
:1035900071C08091B90C982F937009F05AC088724D
:1035A00099F08091BB0C807C79F450D782E08093B5
:1035B000BD0C8091B90C803239F4C7FD8EC1809169
:1035C000BB0C80688093BB0C8091B90C811103C047
:1035D00091E09093BB0CC6FF07C085FD05C090919C
:1035E000BB0C90649093BB0CC3FF05C0807E19F4A4
:1035F00080E18093B90CC5FF2CC086E00E948D3D10
:103600008091BB0C87FD20C09091B90C9034A9F437
:1036100083FF13C08091BD0C82FF09C017D786E0DD
:103620008093BD0C8091BB0C8E7F8093BB0C8091EE
:10363000BB0C837E82608093BB0C8091B90C803878
:1036400019F080E48093B90C8091BB0C8062809368
:10365000BB0CC7FF0CC08091B90C813029F480915C
:10366000BB0C85608093BB0C80E88093B90C88EE1E
:103670000E948F45C1FF42C08C2F8876E1F5809172
:10368000B90C803471F48091BB0C85FD0AC084FFB5
:1036900003C01092B90C05C082FF03C088608093FC
:1036A000BB0C8091B90C882381F084FF24C09091D9
:1036B000BB0C90FF20C0803141F48091C30C882363
:1036C00021F088608093C30C16C01092BD0C0E943C
:1036D000E732892B61F08091BB0C86FD08C0109207
:1036E000BB0C88E08093B90C71D7B1D304C01092A1
:1036F000BB0C1092B90C82E00E948F45C2FF3AC009
:103700008091B90C807D9091BB0C8823A9F08091A9
:10371000BC0C811111C097FD0FC00E940F37809122
:10372000BD0C81FF05C09091BB0C91609093BB0CC8
:10373000897F8093BD0C1BC097FF09C01092BD0C00
:103740000E94C23231D60E94600D0E94F3368091F1
:10375000BB0C85FF08C08F7781608093BB0C80E431
:103760008093B90C04C01092BB0C1092B90C84E089
:103770000E948F45C091B80CCC2381F10E94B745BF
:103780003091C00CC0FF02C084E601C0832FC1FD90
:10379000865FC2FD8A50C3FD8F5FC4FD8150893CA6
:1037A00008F088EC8A3008F48AE02091C10CC5FF4B
:1037B00002C094E601C0922FC6FD92E3C7FD99E1D5
:1037C000381302C0921751F08093C00C9093C10C33
:1037D0001092C40C0E948B330E940F37D091CC0CF6
:1037E000DD2309F450C00E94BD459091C20CD0FF6A
:1037F00002C084E601C0892FD1FD865FD2FD8A50C8
:10380000D3FD8F5FD4FD8150893C08F088EC8A306D
:1038100008F48AE0981749F09091BD0C9860909355
:10382000BD0C8093C20C1092C40CD5FF0FC08091C8
:10383000B90C803159F48091C30C811102C082E02F
:1038400003C080FF03C084608093C30C8D2F807CF5
:10385000D1F08091B90C882311F08871A1F0C0914A
:10386000F30CD7FF05C0C7FF02C0CF7701C0C06807
:10387000D6FF05C0C6FF02C0CF7B01C0C0648C2F3D
:10388000D8DCC093F30CC091E90CCC2329F00E9442
:10389000C345C4FD0E948D2DC091B60CCC2371F0A0
:1038A0000E94CC45C1FD0E94DA2CC2FD0E94120587
:1038B000C3FD0E94C704C4FD0E9433058091EA0C39
:1038C000882321F00E94EE421092EA0C8091B90CFC
:1038D0008C7F29F0DF91CF9179C680E27CCEDF9199
:1038E000CF9108952F923F924F925F926F927F9265
:1038F0008F929F92AF92BF92CF92DF92EF92FF9200
:103900000F931F93CF93DF93CDB7DEB7A7970FB673
:10391000F894DEBF0FBECDBF09DE8091BB0C8823BB
:1039200009F4D3C1CE0101961C018DE0D1011D9295
:103930008A95E9F786E08D870E94E732009771F457
:103940000091F40C8091F30C082B8090F60C909071
:10395000F70CA090F80CB090F90C06C0FC0101899E
:1039600082A893A8A4A8B5A880916A1081FF03C07B
:1039700080E20E94AE45C12CD12C90ECE92E90E45F
:10398000F92E102F1073F02FF07FFEA300740FA3F9
:103990008091BB0C882309F498C19091BA0C9111C5
:1039A00094C180FF90C19091B90C292F207C09F41B
:1039B00049C182FDA4C01092C30C6CED7CE0CE0125
:1039C0000E960E948B438091BB0C81FD21C08CE040
:1039D000FE013E96DE015A9601900D928A95E1F71E
:1039E0002AA13BA14CA15DA1C701B6010E948A4654
:1039F0006B017C0120E030E048E951EC0E94634714
:103A000087FD06C0C12CD12C88E9E82E81ECF82E68
:103A100000916A1004FF65C04E885F88688C798CBD
:103A200020E030E048E951ECC301B2010E94634755
:103A300087FF57C001FD55C08091C70C813009F048
:103A400050C0A7019601C301B2010E94634787FFDE
:103A500019C0CE8ADF8AE88EF98E80E090E0A8E473
:103A6000B3E489839A83AB83BC838D859EA1892B24
:103A70008D878D829E82AF82B886B101CE010E966F
:103A80000E94FA0CA6E0AD871D821E821F82188656
:103A900040E050E0BA0180E087DB80E0CADB20E054
:103AA00030E048E951EC6E897F89888D998D0E94BC
:103AB000634787FF1DC080E090E0A8E9B1EC8E8BE2
:103AC0009F8BA88FB98F80E090E0AAE7B4E4898348
:103AD0009A83AB83BC83B101CE010E960E94FA0C8F
:103AE00007C040E050E0BA0180E05EDB80E0A1DB8F
:103AF0008091BB0C8D7F84608093BB0CE4C09038B8
:103B000089F48BE00E948D3D40E050E0BA0180E0F6
:103B10004BDB80E08EDBACD18091BA0C8111D5C03B
:103B200005DDFACF903449F40E944D43811105C060
:103B30008091BB0C8F7D8093BB0C8091BB0C83FF6D
:103B4000C2C080916A108271803109F58091C70CE2
:103B50008130E9F420E030E048E951EC6E897F895A
:103B6000888D998D0E94634718168CF0CE8ADF8A63
:103B7000E88EF98E80E090E0AAE7B4E489839A8326
:103B8000AB83BC83B101CE010E960E94FA0C8091EA
:103B9000F40C8823C9F08091BB0C81FD15C0809185
:103BA0006A1081FF06C08091BD0C88608093BD0CB7
:103BB0000BC0B501A401812FF7DA41E060E070E0AD
:103BC00080E890E40E94C6378091F30C882369F066
:103BD0008091BB0C81FD09C08FA12BDB41E060E02F
:103BE00070E080E89FE30E94C63780916A1082717E
:103BF0008031E9F48091C70C8130C9F48091BB0C0D
:103C000081FD15C080E090E0A8E4B3E489839A8345
:103C1000AB83BC838D859EA1892B8D878D829E82EF
:103C2000AF82B886B101CE014A960E94FA0C80910B
:103C3000BB0C81FD48C080618093BB0C82E00E9478
:103C4000DE4341C08091C30C882381F181FF0DC008
:103C50008091F40C882339F140E050E0BA0180E013
:103C6000A3DAA1E0A093C30C2EC08C7061F1809107
:103C7000F40C882389F08AE00E948D3D80916A10BF
:103C800081FF06C08091BD0C88608093BD0C04C08C
:103C9000B501A401812F88DA8091C30C83FF03C092
:103CA00082E00E94DE431092C30C0DC08091BD0CD7
:103CB00083FF09C0B501A401812F76DA8091BD0C84
:103CC000877F8093BD0C32DC63CEA7960FB6F89445
:103CD000DEBF0FBECDBFDF91CF911F910F91FF903F
:103CE000EF90DF90CF90BF90AF909F908F907F909C
:103CF0006F905F904F903F902F900895CF93DF93F8
:103D000080916A1083FF0AC00E940E39882331F027
:103D100081E08093B90C87E00E948D3D8091B90CC1
:103D2000817839F082E00E948D3D81E08093B90C6A
:103D300017C01092B90C0E944D43882331F0809136
:103D4000CD0C80628093CD0CCDDD82E492E00E94A8
:103D5000504306C08A3271F582E492E00E948407E3
:103D6000C0E0D0E0DADA8F3F09F458C08A3011F0B1
:103D70008D3069F5B7DD8091BA0C811156C0EC2FFA
:103D8000F0E0EE5BFD4F1082D0FF02C08BE01CC064
:103D9000809142028823C1F0843229F482E492E0C7
:103DA0000E94E74311C08134A9F682E492E00E94A8
:103DB00084070AC08091B90C817211F089E004C0B7
:103DC00082E492E00E94660D0E94723DC9CFDD231D
:103DD00021F0893239F6DD7FC5CF813208F4C2CFB8
:103DE0008F3209F4BFCF883299F08B3399F0CF3FEF
:103DF00099F02C2F30E0E1E0EC0F9FE9980FD9010A
:103E0000AE5BBD4F9A3108F480528C93CE2FAACF6F
:103E1000D2E0A8CFD4E0A6CFD1E0A4CF7FDB62DD93
:103E20008091BA0C882309F49DCFDF91CF9108953A
:103E300075DB58DD8091BA0C811108C00E94E73211
:103E4000892BB9F78091B90C883099F30895EAE885
:103E5000F3E080918603868780915510880F845007
:103E600081958587EFE6F0E0808182608083089508
:103E700080916F008D7F80936F0080918100887F9B
:103E800081608093810010928403809158109091FA
:103E9000B90C8F3F39F42091E80C211103C0903800
:103EA00031F402C0943019F090E00C94F537089585
:103EB0001F920F920FB60F9211240BB60F922F93F1
:103EC0003F934F935F936F937F938F939F93AF93A2
:103ED000BF93EF93FF9380918403811102C288B155
:103EE00090919903907E8F71892B88B982B1837EDE
:103EF00090919803892B82B98091970386BD82E0C7
:103F000085BD81E08093840378948091AB03909188
:103F1000AC03892B09F0B3C0809189039091880389
:103F2000981709F49CC08091890328E0829FC00102
:103F30001124FC01E355FC4FF093AC03E093AB0379
:103F40002281338130938900209388002081318140
:103F50003093A7032093A603E4812091A8032E1792
:103F600061F1E093A80322E1E29FF0011124E35004
:103F7000FC4FF093AA03E093A90344855585668519
:103F8000778576956795579547954093920350931B
:103F90009303609394037093950340938E0350931F
:103FA0008F03609390037093910340938A0350931F
:103FB0008B0360938C0370938D03E091A903F091C0
:103FC000AA03308920918503232720939903DC01DC
:103FD000A355BC4F15969C911597408151816281E4
:103FE0007381092E04C076956795579547950A9475
:103FF000D2F740939A0350939B0360939C03709372
:104000009D034481558166817781092E04C0769590
:104010006795579547950A94D2F740939E0350931E
:104020009F036093A0037093A1034085518562852F
:10403000738504C076956795579547959A95D2F7FD
:104040004093A2035093A3036093A4037093A5032A
:1040500016968D919C9117970E94231810C008DF27
:10406000E091A903F091AA038189882321F080E0DF
:1040700090E00E94231884E00E94DE4332C18091C8
:10408000CE0C813011F40E941A3D10929803409199
:104090008A0350918B0360918C0370918D03809102
:1040A0009A0390919B03A0919C03B0919D03840F70
:1040B000951FA61FB71F80938A0390938B03A0932D
:1040C0008C03B0938D03E091A903F091AA0344857A
:1040D000558566857785481759076A077B0768F510
:1040E00024E0209398034485558566857785841B55
:1040F000950BA60BB70B80938A0390938B03A09329
:104100008C03B0938D0320898091DC0C9091DD0CA1
:10411000A091DE0CB091DF0C27FF04C00197A1092C
:10412000B10903C00196A11DB11D8093DC0C9093D1
:10413000DD0CA093DE0CB093DF0C40918E03509108
:104140008F03609190037091910380919E039091F1
:104150009F03A091A003B091A103840F951FA61FF8
:10416000B71F80938E0390938F03A0939003B09317
:1041700091034485558566857785481759076A07F1
:104180007B0778F520919803286020939803448555
:10419000558566857785841B950BA60BB70B809399
:1041A0008E0390938F03A0939003B0939103208983
:1041B0008091E00C9091E10CA091E20CB091E30CA5
:1041C00026FF04C00197A109B10903C00196A11DF2
:1041D000B11D8093E00C9093E10CA093E20CB0939E
:1041E000E30C40919203509193036091940370917A
:1041F00095038091A2039091A303A091A403B09191
:10420000A503840F951FA61FB71F80939203909359
:104210009303A0939403B0939503448555856685D5
:104220007785481759076A077B0778F52091980327
:104230002061209398034485558566857785841B86
:10424000950BA60BB70B8093920390939303A093C7
:104250009403B093950320898091E40C9091E50C30
:10426000A091E60CB091E70C25FF04C00197A109CD
:10427000B10903C00196A11DB11D8093E40C909378
:10428000E50CA093E60CB093E70C8091B90C843058
:1042900039F4909198038091BF0C892380939803FF
:1042A0008091A6039091A70301979093A703809311
:1042B000A603892B69F41092AC031092AB03809192
:1042C00089038F5F809389038A3011F410928903E8
:1042D0009091980380918603892780939803109288
:1042E0008403FF91EF91BF91AF919F918F917F9147
:1042F0006F915F914F913F912F910F900BBE0F9057
:104300000FBE0F901F9018951F920F920FB60F922D
:1043100011248F939F9382B1909186039C71837E29
:10432000892B82B915BC9F918F910F900FBE0F9072
:104330001F9018950F931F93CF93DF9310928603CE
:1043400010928503C0E0D0E01C2F0C2F80915610F6
:1043500090E00C2E02C0959587950A94E2F780FFB5
:1043600008C0812F0E94573190918603892B80933A
:1043700086038091571090E002C0959587950A9525
:10438000E2F780FF08C0812F0E9461319091850380
:10439000892B809385032196C330D105A9F6DF913F
:1043A000CF911F910F910895CF93DF9361DD8EE33D
:1043B000E2E4F3E0DF011D928A95E9F7CAE8D3E071
:1043C00083E2FE0111928A95E9F71092830310921D
:1043D0008203109289031092880381E080938703FF
:1043E00010928403A7DF809185038F8782B1837E3B
:1043F00090918603892B82B988B18F719091850342
:10440000892B88B9DF91CF91089581B18C6181B9F1
:1044100087B1806E87B9E1E8F0E080818F7E80838C
:10442000808188608083E0E8F0E080818C7F8083F9
:1044300080818F708083EEE6F0E08081887F8083CA
:1044400014BC15BC8081816080830895CF93DF9375
:10445000C0918203D09183032097C9F080914303D8
:10446000816080934303609166037091670380913C
:104470006803909169039B01AC010E94A1496E8B76
:104480007F8B888F998F1092830310928203DF9124
:10449000CF9108958091430381FF34C090914203EE
:1044A00090935403409148035091490360914A030B
:1044B00070914B03409355035093560360935703F9
:1044C0007093580340914403509145036091460313
:1044D0007091470340935D0350935E0360935F03C5
:1044E0007093600340914C0350914D0360914E03D3
:1044F00070914F034093590350935A0360935B03A9
:1045000070935C038E7F84608093430310928303D7
:104510001092820308958091430381FF50C020913F
:10452000540332E1239FC001112483509C4F909388
:1045300081038093800320934203809155039091DF
:104540005603A0915703B09158038093480390936A
:104550004903A0934A03B0934B0380915D0390916C
:104560005E03A0915F03B091600380934403909336
:104570004503A0934603B09347032091590330911C
:104580005A0340915B0350915C0320934C0330939A
:104590004D0340934E0350934F0383E080934303B6
:1045A00060E070E080EA9FE30E946A4760935003F6
:1045B00070935103809352039093530302C010925F
:1045C0004303109283031092820308952F923F9227
:1045D0004F925F926F927F928F929F92AF92BF9213
:1045E000CF92DF92EF92FF920F931F93CF93DF93BF
:1045F000CDB7DEB7E8970FB6F894DEBF0FBECDBFDC
:104600008091BD0C80FD39C790918903809187030B
:10461000981709F432C78091820390918303892B04
:1046200009F024C38091BD0C82FF03C00E94DE32DA
:1046300002C00E94E732909383038093820320900C
:104640008203309083032114310409F416C71091BA
:104650004303812F817010FF09C012FF04C01E7F29
:1046600010934303ECC010924303E9C090914203BE
:104670009F5F993009F0892F80934203E82EF12C37
:1046800022E12E9DF0012F9DF00D1124E350FC4FEF
:10469000F0938103E0938003D10150969C91509751
:1046A000908BE2E18E9FC001112420E030E04D911B
:1046B0005D916D917D91FC01E20FF31FE350FC4F82
:1046C00003E0440F551F661F771F0A95D1F74083FB
:1046D0005183628373832C5F3F4F2C30310539F750
:1046E00022E12E9DF0012F9DF00D11249F012350FA
:1046F0003C4FF10184859585A685B78543E0880FF9
:10470000991FAA1FBB1F4A95D1F7F9018487958786
:10471000A687B787D1011C966D917D918D919C9153
:104720001F970E9403486093480370934903809346
:104730004A0390934B03F10122A133A144A155A157
:104740000E946A479B01AC0160934C0370934D0338
:1047500080934E0390934F0360E070E080EA9FE304
:104760000E946A47609350037093510380935203F1
:104770009093530310924403109245031092460302
:10478000109247038091BD0C81FD02C013FF1FC032
:1047900060916E0370916F0380917003909171032B
:1047A0006093660370936703809368039093690333
:1047B0009B01AC010E94A149D10156966D937D9356
:1047C0008D939C935997177F109343030FC0F1016A
:1047D00066897789808D918D0E942E4A6093660349
:1047E000709367038093680390936903F2E1FE9DE1
:1047F0008001FF9D100D112403501C4FD8015196CC
:104800001C9280916A1081FF1AC0F101818985FF95
:1048100016C026A537A540A951A960E070E080E840
:104820009FE30E946A4760937A0370937B038093AF
:104830007C0390937D03E1E0D8015196EC931092B4
:104840006203109263031092640310926503D10116
:104850005E962D913D914D915C91919760E070E055
:1048600080E09FE30E946A474B015C018091BD0C90
:10487000F101C2A0D3A0E4A0F5A081FF4EC0F2E0F8
:10488000F0936103D10156964D905D906D907C90B0
:104890005997A3019201C501B4010E94A1499B014E
:1048A000AC01C701B6010E9489464B015C0120E0C2
:1048B00030E0A9010E94634787FF1EC0F101668DA9
:1048C000778D80A191A19B01AC010E948A46A7012E
:1048D00096010E94A1499B01AC01C301B2010E9453
:1048E00089460E942E4A60936E0370936F038093F3
:1048F000700390937103B5C1809262039092630339
:10490000A0926403B092650310926E0310926F033D
:104910001092700310927103A4C110926103C092AF
:104920007203D0927303E0927403F092750382FFD6
:104930000DC010926E0310926F03109270031092CC
:10494000710319821A821B821C8210C00E94F732E6
:1049500069837A838B839C830E942E4A60936E03C3
:1049600070936F038093700390937103809182031F
:10497000909183030E94183369877A878B879C877D
:104980009B01AC010E94A1492B013C0120918203B3
:10499000309183033A8B298BD90192968D919D9109
:1049A0000D90BC91A02D8D879E87AF87B88BD901C4
:1049B00056962D913D914D915C9159972D833E8353
:1049C0004F835887C301B2010E94634787FF76C0B7
:1049D000A30192016D817E818F8198850E94894615
:1049E000A50194010E94A1499B01AC016D857E85C2
:1049F0008F8598890E948946609372037093730330
:104A0000809374039093750320E030E0A9010E9425
:104A1000634718167CF1B2E0B0936103E989FA8923
:104A2000668D778D80A191A19B01AC010E948A4681
:104A30002D853E854F8558890E94A1499B01AC0177
:104A4000A989BA8956966D917D918D919C915997BE
:104A50000E9489460E942E4A60936E0370936F03F2
:104A600080937003909371038091430388608093D7
:104A70004303F7C029813A814B815C81C301B201B4
:104A80000E948946A50194010E94A1496093760382
:104A900070937703809378039093790329853A85FF
:104AA0004B855C8520936A0330936B0340936C03C2
:104AB00050936D0333E030936103D3C029813A8171
:104AC0004B815C816D817E818F8198850E948946B2
:104AD000A50194010E94A1492D853E854F855889E5
:104AE0000E948A4620E030E040E05FE30E94A14956
:104AF0006B017C0120E030E0A9010E946649181694
:104B00000CF097C0A70196016D857E858F859889E9
:104B10000E94664918160CF088C029813A814B81A1
:104B20005C81C301B2010E948946A50194010E94E3
:104B3000A1499B01AC016093760370937703809346
:104B4000780390937903C701B6010E94664918164D
:104B5000DCF589859A85AB85BC8580936A03909343
:104B60006B03A0936C03B0936D032D813E814F8145
:104B70005885C301B2010E946347811104C091E0CE
:104B8000909361036EC02D813E814F815885C30192
:104B9000B2010E948946A50194010E94A1499B018E
:104BA000AC016091720370917303809174039091D2
:104BB00075030E9489466093720370937303809318
:104BC0007403909375034DC0C0927203D092730327
:104BD000E0927403F0927503C0927603D09277034B
:104BE000E0927803F0927903A989BA895E966D9173
:104BF0007D918D919C9191979B01AC010E948A4679
:104C0000A70196010E94A14929813A814B815C81CB
:104C10000E948A460E942E4A60936A0370936B0337
:104C200080936C0390936D031CC0B2E0B09361035A
:104C300018C01092720310927303109274031092B2
:104C4000750380916E0390916F03A0917003B091F2
:104C5000710380936A0390936B03A0936C03B093EA
:104C60006D038091BD0C88608093BD0CE09188033A
:104C700048E0E49F900111243A8B298BF901E35518
:104C8000FC4F80914203848380918203909183033F
:104C900098AF8FABDC019296BC91BF8FFC01F3A162
:104CA000F8A3DC019496BC91B9A3FC01F5A1FAA389
:104CB000209150033091510340915203509153037E
:104CC0006F8D78A18B2F9F2F0E9489466BA77CA7A1
:104CD0008DA79EA720E030E0A9010E94634787FFCF
:104CE00004C01BA61CA61DA61EA620916A032B8B22
:104CF00030916B033C8B40916C034D8B50916D0355
:104D00005E8B809172038B8F909173039C8FA09127
:104D10007403AD8FB0917503BE8FE0916603E98394
:104D2000F0916703FD83209168032987309169031F
:104D30003D87409176034BA3509177035CA380910C
:104D400078038DA3909179039EA3A0916203AFA3F2
:104D5000B0916303B8A7E0916403E9A7F0916503FC
:104D6000FAA720916E032FA730916F0338AB4091C3
:104D7000700349AB509171035AAB3F8C08A129A035
:104D80001AA18EE3C82E83ECD82E8EE2E82E89E39A
:104D9000F82E1F8A188E198E1A8E4601570180919F
:104DA0006103813009F4FBC0AFA9B8AD5E962D91C7
:104DB0003D914D915C919197813008F472C08330A0
:104DC00009F024C1C701B6010E94A1492B013C0191
:104DD0002B893C894D895E8969817D8189859D8585
:104DE0000E9489469B01AC01C301B2010E94664941
:104DF00087FD2EC02B8D3C8D4D8D5E8D6F8D78A1E6
:104E000089A19AA10E9489469B01AC010E948A4611
:104E10006B017C0129813D8149855D856B897C8998
:104E20008D899E890E948A469B01AC01C701B6010B
:104E30000E946A476B017C01B1E0B0936103EB898A
:104E4000E983FC89FD832D8929873E893D8795C0AB
:104E500020E030E040E05FE3C301B2010E94A149DD
:104E60009B01AC0169817D8189859D850E94894670
:104E7000A70196010E94A1499B01AC01632D702FEF
:104E8000822D912F0E948946362E072F282E192F0A
:104E9000A301920169817D8189859D850E94894652
:104EA00079C0C701B6010E94A1492B013C0120E055
:104EB00030E040E05FE30E94A14929813D814985BE
:104EC0005D850E948A46A70196010E94A1499B0127
:104ED000AC01632D702F822D912F0E948946362EB2
:104EE000072F282E192F262F372F482F592F6B8D3C
:104EF0007C8D8D8D9E8D0E94664918160CF042C0E7
:104F00002B8D3C8D4D8D5E8D6F8D78A189A19AA1E1
:104F10000E9489469B01AC010E948A466B017C017C
:104F200029813D8149855D856B897C898D899E8933
:104F30000E948A469B01AC01C701B6010E946A47E4
:104F40006B017C012BA13CA14DA15EA16B8D7C8DE1
:104F50008D8D9E8D0E946347811104C0B2E0B09395
:104F6000610303C0E1E0E0936103FB89F9832C89CD
:104F70002D833D8939874E894D873B8C0C8D2D8C37
:104F80001E8DC0C0A301920169817D8189859D85A7
:104F90000E948A4669837D8389879D87B3C02B8958
:104FA0003C894D895E89C701B6010E94A1499B01D8
:104FB000AC01632D702F822D912F0E9489463B01F9
:104FC0002C019B01AC016BA17CA18DA19EA10E9433
:104FD000664918160CF092C02BA13CA14DA15EA110
:104FE000632D702F822D912F0E9489462B893C8939
:104FF0004D895E890E946A476B017C0152E05093A3
:1050000061033BA00CA12DA01EA17CC0C701B6016D
:105010000E94A1492B013C019B01AC0169817D816A
:1050200089859D850E9466491816CCF520E030E000
:1050300040E05FE3C301B2010E94A1499B01AC01C2
:1050400069817D8189859D850E948946A701960198
:105050000E94A1499B01AC01632D702F822D912FDD
:105060000E9489466BAB7CAB8DAB9EAB2FA138A564
:1050700049A55AA50E94664918168CF4A30192010D
:1050800069817D8189859D850E94894669837D83AB
:1050900089879D873BA80CA92DA81EA933C02FA1E5
:1050A00038A549A55AA5632D702F822D912F0E94F6
:1050B00089469B01AC010E948A466B017C012FA5A9
:1050C00038A949A95AA969817D8189859D850E9450
:1050D0008A469B01AC01C701B6010E946A476B0179
:1050E0007C01BFA5B983E8A9ED83F9A9F9872AA9AD
:1050F0002D873FA008A529A41AA504C0362C072D8A
:10510000242C152DA70196016F89788D898D9A8D94
:105110000E948A466F8B788F898F9A8F9B01AC0192
:10512000C501B4010E9466491816B4F02BA53CA530
:105130004DA55EA5632D702F822D912F0E9466498B
:1051400018160CF52EE333EC4EE259E3C501B40119
:105150000E948A464B015C012F89388D498D5A8DFA
:10516000C501B4010E9489466B017C012FA138A5BD
:1051700049A55AA5632D702F822D912F0E94664953
:1051800018160CF40CCE89819D81A985BD8580936C
:10519000660390936703A0936803B0936903E0915B
:1051A0008003F09181039189911104C08091BD0C1D
:1051B00083FF43C0AFA9B8AD51968C9151978073CE
:1051C00059F1D296CD90DD90ED90FC90D597992332
:1051D000D1F020917A0330917B0340917C03509170
:1051E0007D036091660370916703809168039091DD
:1051F00069030E94A1499B01AC01C701B6010E944D
:10520000A1496B017C01C701B6010E94331890933C
:105210007F0380937E030CC01092C80C1092C90CBF
:105220001092CA0C1092CB0C10927F0310927E0346
:105230008091BD0C877F8093BD0C80917E039091FF
:105240007F03E989FA89E355FC4FFE83ED83978359
:10525000868320914C0330914D0340914E03509131
:105260004F03632D702F822D912F0E94A1492B0196
:105270003C010E9450476B017C0160914803709192
:10528000490380914A0390914B030E9450474B0180
:105290005C01A70196010E9489460E94D747698355
:1052A0007A838B839C83E981FA81AD81BE81ED9302
:1052B000FC93EF2B41F48091BD0C81FF04C0816011
:1052C0008093BD0CC5C020914403309145034091AB
:1052D0004603509147036F89788D898D9A8D0E947E
:1052E0008A466D837E838F839887A3019201C501CF
:1052F000B4010E9489469B01AC016D817E818F8142
:1053000098850E946A474B015C0120EC31EE44E62F
:105310005EE40E94A1490E9450470E94D747E98954
:10532000FA89E355FC4F603D37E07307810591052D
:1053300010F4158230C0603A4FE074078105910582
:1053400018F451E055830BC06034AFE17A07810552
:10535000910518F4B2E0B58302C023E02583E98902
:10536000FA89E355FC4F2581022E04C09695879556
:10537000779567950A94D2F749815A8102C0440F04
:10538000551F2A95E2F7518340836115710551E05D
:105390008507910538F4E989FA89E355FC4F738351
:1053A000628304C08FEF9FEF938382838091870392
:1053B000809388038F5F8A3019F08093870302C03F
:1053C00010928703E0918203F0918303832D902F45
:1053D000A22DB12F82A393A3A4A3B5A3C092480387
:1053E000D0924903E0924A03F0924B03A301920149
:1053F000C701B6010E948946A50194010E94A149F6
:10540000609344037093450380934603909347034E
:1054100020916203309163034091640350916503CE
:10542000632D702F822D912F0E9463478111ECC84C
:1054300020E030E0A901632D702F822D912F0E9472
:1054400066499091BD0C18165CF491609093BD0C68
:105450008091430382FD11C08260809343030DC09D
:1054600092FF04C091609093BD0C07C0109283031B
:10547000109282030E94CA32C7C8E8960FB6F89409
:10548000DEBF0FBECDBFDF91CF911F910F91FF9077
:10549000EF90DF90CF90BF90AF909F908F907F90D4
:1054A0006F905F904F903F902F9008958091B90C2E
:1054B0008C7749F06091660370916703809168036F
:1054C00090916903089560E070E0CB010895F99927
:1054D000FECF92BD81BD81E08FBB80B50895F99963
:1054E000FECFF89492BD81BD81E08FBB80B5862749
:1054F000962F982339F06F3F19F060BD84E006C005
:1055000084E104C0882321F060BD84E28FBBF99A56
:1055100078940895EF92FF920F931F93CF93DF93A8
:105520008B01040F151FEB017C01E61AF70AC70176
:105530008C0F9D1FC017D10719F06991D0DFF7CFED
:10554000DF91CF911F910F91FF90EF900895EF920F
:10555000FF920F931F93CF93DF938C01040F151FBE
:10556000EC017B01E81AF90AC7018C0F9D1FC017D7
:10557000D10719F0ACDF8993F7CFDF91CF911F915D
:105580000F91FF90EF9008956115710579F0DB019F
:10559000460F571FA417B50741F09D91E82FE92743
:1055A000F0E0E550FD4F8491F5CF08958FEF089519
:1055B0008F929F92AF92BF92DF92EF92FF920F93E2
:1055C0001F93CF93DF937C01EB018A0180E0DCDF46
:1055D000D82E5E01A00EB11E47018C1A9D0AC4018F
:1055E0008C0F9D1FCA15DB0519F0699178DFF7CF85
:1055F0006D2DC8018E0D9F1DDF91CF911F910F91D1
:10560000FF90EF90DF90BF90AF909F908F9067CF0B
:105610008F929F92AF92BF92CF92DF92EF92FF92C2
:105620000F931F93CF93DF938C01EB017A016C01F1
:10563000C40ED51E4C015B01A81AB90AC501880D1C
:10564000991D8C149D0429F042DFF40181934F01D0
:10565000F5CFCE0DDF1DA701B80180E095DF182F33
:10566000CE0135DF21E030E0181711F020E030E006
:10567000C901DF91CF911F910F91FF90EF90DF90C3
:10568000CF90BF90AF909F908F90089584B780FF88
:1056900014C08091790F90917A0FA0917B0FB091F7
:1056A0007C0F0196A11DB11D8093790F90937A0F05
:1056B000A0937B0FB0937C0F57C081FF14C08091E3
:1056C000750F9091760FA091770FB091780F01969A
:1056D000A11DB11D8093750F9093760FA093770F46
:1056E000B093780F41C082FF14C08091710F9091E8
:1056F000720FA091730FB091740F0196A11DB11D8F
:105700008093710F9093720FA093730FB093740FE7
:105710002BC083FF14C080916D0F90916E0FA091EC
:105720006F0FB091700F0196A11DB11D80936D0F89
:1057300090936E0FA0936F0FB093700F15C084FFFE
:10574000EACF8091690F90916A0FA0916B0FB09191
:105750006C0F0196A11DB11D8093690F90936A0F84
:10576000A0936B0FB0936C0F14BE0895CF93DF938B
:1057700086EE92E00E94913BCDEADFE0699179915B
:10578000899199910E94263C83EE92E00E94913B80
:105790008FE0CD3CD80791F781EE92E0DF91CF9179
:1057A0000C94913B0F931F9371DF8091650F909143
:1057B000660FA091670FB091680F0196A11DB11DF2
:1057C0008093650F9093660FA093670FB093680F57
:1057D00082ED92E00E94913B6091650F7091660F9F
:1057E0008091670F9091680F0E94263C8FEC92E0A9
:1057F0000E94913B0E94BF060091AD0F1091AE0F29
:105800002091AF0F3091B00F601771078207930797
:10581000C9F0E9ECFFE032912291129102910483E8
:105820001583268337832FE0ED3AF207A1F76093C3
:10583000AD0F7093AE0F8093AF0F9093B00F1F9189
:105840000F9194CF1F910F91089580917D0F9091AA
:105850007E0FA0917F0FB091800F863F9E48A2439C
:10586000B14008F048C082EB92E00E94913B609109
:105870007D0F70917E0F80917F0F9091800F0E941D
:10588000263C85EA92E00E94913B6BE877E980E450
:1058900091E00E94263C83EA92E00E94913B1092A4
:1058A000650F1092660F1092670F1092680F10929A
:1058B000750F1092760F1092770F1092780F10924A
:1058C000690F10926A0F10926B0F10926C0F10926A
:1058D000A50F1092A60F1092A70F1092A80F86EF97
:1058E0009EE8A2E3B1E080937D0F90937E0FA0939A
:1058F0007F0FB093800F089540EC50E060E17CE0B2
:1059000085E69FE024DE80917D0F90917E0FA0912F
:105910007F0FB091800F8F3F9F4FAF4FBF4F89F4E4
:1059200080ECE5E6FFE0DF011D928A95E9F740E2B1
:1059300050E06FEF70E085E89FE00E94294B80E027
:1059400008954091810F5091820F6091830F709163
:10595000840FE5E8FFE0219130E080E090E0D9019C
:10596000082E02C0B595A7950A94E2F7A0FD04C0E1
:10597000405C5F4F6F4F7F4F01968830910579F7FC
:10598000BFE0E53AFB0739F74093A3045093A40422
:105990006093A5047093A60481E008958091B90CEA
:1059A0008C7239F440EC50E065E67FE080E19CE0E9
:1059B000B1CD08954F925F926F927F928F929F9296
:1059C000AF92BF92CF92DF92EF92FF928090A304AA
:1059D0009090A404A090A504B090A6047501640161
:1059E0008FEFC81AD80AE80AF80AC092A304D09226
:1059F000A404E092A504F092A604D701C6018F7317
:105A00009927AA27BB27892B8A2B8B2B09F078C0D3
:105A100040909F045090A0046090A1047090A20454
:105A200020E030E04AE754E4C301B2010E94664935
:105A3000181614F5C301B2010E94D7474090A50F74
:105A40005090A60F6090A70F7090A80FDC01CB01BB
:105A5000840D951DA61DB71D8093A50F9093A60FCD
:105A6000A093A70FB093A80F10929F041092A004C8
:105A70001092A1041092A204D701C60126E0B695A7
:105A8000A795979587952A95D1F79C013327F9011A
:105A900043E0F695E7954A95E1F7EB59F04F482F2B
:105AA000477081E090E001C0880F4A95EAF7809541
:105AB00090A1892380A32F3F3105A9F481E4880EAA
:105AC000911CA11CB11C8092810F9092820FA09218
:105AD000830FB092840F40E250E06FEF70E085E8F2
