:1000000014C2000026C2000024C2000022C2000068
:1000100020C200001EC200001CC200001AC2000064
:1000200018C2000016C200000C94232E0C94DA258E
:100030000C94872E0EC200000CC200000AC2000001
:1000400008C200000C94D91004C2000002C20000D3
:1000500000C20000FEC10000FCC100000C948D1025
:10006000F8C100000C94F0150C949D16F2C100002C
:10007000F0C10000EEC10000ECC10000EAC10000C8
:10008000E8C10000E6C10000E4C10000E2C10000D8
:10009000E0C10000DEC10000DCC10000DAC10000E8
:1000A000D8C10000D6C10000D4C10000D2C10000F8
:1000B000D0C10000CEC10000CCC10000CAC1000008
:1000C000C8C10000C6C100000C945E14C2C100008B
:1000D000C0C10000BEC10000BCC10000BAC1000028
:1000E000B8C100000404CD0FCD0F0E041904240480
:1000F0002F04CD0F3304CD0F4104CD0F4B04550415
:100100005F04CD0FCD0FCD0F6F047C048904C2387E
:10011000C838CB38CE38D338DB38E338803980392B
:100120008039F038F338FC38053980398039803926
:1001300080398039803910391A3926392E393139C8
:100140003A39433949398039803952395B3966390E
:10015000191652168A168A168A168A168A168A1648
:100160008A168A168A168A1658165A165C165E164B
:1001700060166216641666168A166A166C166E1675
:100180007016721674168A167616781667326A32E8
:100190006D3270327332763279327C327F329B32FA
:1001A0009E32A132A432A732AA32AD32B032B3327B
:1001B000CF32D232D532D832DB32DE32E132E832DF
:1001C000EB32084AD73B3BCE016E84BCBFFDC12F4A
:1001D0003D6C74319ABD56833DDA3D00C77F11BE38
:1001E000D9E4BB4C3E916BAAAABE000000803F053B
:1001F000A84CCDB2D44EB93836A9020C50B991866C
:1002000088083CA6AAAA2ABE000000803F00536CC2
:10021000656570696E6700526573746F72696E67A9
:10022000207370696E646C6500526573746F7269D7
:100230006E672064656661756C74730050676D202D
:10024000456E6400436865636B204C696D69747327
:1002500000436865636B20446F6F7200446973618B
:10026000626C656400456E61626C65640043617533
:1002700074696F6E3A20556E6C6F636B656400270E
:100280002448277C2724582720746F20756E6C6FB4
:10029000636B00526573657420746F20636F6E74B6
:1002A000696E7565005B4D53473A000D0A477262EF
:1002B0006C20312E3166205B27242720666F722048
:1002C00068656C705D0D0A005D000D0A536D61720A
:1002D0007442656E6368205B5357205665723A31ED
:1002E0002E302E345D205B4857205665723A00242C
:1002F0004E005B4F50543A005B41534D20434E43F8
:100300003B205357205665723A312E302E342E3210
:10031000303139303532353B204857205665723AF6
:10032000005B5645523A312E31662E32303137302D
:100330003830323A005B544C4F3A005B4739323A1E
:10034000003330003238005B4700204700204D006A
:1003500020530020460020540033382E005B4743D2
:100360003A47005B484C503A242420242320244759
:1003700020244920244E2024783D76616C20244E90
:10038000783D6C696E6520244A3D6C696E65202459
:10039000534C50202443202458202448207E2021E0
:1003A000203F206374726C2D785D0D0A005B505203
:1003B000423A006572726F723A00414C41524D3AB6
:1003C000007C413A007C4F763A007C57434F3A001C
:1003D0007C506E3A007C46533A007C4C6E3A007C6E
:1003E00042663A007C57506F733A007C4D506F73F1
:1003F0003A00536C65657000446F6F723A00436851
:1004000065636B00416C61726D00486F6D65004AF9
:100410006F6700486F6C643A0052756E0049646CF7
:1004200065000D0A006F6B0D0A0011241FBECFEF8F
:10043000D1E2DEBFCDBF00E00CBF2FE0A0E0B2E014
:1004400001C01D92AC31B207E1F70E94B5330C94A4
:100450001941D6CD2F923F924F925F926F927F9229
:100460008F929F92AF92BF92CF92DF92EF92FF92C4
:100470000F931F93CF93DF93CDB7DEB7CE54D1093F
:100480000FB6F894DEBF0FBECDBF8AE3E0ECF2E01A
:10049000DF011D928A95E9F78BE0E0E8F2E0A1EC3C
:1004A000B2E001900D928A95E1F780911C0E8432A2
:1004B00011F00C94EE0F81E08093C1021092C20201
:1004C00083E08E8FB1E0BFA3212C312C18AA1FA688
:1004D00010E01F8E1BA2EE24E394F12CEAE0AE2E76
:1004E000B12CF1E68F2EF3E09F2E8E8DE82FF0E0F9
:1004F000E45EF14FD080DD2009F43BC29FEB9D0DFF
:100500009A3110F00C94BD0F8F5F8E8FBE01665E26
:100510007F4FCE014E960E940133882311F40C9434
:10052000BF0F4A8C5B8C6C8C7D8CC301B2010E9426
:100530008A400E94F23D062F70E080E090E00E9429
:10054000203E9B01AC01C301B2010E94A43C20E00B
:1005500030E048EC52E40E94BC3F0E941F400E94E1
:10056000F23DCB01E7E4DE1629F0FDE4DF1609F4E5
:10057000EAC037C1083209F4C6C020F5043168F476
:10058000013108F08AC0043009F452C008F464C094
:100590000A3009F445C00C94CD0F0C3109F440C069
:1005A00050F4063110F00C94CD0F25E1201B209360
:1005B000C30226E0ADC00E3199F1063209F44CC0F9
:1005C0000C94CD0F0D3309F498C0A8F4053381F1D4
:1005D00040F40B3209F47AC0013309F477C00C946B
:1005E000CD0F0C3310F00C94CD0F6AEC600F6093BC
:1005F000C70229E08DC00C3538F40A3508F053C025
:10060000003581F10C94CD0F0C3551F00F3510F001
:100610000C94CD0F2EE5201B2093C20225E078C05C
:10062000009731F42BA121110C94C10F31E03BA3B1
:100630000093C002202F2D7F2C3119F00C3509F0CA
:1006400064C0009721F00A9711F00C94CD0F600F51
:100650006093C00220E061C04BA141110C94C10F16
:10066000A2E0ABA30093C102063209F050C084316E
:10067000910559F08E31910541F08832910529F0AC
:100680008233910511F00C94CD0FB5010E94B54055
:1006900066576093C10221E040C06FEE600F609327
:1006A000C50222E035C0892B31F466EA600F609301
:1006B000C40223E032C06A30710511F00C94CD0FF2
:1006C0000A3511F40C94CD0F24E027C0BBA1B11161
:1006D0000C94C10F013331F41092C60228E0E3E01C
:1006E000EBA31BC00A9711F00C94CD0FF1E0F0932F
:1006F000C60228E033E03BA310C0892B11F00C9414
:10070000CD0F2AE00AC027E003C020E001C021E0AD
:10071000892B19F087E10C94F50FC70102C0880FEF
:10072000991F2A95E2F72FA538A928233923232BCF
:1007300019F085E10C94F50FAFA5B8A9A82BB92B3A
:10074000B8ABAFA7D2CE892B29F7063018F4033007
:1007500058F016C0073010F40C94CD0F0A30F0F0AA
:100760000E3159F00C94CD0F002319F0013021F116
:1007700004C0B3E0B093C8021FC00093C8021CC0FD
:10078000043021F0053031F080E101C080E2809337
:10079000CA0202C01092CA028CE00FC0083021F0D9
:1007A000093031F080E801C080E48093C90202C0C2
:1007B0001092C9028DE001C08BE0F70102C0EE0F7C
:1007C000FF1F8A95E2F72FA538A92E233F23232B5D
:1007D00009F0AFCF2FA538A92E2B3F2B38AB2FA771
:1007E00084CE8D2DDD0C990BAA0BBB0BFC01E654BE
:1007F000F109E531F10510F00C94CD0F8827EE5882
:10080000FF4F8F4F0C94EB404092CC025092CD02A0
:100810006092CE027092CF0280E087C04092D002F8
:100820005092D1026092D2027092D302116081E0A4
:100830007CC04092D4025092D5026092D60270924F
:10084000D702126082E071C04092D8025092D90261
:100850006092DA027092DB02146083E066C000935B
:10086000DC0284E062C0C301B2010E94ED3D6093EE
:10087000DD027093DE028093DF029093E00285E058
:1008800054C04092E1025092E2026092E302709200
:10089000E40286E04AC04092E5025092E60260928D
:1008A000E7027092E80287E040C04092E90250926D
:1008B000EA026092EB027092EC0288E036C020E01F
:1008C00030E04FE753E4C301B2010E94813F1816A4
:1008D00014F40C94C30F0093ED0289E026C04092FB
:1008E000EE025092EF026092F0027092F1023F8DA0
:1008F00031603F8F8AE019C04092F2025092F302B9
:100900006092F4027092F5024F8D42604F8F8BE03F
:100910000CC04092F6025092F7026092F802709278
:10092000F9028F8D84608F8F8CE06701082E02C0E2
:10093000CC0CDD1C0A94E2F7960122213321232BF3
:1009400011F00C94C50FD40102C0B595A7958A95F6
:10095000E2F7A0FF0BC020E030E0A901C301B20123
:100960000E947E3D87FF02C00C94C70F2C283D28B3
:10097000BCCDBF8DBB2329F0EBA1E11102C0F2E099
:10098000FBA325FE0FC08091DD029091DE02A091B5
:10099000DF02B091E00281389649A849B10514F010
:1009A0000C94C90F3FA1332329F020FC02C00C9402
:1009B000D30F18C08091C202813071F44BA1423034
:1009C000E1F58091C1028035C1F18823B1F120FCAD
:1009D00002C00C94D30F31C08091810281112DC0CF
:1009E00020FE1BC08091C302813039F523E333E33D
:1009F0004BEC51E46091CC027091CD028091CE021B
:100A00009091CF020E94BC3F6093CC027093CD02C4
:100A10008093CE029093CF0210C080918F0290916C
:100A20009002A0919102B09192028093CC02909397
:100A3000CD02A093CE02B093CF0230FC10C08091C3
:100A40008B0290918C02A0918D02B0918E028093C6
:100A5000E9029093EA02A093EB02B093EC0280913A
:100A6000C002843039F426FC03C08CE10C94F50FED
:100A7000E89426F88091C5028823A9F0813049F4D2
:100A800024968FAF249722961FAE229792E09FAFB5
:100A900013C024961FAE2497A2E02296AFAF2297F0
:100AA000B1E0BFAF09C0E2E02496EFAF2497F1E0D8
:100AB0002296FFAF22971FAE8091C302813021F0B2
:100AC0002BA12330C9F52FC060ECC62E62E0D62ED4
:100AD000E12CF12C3F8DA32EB12CC5010E2C02C0B0
:100AE000959587950A94E2F780FF12C023E333E3DC
:100AF0004BEC51E4D6019E966D917D918D919C9128
:100B0000D1970E94BC3FF60166A777A780AB91AB57
:100B1000FFEFEF1AFF0A24E0C20ED11C33E0E31608
:100B2000F104D9F6CDCF8091C602813029F44F8DE2
:100B3000443011F00C94CB0F8CE0E4EAF2E0DE01DB
:100B40001E9601900D928A95E1F78FA598A991FDC7
:100B500008C00091C0020A30C9F00C3509F4B3C0D6
:100B60001FC18091C702873018F08DE10C94F50FFA
:100B700090918602891769F3BE01625F7F4F0E94E0
:100B80009014882311F40C94E10FE3CF9F8D911101
:100B900003C08AE10C94F50FC10180759927892B58
:100BA00009F463CF6091E1027091E2028091E30267
:100BB0009091E4020E948A400E94F23D6730A8F6BC
:100BC0008091DC02843141F0823011F00C94CD0F21
:100BD00027FE02C00C94CD0FAFEA2A22662319F03B
:100BE00061506DA703C0B091C702BDA760ED72E070
:100BF0008DA50E949014882311F40C94E10F0091AC
:100C0000DC024090BC025090BD026090BE02709029
:100C1000BF0240ECE42E42E0F42E50E8A52E52E054
:100C2000B52EC12CD12CEF8D8E2E912CC4010C2C05
:100C300002C0959587950A94E2F780FF35C004318C
:100C400051F5D501D0962D913D914D915C91D39761
:100C500058966D917D918D919C915B970E94A43CDB
:100C6000F70126A537A540A951A90E94A43CD701A8
:100C700050966D937D938D939C935397B2E0CB12D6
:100C800013C0A30192010E94A43CF701608B718BF9
:100C9000828B938B09C0F70186A597A5A0A9B1A95E
:100CA000808B918BA28BB38BFFEFCF1ADF0A24E0EE
:100CB000E20EF11C34E0A30EB11C43E0C416D104D3
:100CC00009F0B4CF41C18F8D882309F462CF4090E1
:100CD000BC025090BD026090BE027090BF0220E83E
:100CE000A22E22E0B22E4E019EE0890E911C30EC25
:100CF000E32E32E0F32EC12CD12CA82FB0E0BCA7FC
:100D0000ABA78BA59CA50C2C02C0959587950A9442
:100D1000E2F780FF29C0F4012081318142815381B3
:100D2000D50158966D917D918D919C915B970E9414
:100D3000A43CF70126A537A540A951A90E94A43CCF
:100D4000D7019E966D937D938D939C93D197B2E03E
:100D5000CB1214C0A30192010E94A43CF70166A724
:100D600077A780AB91AB0AC0F50180A991A9A2A990
:100D7000B3A9F70186A797A7A0ABB1ABFFEFCF1A36
:100D8000DF0A24E0A20EB11C34E0830E911C44E083
:100D9000E40EF11C83E0C816D10409F0B2CFD3C031
:100DA0009BA1933069F40E3109F495C0053309F421
:100DB000C4C00C3109F0C7C060ED72E086E08EC09F
:100DC000AF8DAA2381F3B091C402BBA74090BC02AF
:100DD0005090BD026090BE027090BF0280E8A82EC5
:100DE00082E0B82E90ECE92E92E0F92E4E01EEE072
:100DF0008E0E911CC12CD12C2A2F30E03EA72DA79E
:100E00008DA59EA50C2C02C0959587950A94E2F7B6
:100E100080FD0BC0F501808D918DA28DB38DF70102
:100E200086A797A7A0ABB1AB44C0053309F441C076
:100E3000FBA5F1112BC0D501D0962D913D914D917F
:100E40005C91D397F40160817181828193810E94CA
:100E5000A53CD7019E962D913D914D915C91D197E6
:100E60000E94A53CF70166A777A780AB91ABF2E0A3
:100E7000CF121FC0A30192010E94A53CD7019E96EC
:100E80006D937D938D939C93D19713C0F501208D25
:100E9000318D428D538DD7019E966D917D918D91AF
:100EA0009C91D1970E94A53CF70166A777A780ABDC
:100EB00091ABFFEFCF1ADF0A24E0A20EB11C34E0A1
:100EC000E30EF11C44E0840E911C83E0C816D104AB
:100ED00009F096CF68CF60ED72E087E00E94901431
:100EE000882311F40C94E10F9F8D911103C01DA66E
:100EF0001BA22AC0A0E8B2E0E0ECF2E080E090E0C3
:100F00004F8D242F30E0A901082E02C0559547953A
:100F10000A94E2F740FD0AC058964D915D916D919B
:100F20007C915B97408B518B628B738B01961496EF
:100F300034968330910539F706C08091C102823022
:100F400010F00C94CF0F1DA68091C1028BA78035A5
:100F500029F49F8D91110C94D10F7FC2ABA1A230C7
:100F600009F07BC2BBA5B11104C0EF8DE11175C2C0
:100F70002BC020E030E0A9016091CC027091CD023D
:100F80008091CE029091CF020E947E3D882311F481
:100F90000C94D30FFBA5FC3809F449C240F4F2309D
:100FA000A9F0F330B1F0F13009F057C20AC02BA517
:100FB0002E3809F43CC208F437C22F3809F434C281
:100FC0004CC23F8D311149C21BA247C24FA14460A0
:100FD0004FA38F8D882309F4DCCDBFADAB2FB0E0DC
:100FE000BCABABAB2296FFAD2297EF2FF0E0F8AF92
:100FF000EFAB81E090E07C010FAC02C0EE0CFF1C77
:101000000A94E2F722960FAC229702C0880F991F2C
:101010000A94E2F7E82AF92A2F8D822F90E08E2198
:101020009F21892B09F4C1C7FD01EE0FFF1FEE0FB1
:10103000FF1FE054FD4FAA0FBB1FAA0FBB1FA856EE
:10104000BD4F2D913D914D915C9166A577A580A9ED
:1010500091A90E94A43C2B013C01EFA9F8ADEE0F31
:10106000FF1FEE0FFF1FE054FD4FAFA9B8ADAA0F51
:10107000BB1FAA0FBB1FA856BD4F2D913D914D918F
:101080005C9166A577A580A991A90E94A43C4B011B
:101090005C01610130E8C322DD2427FEF5C0E8943D
:1010A00027F84CE050E06EEE72E088E992E00E9492
:1010B0000C41892B11F481E298C78091C3028130E1
:1010C000B1F423E333E34BEC51E46091E50270911A
:1010D000E6028091E7029091E8020E94BC3F609393
:1010E000E5027093E6028093E7029093E802809114
:1010F000E5029091E602A091E702B091E8028BAF81
:101100009CAFADAFBEAFA3019201C301B2010E947B
:10111000BC3F2B966CAF7DAF8EAF9FAF2B97A501D9
:101120009401C501B4010E94BC3F2F966CAF7DAF06
:101130008EAF9FAF2F9720E030E040E850E46BADDA
:101140007CAD8DAD9EAD0E94BC3F2BAD3CAD4DAD99
:101150005EAD0E94BC3F2B962CAD3DAD4EAD5FAD5C
:101160002B970E94A43C2F962CAD3DAD4EAD5FADAC
:101170002F970E94A43C6B017C0120E030E0A90184
:101180000E947E3D87FD13C7C701B6010E944940FA
:101190006B017C012F962CAD3DAD4EAD5FAD2F9711
:1011A0002B966CAD7DAD8EAD9FAD2B970E94A53C6F
:1011B0000E9449409B01AC01C701B60190580E94B2
:1011C000853D6B017C019BA5933021F4F7FAF094E7
:1011D000F7F8F09420E030E0A9016BAD7CAD8DAD67
:1011E0009EAD0E947E3D87FF11C0F7FAF094F7F89C
:1011F000F0948BAD9CADADADBEADB0588093E50223
:101200009093E602A093E702B093E8020BA91CA911
:10121000000F111F000F111F00531D4FA701960152
:10122000C501B4010E94BC3F9B01AC01C301B201E6
:101230000E94A43C20E030E040E05FE30E94BC3F1D
:10124000D8016D937D938D939C9313970FA918AD3F
:10125000000F111F000F111F00531D4FA701960112
:10126000C301B2010E94BC3FA50194010E94A53CAC
:1012700020E030E040E05FE30E94BC3FF801608383
:10128000718382839383E9C0212F30E03CAF2BAF81
:10129000E222F322EF2809F48CC631EF2322809159
:1012A000C302813009F47BC0EBA9FCA9EE0FFF1F3C
:1012B000EE0FFF1FE053FD4FC080D180E280F3802E
:1012C000A7019601C301B2010E94A43C2B013C017D
:1012D000EFA9F8ADEE0FFF1FEE0FFF1FE053FD4F1C
:1012E00080819181A281B3818BAB9CABADABBEAB56
:1012F0009C01AD01C501B4010E94A43C4B015C01FD
:10130000A3019201C301B2010E94BC3F2B013C0129
:10131000A5019401C501B4010E94BC3F9B01AC0131
:10132000C301B2010E94A53C0E9449404B015C01EF
:10133000A7019601C701B6010E94BC3F6B017C0169
:101340002BA93CA94DA95EA9CA01B9010E94BC3FC5
:101350009B01AC01C701B6010E94A53C0E94494017
:101360006B017C016093E5027093E6028093E702D3
:101370009093E8029B01AC01C501B4010E94A43C1A
:101380004B015C01E894B7F82AE037ED43EA5BE3F0
:10139000C501B4010E94813F18164CF15EC000ECFB
:1013A00012E08BAD9CAD0C2C02C0959587950A94EC
:1013B000E2F780FF12C023E333E34BEC51E4D801A2
:1013C00050966D917D918D919C9153970E94BC3F59
:1013D000F801608B718B828B938BFFEFCF1ADF0A42
:1013E0000C5F1F4F23E0C216D104D9F65DCF20E079
:1013F00030E040E05FE3C501B4010E94813F181670
:101400000CF459CE2FE632E143E85AE3C701B601A6
:101410000E94BC3F9B01AC01C501B4010E94813F09
:1014200018160CF448CE19C03FA130613FA38BA51C
:101430008E58823018F44FA148604FA38F8D8823B7
:1014400009F4A7CB4CE050E06EEE72E088E992E040
:101450000E940C41892B09F42ECE2FA121709FA14F
:1014600090FF03C0C1018E7D03C0C1018E7D9C7FB2
:10147000ABA1A111937E892B09F09DC58E010F5F51
:101480001F4F8DE0F80111928A95E9F7222309F4A4
:1014900057C08FA598A9867B892B09F08EC58091AE
:1014A000C002853311F0811188C580918B02909123
:1014B0008C02A0918D02B0918E028D839E83AF83AA
:1014C000B8879091890280918802892B4091CC0243
:1014D0005091CD026091CE027091CF0249835A8320
:1014E0006B837C8384608D878091DD029091DE0226
:1014F000A091DF02B091E00289879A87AB87BC8711
:101500008091700285FF06C08EEE92E00E94133A31
:10151000811155C5B8018EEE92E00E94433C809146
:101520001A02811150C50E94961E892B09F44BC5E1
:1015300080E280931A020E9447260E941E1343C530
:1015400080917002F090890281FF26C08BA58150A6
:10155000833018F0FFA1F064FFA32F8D222339F010
:101560003BA1323021F44FA140684FA315C080E168
:10157000F81212C08091800281509FA19074833034
:1015800030F4992349F09FA190629FA305C0911167
:1015900003C0AFA1A062AFA38091DD029091DE02F3
:1015A000A091DF02B091E0028093940290939502A3
:1015B000A0939602B093970289879A87AB87BC87DE
:1015C0008091C20280938102882311F088E08D8788
:1015D0008091CC029091CD02A091CE02B091CF0229
:1015E00080938F0290939002A0939102B093920205
:1015F00089839A83AB83BC838090E9029090EA024E
:10160000A090EB02B090EC02A501940160918B02D6
:1016100070918C0280918D0290918E020E947E3D8D
:10162000BFA1B074EB2E811103C0EFA1E5FF20C074
:10163000FF2071F0FFA1F7FD0BC0EE2021F040E08C
:1016400050E0BA0102C0B501A4018F2D0E94CB3930
:101650008091E9029091EA02A091EB02B091EC0234
:1016600080938B0290938C02A0938D02B0938E0294
:10167000E1100CC080918B0290918C02A0918D02A0
:10168000B0918E028D839E83AF83B8878091ED02E7
:10169000809393028091CA0290918902981751F029
:1016A0004D815E816F8178850E94CB398091CA021D
:1016B000809389029D8580918902892B8D87F09086
:1016C000C902809188028F15A9F080911A02823098
:1016D00029F00E94BD208F2D0E949B2F8091C9026E
:1016E000811103C01092880205C090918802892B55
:1016F000809388029D8580918802892B8D878091B7
:10170000C002843099F4C090E102D090E202E090EF
:10171000E302F090E40280911A02823039F00E94D4
:10172000BD2040E0C701B6010E94A2308091C502F1
:10173000809384028091C302809382022BA1233084
:1017400071F58091C60280938502811108C01092C4
:10175000F6021092F7021092F8021092F902C0906D
:10176000F602D090F702E090F802F090F902A7019B
:1017700096016091BC027091BD028091BE02909171
:10178000BF020E947E3D882351F0C092BC02D092DD
:10179000BD02E092BE02F092BF020E944C3A8091DC
:1017A000C70290918602981769F0809386028CE0B8
:1017B000FE013E96A4EAB2E001900D928A95E1F70F
:1017C0000E944C3A8091C402809383028091C002AF
:1017D0008632F1F138F48C3109F18E31F9F08A302A
:1017E00069F04FC08C35D1F1863609F441C088329A
:1017F00009F047C068E972E087E02DC060ED72E053
:101800008DA50E947C14809186023DA5381339C0B5
:101810008CE0E0EDF2E0A4EAB2E025C08D858160C5
:101820008D874BA1442329F0B8018EEE92E00E94EF
:10183000433CB80180ED92E00E94433C8CE0E0ED37
:10184000F2E0A8E9B2E001900D928A95E1F719C0A3
:1018500068E972E086E00E947C1413C08CE0EEEE32
:10186000F2E0A0EBB2E001900D928A95E1F707C09B
:101870008CE0E0EBF2E0DF011D928A95E9F70E942F
:101880004C3A8091C10280938002803509F429C3CB
:10189000BBA1B23009F025C3813021F4BE016F5FD6
:1018A0007F4F06C0811109C08D8581608D87B80189
:1018B0008EEE92E00E94433C0BC38250823008F0CF
:1018C0009FC28091E5029091E602A091E702B0915B
:1018D000E8028BA39CA3ADA3BEA3AFAD94E0A99FE8
:1018E00070011124F701E856FD4FFCA7EBA7970103
:1018F00020533D4F3EA72DA7D9014D905D906D908F
:101900007C902081318142815381C301B2010E94C8
:10191000A53C6FA778AB89AB9AAB2296EFAD229727
:10192000B4E0EB9F80011124980128563D4F219689
:101930003FAF2EAF2197C80180539D4F23969FAF95
:101940008EAF2397DC018D909D90AD90BC90F901F6
:101950002081318142815381C501B4010E94A53C9F
:101960006BAB7CAB8DAB9EAB77FA709477F87094D1
:10197000D501C401B0588F8F98A3A9A3BAA3F701CA
:10198000E251FD4F2FA538A949A95AA9608171815B
:10199000828193810E94A43C6B017C01F801E25199
:1019A000FD4F2BA93CA94DA95EA96081718182815F
:1019B00093810E94A43C4B015C01A7019601C301E5
:1019C000B2010E94BC3F6FAB78AF89AF9AAFA5015F
:1019D00094016F8D78A189A19AA10E94BC3F9B01BF
:1019E000AC016FA978AD89AD9AAD0E94A53C6FABF3
:1019F00078AF89AF9AAFA5019401C301B2010E94EB
:101A0000BC3F4B015C01A70196016F8D78A189A1B4
:101A10009AA10E94BC3F9B01AC01C501B4010E9488
:101A2000A43C2FA938AD49AD5AAD0E94183D6B01B9
:101A30007C019FA192FF13C02DEB37E346E055EBED
:101A4000C701B6010E94813F87FD1DC02BED3FE01D
:101A500049EC50E4C701B6010E94A43C12C02DEB32
:101A600037E346E055E3C701B6010E947E3D1816F4
:101A700054F02BED3FE049EC50E4C701B6010E9461
:101A8000A53C6B017C018090640290906502A0905F
:101A90006602B09067022BA13CA14DA15EA1CA01D4
:101AA000B9010E94A53CA50194010E94A43CA50196
:101AB00094010E94BC3F0E9449404B015C0120E020
:101AC00030E040E05FE3C701B6010E94BC3F2BA1BC
:101AD0003CA14DA15EA10E94BC3F9F77A50194014E
:101AE0000E94853D0E945B3E0E94F23D78AF6FAB45
:101AF000DB01AB2B09F4D2CE1D854B01A12CB12CFF
:101B000013FF12C0C501B4010E941E3E9B01AC012F
:101B100069817A818B819C810E94BC3F69837A8331
:101B20008B839C83177F1D87C501B4010E941E3ED5
:101B30004B015C019B01AC01C701B6010E94853DD0
:101B40006FA378A789A79AA72496EFAD2497B4E04E
:101B5000EB9FC00111248C0108561D4FFC01E2517E
:101B6000FD4FD8012D913D914D915C916081718126
:101B7000828193810E94A43CA50194010E94853D2D
:101B80002B966CAF7DAF8EAF9FAF2B972FA138A553
:101B900049A55AA5CA01B9010E94BC3F9B01AC01ED
:101BA00060E070E080E090E40E94A43C6B017C0166
:101BB0002BEA3AEA4AE25EE36FA178A589A59AA5E5
:101BC0000E94BC3F4B015C0120E030E040E850E463
:101BD000C701B6010E94A53C9B01AC01C501B4013F
:101BE0000E94BC3F6BAF7CAF8DAF9EAF20E030E07A
:101BF00040E05FE3C701B6010E94BC3F27966CAF8F
:101C00007DAF8EAF9FAF27971BA222242394312C48
:101C1000EFA9F8ADE215F30509F440CEBBA1BC3045
:101C200008F044C02F8D38A149A15AA127966CAD68
:101C30007DAD8EAD9FAD27970E94BC3F6B017C01AF
:101C4000A30192016BAD7CAD8DAD9EAD0E94BC3FFA
:101C5000A70196010E94A53C7B016C01A3019201A2
:101C600027966CAD7DAD8EAD9FAD27970E94BC3F92
:101C70004B015C012F8D38A149A15AA16BAD7CAD00
:101C80008DAD9EAD0E94BC3F9B01AC01C501B4016E
:101C90000E94A43C2B013C01EBA1EF5FEBA34701A9
:101CA00056018F8E98A2A9A2BAA267C0B10180E0A6
:101CB00090E00E941E3E2FA138A549A55AA50E947A
:101CC000BC3F6B017C010E94823D6F8F78A389A38A
:101CD0009AA3C701B6010E943F404B015C01ADA52C
:101CE000BEA5CD90DD90ED90FC90F7FAF094F7F85A
:101CF000F0942396AEADBFAD23978D919D910D903D
:101D0000BC91A02D8BA39CA3ADA3BEA3A70196015C
:101D10006F8D78A189A19AA10E94BC3F2B013C0143
:101D20002BA13CA14DA15EA1C501B4010E94BC3F05
:101D30009B01AC01C301B2010E94A53C2B013C01F7
:101D4000A7019601C501B4010E94BC3F6B017C0153
:101D50002BA13CA14DA15EA16F8D78A189A19AA173
:101D60000E94BC3F9B01AC01C701B6010E94A43C8C
:101D70006F8F78A389A39AA31BA2A30192016FA5D9
:101D800078A989A99AA90E94A53CEBA5FCA5608326
:101D90007183828393832F8D38A149A15AA16BA9A6
:101DA0007CA98DA99EA90E94A53C2196AEADBFAD90
:101DB00021976D937D938D939C9313972B962CADC8
:101DC0003DAD4EAD5FAD2B97F80160817181828191
:101DD00093810E94A53CD8016D937D938D939C9334
:101DE0001397BE016F5F7F4F88E992E00E94433CEA
:101DF00080911B0281116CC0BFEF2B1A3B0A08CFE8
:101E00008D8584608D8780911A02823009F460C0CC
:101E10000E94BD2080911B02811163C0FFA1F0715F
:101E2000FF2E10921F022FA123FB882780F90E940A
:101E3000041D80910601807890910002891749F075
:101E400084E00E9461250E94A61E80E00E94041D7D
:101E500048C0B8018EEE92E00E94433C81E080933E
:101E6000190282E00E9471250E94A61E80911B0229
:101E7000811137C080911A028111F6CF8091190229
:101E8000813081F4FF2051F08CE0E1E0F2E0ADE040
:101E9000B2E001900D928A95E1F707C085E00E94BB
:101EA000612503C081E080931F021092190280E037
:101EB0000E94041D0E94A61E0E94F02D0E94CB20AD
:101EC0000E94121E0E94E93980911F0281118AC06E
:101ED0008CE0EEEEF2E0A8E9B2E001900D928A9576
:101EE000E1F78091C80280938702882309F47DC0BE
:101EF0000E94BD208091870290911A02833041F4A4
:101F00009230C1F188E00E9471250E94A61E32C065
:101F100081E08093800210928402109283021092DA
:101F2000810210928602109289021092880284E641
:101F3000809321028093220280932302923081F0C9
:101F400064EA72E080E0ECD48823D9F10E944C3A34
:101F500040E050E0BA0180E035D480E00E949B2F41
:101F600085EA92E00E94041E8CE392E00E94041E27
:101F70000E942F18109287022FC081E036C082E0A5
:101F800034C088E132C086E230C089E12EC084E0EE
:101F90002CC08BE12AC085E228C084E126C08EE1F6
:101FA00024C08FE122C086E120C080E21EC082E210
:101FB0001CC083E21AC084E218C080E116C08FE022
:101FC00014C087E012C08CE0EEEEF2E0A8E9B2E0C7
:101FD00001900D928A95E1F780E007C01E8E1FA246
:101FE0000C9464020E94E52E7CCFC25BDF4F0FB6DB
:101FF000F894DEBF0FBECDBFDF91CF911F910F913F
:10200000FF90EF90DF90CF90BF90AF909F908F9018
:102010007F906F905F904F903F902F900895909396
:10202000AB008093AA00892B21F48091A0008F7DC2
:1020300003C08091A00080628093A0000895CF9398
:10204000DF938091FB03C091FA03C81710F0C81BFF
:1020500003C08C1BC82FC0951092FE04109225015E
:102060001092240180917300816080937300D0915D
:10207000FA038091FB03D81720F09D2F981B892F1E
:1020800002C08D1B8095C81740F08091170E8111FA
:1020900004C08091180E882341F0809173008E7FD8
:1020A00080937300DF91CF9108956091FE0470E0FA
:1020B00080E090E00E94203E28E137E948E951E4C1
:1020C0000E947E3D1816ACF685EA92E00E94041E3E
:1020D0008EE092E00E94041EC2D780E8DF91CF918B
:1020E0000C94712580915C02682F20915D02422F33
:1020F000982F917080FD94E0822F817020FD80E800
:1021000061FD986041FD806462FD906142FD8062E6
:10211000909320058093210508951F920F920FB68A
:102120000F9211248F939F9382B1909120059C71FF
:10213000837E892B82B915BC9F918F910F900FBE22
:102140000F901F90189580916F008D7F80936F0086
:1021500080918100887F81608093810010922205A8
:1021600080915E0290911A028F3F39F42091180EEF
:10217000211103C0903881F402C0943069F090E0DE
:10218000009741F0EFE9FFE03197F1F700C0000060
:102190000197F6CF81E001C080E09091700292FF3C
:1021A00002C091E08927882311F02F9A08952F9873
:1021B00008951F920F920FB60F9211240BB60F9233
:1021C0002F933F934F935F936F937F938F939F933F
:1021D000AF93BF93EF93FF938091220581111BC2B0
:1021E00088B190913205907E8F71892B88B982B128
:1021F000837E90913105892B82B98091300586BD0F
:1022000082E085BD81E08093220578948091440529
:1022100090914505892B09F0B7C08091E10C909110
:10222000320D981709F49BC08091E10C28E0829F41
:10223000C0011124FC01EE51F34FF0934505E093EA
:1022400044052281338130938900209388002081C6
:1022500031813093400520933F05E4812091410571
:102260002E1761F1E093410522E1E29FF001112474
:10227000EB5CF24FF0934305E093420544855585AE
:1022800066857785769567955795479540932B0595
:1022900050932C0560932D0570932E0540932705D0
:1022A000509328056093290570932A0540932305D0
:1022B000509324056093250570932605E09142050F
:1022C000F091430530892091210523272093320581
:1022D000DC01AE51B34F15969C9115974081518109
:1022E00062817381092E04C076956795579547954D
:1022F0000A94D2F740933305509334056093350523
:10230000709336054481558166817781092E04C01A
:1023100076956795579547950A94D2F74093370578
:10232000509338056093390570933A05408551857F
:102330006285738504C076956795579547959A95FC
:10234000D2F740933B0550933C0560933D05709355
:102350003E0516968D919C91179761DE15C0F3DEB0
:10236000E0914205F09143058189882349F010925C
:10237000AB001092AA008091A0008F7D8093A000F6
:1023800084E00E94712547C1809119028130B9F41F
:1023900080910601807890910002891781F0109257
:1023A00019028CE0E1E0F2E0ADE0B2E001900D92C4
:1023B0008A95E1F78091170E80648093170E109232
:1023C00031054091230550912405609125057091B8
:1023D00026058091330590913405A0913505B09183
:1023E0003605840F951FA61FB71F80932305909372
:1023F0002405A0932505B0932605E0914205F091B0
:1024000043054485558566857785481759076A07CA
:102410007B0768F524E02093310544855585668562
:102420007785841B950BA60BB70B809323059093A0
:102430002405A0932505B0932605208980910102EB
:1024400090910202A0910302B091040227FF04C000
:102450000197A109B10903C00196A11DB11D809387
:10246000010290930202A0930302B09304024091F0
:102470002705509128056091290570912A058091C2
:10248000370590913805A0913905B0913A05840F30
:10249000951FA61FB71F8093270590932805A0932B
:1024A0002905B0932A0544855585668577854817A3
:1024B00059076A077B0778F520913105286020933A
:1024C00031054485558566857785841B950BA60B5C
:1024D000B70B8093270590932805A0932905B09307
:1024E0002A0520898091050290910602A091070299
:1024F000B091080226FF04C00197A109B10903C0E9
:102500000196A11DB11D8093050290930602A09330
:102510000702B093080240912B0550912C05609161
:102520002D0570912E0580913B0590913C05A09161
:102530003D05B0913E05840F951FA61FB71F8093E0
:102540002B0590932C05A0932D05B0932E05448563
:10255000558566857785481759076A077B0778F59B
:10256000209131052061209331054485558566858C
:102570007785841B950BA60BB70B80932B05909347
:102580002C05A0932D05B0932E052089809109027A
:1025900090910A02A0910B02B0910C0225FF04C099
:1025A0000197A109B10903C00196A11DB11D809336
:1025B000090290930A02A0930B02B0930C0280913F
:1025C0001A02843039F490913105809120028923D8
:1025D0008093310580913F0590914005019790933C
:1025E000400580933F05892B69F4109245051092B0
:1025F00044058091E10C8F5F8093E10C8A3011F4E7
:102600001092E10C909131058091200589278093EB
:10261000310510922205FF91EF91BF91AF919F91EB
:102620008F917F916F915F914F913F912F910F907B
:102630000BBE0F900FBE0F901F90189580917002E7
:1026400082FF02C02F9A01C02F98809120058093AD
:10265000310580915B02880F84508195809330050D
:1026600080916F00826080936F0008954F925F9217
:102670006F927F928F929F92AF92BF92CF92DF9292
:10268000EF92FF926B017C0180906C0290906D0242
:10269000A0906E02B0906F02409068025090690264
:1026A00060906A0270906B02A3019201C501B401AF
:1026B0000E94813F87FF19C06091230270E080E093
:1026C00090E00E94203E2AE037ED43E25CE30E9466
:1026D000BC3FA70196010E94BC3F6B017C01A30196
:1026E00092010E94813F87FD0BC0409227025092C9
:1026F00028026092290270922A0280E094E04AC087
:10270000A5019401C701B6010E947E3D1816FCF098
:1027100020E030E0A901C701B6010E947E3D811191
:102720000BC01092270210922802109229021092D8
:102730002A0280E090E02EC0809227029092280228
:10274000A0922902B0922A0281E090E023C0C092B8
:102750002702D0922802E0922902F0922A02A501D3
:102760009401C701B6010E94A43C2091FF0430915E
:10277000000540910105509102050E94BC3F0E9456
:102780005B3E20E030E040E85FE30E94A53C0E9411
:10279000F23DCB01FF90EF90DF90CF90BF90AF90D4
:1027A0009F908F907F906F905F904F900895E0EA98
:1027B000F0E080818F7D8083E2E0F1E08081877F9F
:1027C0008083089590911B02911125C081110AC048
:1027D00010922702109228021092290210922A02C7
:1027E000E6DF17C0803111F4739801C0739A90919D
:1027F000700291FF05C0803219F440E050E0BA0148
:10280000CB01BA0133DF0BDC809102018860809339
:102810000201109225020895E1E0F1E080818061DB
:10282000808383E08093A0008AE18093A10080E010
:1028300094E09093A9008093A800808188608083B1
:102840006B9A20916C0230916D0240916E02509112
:102850006F02609168027091690280916A029091A2
:102860006B020E94A43C9B01AC0160E070EC8FE71E
:1028700094E40E94853D6093FF047093000580936B
:1028800001059093020593CF80918902811104C0C4
:1028900080918802882389F080911A02811101C0F9
:1028A000CECB84FF04C090911C0290FDF9CF803400
:1028B00021F480911C0282FDF3CF08951F920F92A4
:1028C0000FB60F9211248F938091FE048F5F809337
:1028D000FE048F910F900FBE0F901F9018956AE025
:1028E00080E090E00E94EB2E45E550E06BE272E064
:1028F00081E090E00C940D2F0F931F93CF93C82F7E
:102900008B010E94BD202DE0C29FC00111244CE02C
:1029100050E0B8019E5FCF911F910F910C940D2F45
:102920001F93CF93DF93182FEB018DE0189FB00119
:1029300011247E5F4CE050E0CE010E94502F892B85
:1029400051F48CE0FE0111928A95E9F7BE01812FC6
:10295000D3DF80E001C081E0DF91CF911F91089526
:10296000EF92FF920F931F93CF93DF93CDB7DEB714
:102970002C970FB6F894DEBF0FBECDBF182F80FF87
:10298000EFC08AE080935B028FEF80935E0284E069
:1029900080935C0281E080935D0283E080935F021C
:1029A0004AE057ED63E27CE340936002509361029A
:1029B00060936202709363024FE652E163E07BE34F
:1029C00040936402509365026093660270936702BD
:1029D00040E050E563EC76E440936802509369026E
:1029E00060936A0270936B0210926C0210926D02F7
:1029F00010926E0210926F028093710280E090E05C
:102A0000AAEFB3E48093720290937302A0937402CE
:102A1000B093750280E090E4ACE1B6E48093760276
:102A200090937702A0937802B09379028AEF90E0B6
:102A300090937B0280937A0280E090E0A0E0B0E483
:102A400080937C0290937D02A0937E02B0937F02DC
:102A500088E78093700282E598EBA2E6B2E4809367
:102A60002B0290932C02A0932D02B0932E02809300
:102A70002F0290933002A0933102B093320288E586
:102A800095E5A5E8B4E48093330290933402A093D3
:102A90003502B093360280E090E6AAE6B6E4809371
:102AA000370290933802A0933902B0933A02809390
:102AB0003B0290933C02A0933D02B0933E0280E023
:102AC00090E0AAEFB4E480933F0290934002A09379
:102AD0004102B093420280E098ECAFE2B9E4809307
:102AE000430290934402A0934502B0934602809320
:102AF000470290934802A0934902B0934A0280E0B3
:102B000090EAACE0B7E480934B0290934C02A09320
:102B10004D02B0934E0280E090E4ACE9B4EC8093B7
:102B20004F0290935002A0935102B093520280E062
:102B300090EAABE1B5EC8093530290935402A093DA
:102B40005502B093560280E090E0A6E1B3EC80938A
:102B5000570290935802A0935902B0935A02BFDED5
:102B600011FF0FC0CE0101967C018CE0F70111929C
:102B70008A95E9F700E0B701802FBEDE0F5F0830CD
:102B8000D1F712FF14C060E080E093E00E94EB2ECA
:102B900060E081E093E00E94EB2E60E081E094E051
:102BA0000E94EB2E60E082E094E00E94EB2E13FF87
:102BB0000AC060E08EEA93E00E94EB2E60E08FEAAC
:102BC00093E00E94EB2E2C960FB6F894DEBF0FBE5A
:102BD000CDBFDF91CF911F910F91FF90EF9008959E
:102BE0001F920F920FB60F9211240BB60F922F93D4
:102BF0003F934F935F936F937F938F939F93AF9385
:102C0000BF93EF93FF93E091C600E632B1F030F44A
:102C1000E83151F0E132B1F588E00CC0EF3339F022
:102C2000EE3781F582E006C00E94D13073C081E0AA
:102C300001C080E20E9471256DC00E94B42F809176
:102C400091008B7F80939100809191008F7E809383
:102C50009100809190008D7F8093900080919000F2
:102C60008160809390008FEF90E090939B00809321
:102C70009A0090939D0080939C009093990080937C
:102C8000980048C0E7FF38C08E2F90E0FC01E45860
:102C9000F109EE31F105F0F58827E855FF4F8F4F28
:102CA0000C94EB4080911A0285FF34C080E4C2CFBF
:102CB00081E00DC082E00BC084E009C088E007C05D
:102CC00080E105C080E203C080E401C080E80E948A
:102CD000582520C081E00DC082E00BC084E009C00F
:102CE00088E007C080E105C080E203C080E401C045
:102CF00080E80E944F250EC0A091FA0381E08A0F60
:102D00009091FB03891731F0B0E0A650BD4FEC93D2
:102D10008093FA03FF91EF91BF91AF919F918F91B3
:102D20007F916F915F914F913F912F910F900BBECB
:102D30000F900FBE0F901F9018951F920F920FB615
:102D40000F9211240BB60F928F939F93EF93FF93E3
:102D50008091FD04E82FF0E0E350FC4F90819093C8
:102D6000C6008F5F8093FD049091FC03891305C01A
:102D70008091C1008F7D8093C100FF91EF919F9161
:102D80008F910F900BBE0F900FBE0F901F90189554
:102D9000E091FC0391E09E0F2091FD04921305C089
:102DA0002091170E24FFF8CF0BC0F0E0E350FC4F4A
:102DB00080839093FC038091C10080628093C10066
:102DC0000895CF93C82F83EB93E01ED78C2FF9D6AD
:102DD000CF9118C1EF92FF920F931F93CF93DF9380
:102DE00060915B0270E080E02BD160915E0270E048
:102DF00081E026D160915C0270E082E021D1609197
:102E00005D0270E083E01CD16091700262FB662776
:102E100060F970E084E014D16091700266FB66276F
:102E200060F970E085E00CD180917002082E000CF2
:102E3000990B692F661F6627661F70E086E000D138
:102E400060915F0270E08AE0FBD040916002509197
:102E50006102609162027091630223E08BE0D5D041
:102E60004091640250916502609166027091670220
:102E700023E08CE0CAD060917002617070E08DE058
:102E8000DFD06091700265FB662760F970E084E135
:102E9000D7D06091700263FB662760F970E085E12E
:102EA000CFD0609170026295617070E086E1C8D009
:102EB0006091710270E087E1C3D04091720250913D
:102EC0007302609174027091750223E088E19DD0D5
:102ED0004091760250917702609178027091790268
:102EE00023E089E192D060917A0270917B028AE1BD
:102EF000A7D040917C0250917D0260917E0270913A
:102F00007F0223E08BE181D04091680250916902F9
:102F100060916A0270916B0220E08EE176D0409160
:102F20006C0250916D0260916E0270916F0220E010
:102F30008FE16BD0609170026695617070E080E205
:102F40007FD0D4E6F12C0BE212E083E0E82EED0E08
:102F5000CD2F82E0F81691F0E3E0FE16E9F0F1E003
:102F6000FF1631F0F80140815181628173811AC0EE
:102F7000F801448555856685778514C020E030E0EA
:102F800041E655E4F801608D718D828D938D0E942C
:102F9000853DAB01BC0106C0F80144A155A166A165
:102FA00077A1705823E08C2F30D00C5F1F4FCF5F7C
:102FB000EC12CFCFD65FF394DC3829F6DF91CF91B6
:102FC0001F910F91FF90EF900895811103C085E24A
:102FD00094E01AC6F6CE0F931F93CF938C01C0E0F6
:102FE000F80161917191819191918F01C6D5C230A3
:102FF00011F08CE2CDDECF5FC33091F7CF911F91FE
:103000000F91089582E294E0FFC5CF92DF92EF9294
:10301000FF92CF93DF93D82F6A017B01C22F84E206
:10302000B7DE8D2FCED58DE3B3DE4C2FC701B601B1
:10303000FCD4DF91CF91FF90EF90DF90CF90E2CF63
:10304000CF93DF93D82FC62F84E2A2DE8D2FB9D580
:103050008DE39EDE8C2FB5D5DF91CF91D3CF8DE55B
:1030600097DED0CF3F924F925F926F927F928F9276
:103070009F92AF92BF92CF92DF92EF92FF920F9307
:103080001F93CF93DF93CDB7DEB7A4970FB6F89415
:10309000DEBF0FBECDBF1091180E112361F181E08C
:1030A00080931A028AEB93E0AFD5812F8AD5AADFED
:1030B00085EF91E0019739F0EFE9FFE03197F1F703
:1030C00000C00000F7CF1150123030F08FB7F894E5
:1030D0001092180E8FBF0FC085EA92E095D583E954
:1030E00092E092D5BCDF80E10E9467258091170EA7
:1030F00084FFFCCFEBCF1091170E112309F400C30E
:1031000014FF04C081E080931B0208C410FFF8C1C3
:103110008CE0E1E0F2E0DE01599601900D928A9593
:10312000E1F7BE01675E7F4FCE010D960E947A25C2
:103130008CE32EDE80911A028830E1F058F4813061
:1031400091F1A8F0823091F1843009F03FC08AE01B
:1031500094E03BC0803221F118F4803171F036C028
:10316000803439F1803891F582EF93E02EC08DE103
:1031700094E02BC089E194E028C080911C0287FD77
:103180000FC083E194E040D580911C0280FF06C00F
:1031900080E319C082FF16C085FFFACF81E313C018
:1031A0008FE094E012C084E094E00FC08EEF93E0D3
:1031B0000CC088EF93E028D580911C0283FFEACFF2
:1031C00083E301C082E3E4DD01C01ED580915F028C
:1031D000F82FF170BF2E80FF07C080912602882350
:1031E00019F08BEE93E053C04090BC025090BD02AA
:1031F0006090BE027090BF0244EA842E42E0942E9A
:103200009E012F5F3F4F7901CE010D966C0100E0CA
:10321000F40161917191819191914F0120853185E6
:10322000428553850E94A53CF701608371838283A8
:103230009383023061F4A30192010E94A53CF7013F
:103240006083718382839383BB2019F0CACFB1104E
:1032500011C0F7012081318142815381F6016081E3
:103260007181828193810E94A43CF6016083718305
:10327000828393830F5FF4E0EF0EF11C24E0C20E13
:10328000D11C033029F6B110ACCF84EE93E0BCD44E
:10329000CE010D96A0DE80915F0281FF1DC08FEDF3
:1032A00093E0B2D49091E00C80914705981710F00C
:1032B0008D5D01C08150891B84D48CE269DD8091D1
:1032C000FB039091FA03981720F0981B892F8095A3
:1032D00002C08150891B75D429D5009781F0FC016B
:1032E000C288D388E488F588C114D104E104F104CC
:1032F00031F08AED93E088D4C701B6014CD485ED56
:1033000093E082D480911A028C7749F06091FB0D92
:103310007091FC0D8091FD0D9091FE0D03C060E059
:1033200070E0CB011CD48CE233DD609127027091F8
:1033300028028091290290912A0240E076D30E94CF
:10334000382E082F0E94B625F82E8091060180782D
:10335000C0900002C8262091090180910601847066
:10336000D82E809106018071E82E91E0F22FF8703E
:10337000BF2E23FD90E081E0D11080E0982B81E00A
:10338000E11080E0892B8C29802B8F2909F43BC028
:1033900080ED93E039D4CC2011F080E5F9DCB11058
:1033A00002C080E7F5DCD11002C087E4F1DCE11057
:1033B00002C087E6EDDC0023A1F000FF02C088E731
:1033C000E7DC04FF02C088E5E3DC01FF02C089E717
:1033D000DFDC05FF02C089E5DBDC02FF02C08AE515
:1033E000D7DCFF2081F0F0FE02C084E4D1DCF1FEE6
:1033F00002C082E5CDDCF2FE02C088E4C9DCF3FE47
:1034000002C083E5C5DC80912602882321F081502B
:103410008093260216C080911A028C7711F08DE1FC
:1034200001C089E08093260280912502811103C0AA
:1034300081E0809325028AEC93E0E6D3CE010196E9
:10344000CADD80912502882321F0815080932502D6
:1034500051C080911A028C7711F083E101C089E09C
:103460008093250285EC93E0CFD380912102A9D3EC
:103470008CE28EDC80912202A4D38CE289DC8091E4
:1034800023029FD380910201082F087083FF0BC095
:103490008091A000082F007285FF05C0739B02C0B9
:1034A00002E001C001E080910201FF24F394982F13
:1034B000907285FFF12C8091020186FF04C02F2DB0
:1034C0002260F22E04C0011102C0992399F081EC10
:1034D00093E09AD3002331F0013011F483E501C069
:1034E00083E456DCF0FE02C086E452DCF1FE02C04A
:1034F0008DE44EDC8EE34CDC85DD81E00E946725A7
:10350000812F887E09F477C080911A02982F9370DA
:1035100009F060C08872A1F080911C02807C81F467
:103520000E94CC2D82E080931E0280911A0280328C
:1035300039F417FDF1C180911C02806880931C0250
:1035400080911A02811103C091E090931C0216FF32
:1035500007C085FD05C090911C02906490931C02E9
:1035600013FF05C0807E19F480E180931A0215FFD5
:1035700031C085EA92E048D381E592E045D36FDD22
:1035800080911C0287FD21C090911A029034B1F401
:1035900083FF14C080911E0282FF0AC00E94CC2DBE
:1035A00086E080931E0280911C028E7F80931C0215
:1035B00080911C02837E826080931C0280911A029B
:1035C000803819F080E480931A0280911C02806296
:1035D00080931C0217FF0CC080911A02813029F4DD
:1035E00080911C02856080931C0280E880931A02FF
:1035F00088EE0E94672511FF43C0812F8876E9F588
:1036000080911A02803471F480911C0285FD0AC0F9
:1036100084FF03C010921A0205C082FF03C08860B5
:1036200080931C0280911A02882381F084FF25C0B8
:1036300090911C0290FF21C0803141F480912402BE
:10364000882321F088608093240217C010921E0204
:103650006DD3892B71F080911C0286FD0AC01092F7
:103660001C0288E080931A020E9447260E941E13C3
:1036700004C010921C0210921A0282E00E94672578
:1036800012FF3EC080911A02807D90911C02882317
:10369000D1F080911D02811116C097FD14C00E94C7
:1036A000CC2D809147058093460586D580911E02DA
:1036B00081FF05C090911C02916090931C02897F4C
:1036C00080931E021AC097FF08C010921E0263D595
:1036D0000E94F02D0E94E52EA5D280911C0285FF4C
:1036E00008C08F77816080931C0280E480931A0267
:1036F00004C010921C0210921A0284E00E946725F6
:103700009091190E992309F4A9C08FB7F8941092DB
:10371000190E8FBF4091210290FD02C0842F01C07D
:1037200084E691FD865F92FD8A5093FD8F5F94FD44
:103730008150893C08F088EC8A3008F48AE03091A6
:10374000220295FD02C0232F01C024E696FD22E34C
:1037500097FD29E1481303C0231709F47FC0809324
:1037600021022093220210922502109147053090E9
:10377000E00C89E9D82E96E7E92E26E9F22E0EE72D
:1037800036E3432E131509F456C0812E912C489C24
:10379000C001499C900D1124FC01E85BFA4F5F01C8
:1037A000CF0151D2562E672E782EC92E2D2D3E2DAB
:1037B0004F2D502F0E94813F18164CF42D2D3E2D79
:1037C0004F2D502F6D2D7E2D8F2D902F08C0252D24
:1037D000362D472D5C2D652D762D872D9C2D0E9435
:1037E000BC3FF501628F738F848F958F489CC00119
:1037F000499C900D11249C01285B3A4F7901F901F5
:1038000086A097A0A0A4B1A4A5019401628D738D98
:10381000848D958D0E94813F18162CF4F701828EBD
:10382000938EA48EB58E1F5F143209F410E0D52C50
:1038300073010C2DA7CF8D2D9E2DAF2DB02F809312
:103840001B0590931C05A0931D05B0931E050E94B7
:10385000CC2D8091470580934605AED490911A0EE9
:10386000992309F452C08FB7F89410921A0E8FBFA3
:103870002091230290FD02C0822F01C084E691FDB9
:10388000865F92FD8A5093FD8F5F94FD8150893C45
:1038900008F088EC8A3008F48AE0281749F0209173
:1038A0001E02286020931E0280932302109225029C
:1038B00080911A0295FF0DC0803159F420912402A5
:1038C000211102C022E003C020FF03C02460209326
:1038D0002402292F207CC9F0882311F08871A9F0D7
:1038E0001091880297FF05C017FF02C01F7701C023
:1038F000106896FF05C016FF02C01F7B01C0106450
:10390000812F0E949B2F1093880280911A028C7F36
:1039100029F00E94472602C080E219CEA4960FB675
:10392000F894DEBF0FBECDBFDF91CF911F910F91F5
:10393000FF90EF90DF90CF90BF90AF909F908F90CF
:103940007F906F905F904F903F9008958F929F92DD
:10395000AF92BF92EF92FF921F93CF93DF93CDB7B9
:10396000DEB72A970FB6F894DEBF0FBECDBF611544
:1039700071058105910589F480E32A960FB6F894C4
:10398000DEBF0FBECDBFDF91CF911F91FF90EF90B3
:10399000BF90AF909F908F90FBC920E04AE0842EAB
:1039A000912CA12CB12C11E0120FEE24E394F12CF8
:1039B000EC0EFD1EE20EF11CA50194010E94C9400F
:1039C000F7016083B901CA01212F611571058105D5
:1039D000910549F7112341F0FE01E10FF11D8081AE
:1039E000805DD6D91150F6CF2A960FB6F894DEBF77
:1039F0000FBECDBFDF91CF911F91FF90EF90BF9091
:103A0000AF909F908F900895109200029091700255
:103A100097FD03C090E890930002882329F08091DD
:103A2000000280588093000208958F929F92AF9277
:103A3000BF92CF92DF92EF92FF920F931F93CF939B
:103A4000DF93CDB7DEB72D970FB6F894DEBF0FBE6C
:103A5000CDBF6B017C01042F20E030E0A9010E9462
:103A60007E3D87FF06C08DE293D9F7FAF094F7F810
:103A7000F094102F123060F020E030E048EC52E477
:103A8000C701B6010E94BC3F6B017C011250F2CF0E
:103A900000FF0AC020E030E040E251E4C701B60177
:103AA0000E94BC3F6B017C0120E030E040E05FE31E
:103AB000C701B6010E94A53C0E94ED3D10E03AE02E
:103AC000832E912CA12CB12C6115710581059105D6
:103AD00091F0EE24E394F12CEC0EFD1EE10EF11CAE
:103AE000A50194010E94C940605DF7016083B9019E
:103AF000CA011F5FE9CF80E3101748F4E1E0F0E06E
:103B0000EC0FFD1FE10FF11D80831F5FF5CF101338
:103B100011C0FE01E10FF11D80E381831F5F0AC028
:103B2000101302C08EE234D9FE01E10FF11D808135
:103B30002FD911501111F4CF2D960FB6F894DEBF86
:103B40000FBECDBFDF91CF911F910F91FF90EF90EE
:103B5000DF90CF90BF90AF909F908F90089520916D
:103B6000700220FF08C02BE832E441E25DE30E94CE
:103B7000BC3F41E001C040E058CF2091700220FFDF
:103B800008C02BE832E441E25DE30E94BC3F44E020
:103B900001C043E04ACFCF92DF92EF92FF9297FFAE
:103BA0000BC06B017C018DE2F3D866277727CB0130
:103BB0006C197D098E099F09FF90EF90DF90CF90DF
:103BC000C5CECF93DF93843630F06AE00E94A940DF
:103BD000C0E3C90F03C0C0E08A3030F06AE00E9441
:103BE000A940D0E3D90F01C0D0E0805DD1D8DD235A
:103BF00011F08D2FCDD8CC2321F08C2FDF91CF91D8
:103C0000C7C8DF91CF910895CF93DF93FC018491D2
:103C1000EF012196882319F0BBD8FE01F8CFDF9180
:103C2000CF910895E1E0F2E0A3E0B5E04191519138
:103C3000619171914D935D936D937D9382E0ED3031
:103C4000F807A1F70895BF92CF92DF92EF92FF920B
:103C50000F931F93CF93DF937C01FC0106A517A55B
:103C6000D0A9C1A9818980FF18C06091220270E0AB
:103C700080E090E00E94203E2AE037ED43E25CE3E2
:103C80000E94BC3F9B01AC01B8018D2F9C2F0E946C
:103C9000BC3F8B01D82FC92F2DC082FD17C060916A
:103CA000210270E080E090E00E94203E2AE037EDA3
:103CB00043E25CE30E94BC3F9B01AC01B8018D2F45
:103CC0009C2F0E94BC3F8B01D82FC92FF701B2A4B3
:103CD000C3A4D4A4F5A42B2D3C2D4D2D5F2DB801EC
:103CE0008D2F9C2F0E94813F181624F40B2D1C2D24
:103CF000DD2DCF2D20E030E040E85FE3B8018D2FCF
:103D00009C2F0E94813F181624F000E010E0D0E8BC
:103D1000CFE3B8018D2F9C2FDF91CF911F910F9191
:103D2000FF90EF90DF90CF90BF900895809147056E
:103D30009091E00C981739F026E3829FC00111247E
:103D4000885B9A4F089580E090E008952F923F920B
:103D50004F925F926F927F928F929F92AF92BF929B
:103D6000CF92DF92EF92FF920F931F93CF93DF9347
:103D7000CDB7DEB7A7970FB6F894DEBF0FBECDBFA5
:103D800071D980911C02882309F4D8C1CE01019613
:103D90001C018DE0D1011D928A95E9F786E08D879F
:103DA000C5DF009771F40091890280918802082B89
:103DB00080908B0290908C02A0908D02B0908E0229
:103DC00006C0FC01018982A893A8A4A8B5A8809187
:103DD000700281FF02C080E262D6C12CD12C90EA31
:103DE000E92E90E4F92E102F1073F02FF07FFEA330
:103DF00000740FA380911C02882309F49FC1909145
:103E00001B0291119BC180FF94C190911A02292F2E
:103E1000207C09F446C182FDA2C01092240261E018
:103E200072E0CE010E9666D680911C0281FD21C003
:103E30008CE0FE013E96DE015A9601900D928A9525
:103E4000E1F72AA13BA14CA15DA1C701B6010E94E7
:103E5000A53C6B017C0120E030E040EA50EC0E9480
:103E60007E3D87FD06C0C12CD12C80EAE82E80EC77
:103E7000F82E0091700204FF62C04E885F88688C43
:103E8000798C20E030E040EA50ECC301B2010E949E
:103E90007E3D87FF54C001FD52C0A7019601C301BA
:103EA000B2010E947E3D87FF19C0CE8ADF8AE88E6C
:103EB000F98E80E090E0A8ECB2E489839A83AB832A
:103EC000BC838D859EA1892B8D878D829E82AF823A
:103ED000B886B101CE010E960E94F230A6E0AD8701
:103EE0001D821E821F82188640E050E0BA0180E0E9
:103EF0000E94E21380E00E949B2F20E030E040EA25
:103F000050EC6E897F89888D998D0E947E3D87FF58
:103F10001FC080E090E0A0EAB0EC8E8B9F8BA88F52
:103F2000B98F80E090E0AAEFB3E489839A83AB83F2
:103F3000BC83B101CE010E960E94F23009C040E070
:103F400050E0BA0180E00E94E21380E00E949B2FC3
:103F500080911C028D7F846080931C02EAC090389F
:103F6000C1F485EA92E050DE8EE092E04DDE77D833
:103F700040E050E0BA0180E00E94E21380E00E943D
:103F80009B2F0E94A31080911B028111D7C06AD879
:103F9000FACF903441F4FFD5811105C080911C0205
:103FA0008F7D80931C0280911C0283FFC2C0809190
:103FB000700282718031E9F420E030E040EA50EC98
:103FC0006E897F89888D998D0E947E3D18168CF0B0
:103FD000CE8ADF8AE88EF98E80E090E0AAEFB3E423
:103FE00089839A83AB83BC83B101CE010E960E9474
:103FF000F230809189028823D1F080911C0281FDEA
:1040000016C08091700281FF06C080911E028860F8
:1040100080931E020CC0B501A401812F0E94E213FF
:1040200041E060E070E080E890E40E94A23080917E
:104030008802882371F080911C0281FD0AC08FA143
:104040000E949B2F41E060E070E080E89FE30E94C7
:10405000A2308091700282718031C9F480911C027B
:1040600081FD15C080E090E0A8ECB2E489839A83DA
:10407000AB83BC838D859EA1892B8D878D829E828B
:10408000AF82B886B101CE014A960E94F23080918B
:104090001C0281FD4EC0806180931C0282E021D50C
:1040A00048C0809124028823B1F181FF0EC0809125
:1040B0008902882369F140E050E0BA0180E00E9463
:1040C000E213A1E0A093240234C08C7091F180919E
:1040D00089028823B9F085EA92E096DD87E192E0D3
:1040E00093DD0E942F188091700281FF06C080919D
:1040F0001E02886080931E0205C0B501A401812FB5
:104100000E94E2138091240283FF02C082E0E9D47E
:10411000109224020EC080911E0283FF0AC0B501D6
:10412000A401812F0E94E21380911E02877F809359
:104130001E020E9444140E9432185CCEA7960FB64D
:10414000F894DEBF0FBECDBFDF91CF911F910F91CD
:10415000FF90EF90DF90CF90BF90AF909F908F90A7
:104160007F906F905F904F903F902F900895DEDD8D
:10417000892B11F082E0B5C40895F9DFE7DD809165
:104180001B02811107C0D2DD892BC1F780911A0271
:104190008830A1F308958CE1E3E0F5E0DF011D92A2
:1041A0008A95E9F7109247051092E00C81E0809320
:1041B0001F051092460508952F923F924F925F92ED
:1041C0006F927F928F929F92AF92BF92CF92DF9227
:1041D000EF92FF920F931F93CF93DF93C091E00C68
:1041E000C11101C0C4E2C150D0914605DC1709F4E9
:1041F0001DC1EC2EF12C26E3C29F80011124085B27
:104200001A4FF801A28CB38CC48CD58C668D778D37
:1042100080A191A19B01AC010E94A53CF80122A1C3
:1042200033A144A155A10E94BC3F4B018C019B01CD
:10423000AC01B501C6010E947E3D87FD02C054015C
:10424000680186E38E9DF0018F9DF00D1124E85BDF
:10425000FA4FC501D601868B978BA08FB18FC11104
:1042600001C0C4E2C150DC1761F026E32E9DC001FD
:104270002F9D900D11249C01285B3A4F7901D6E3C4
:1042800033C080914705D81360C00E94CC2D5DC01B
:10429000AC2EB12CDA9DC001DB9D900D1124FC01E8
:1042A000E85BFA4F6F01C11101C0C4E2C1508091B7
:1042B00047058C1302C00E94CC2DDA9D8001DB9D46
:1042C000100D1124085B1A4FF801828C938CA48C7A
:1042D000B58CA501940166897789808D918D0E94A6
:1042E0007E3D811106C0760180914605C813D0CF6E
:1042F0002CC0F801668D778D80A191A19B01AC0146
:104300000E94A53CF80122A133A144A155A10E941D
:10431000BC3FF70126893789408D518D0E94A53C0D
:104320002B013C019B01AC01C501B4010E94813FFE
:10433000F80118162CF4468A578A608E718ED3CFF6
:10434000868A978AA08EB18ECECFD0914605F6E3AD
:10435000DF9F80011124085B1A4FC1E0CD0FC432EA
:1043600009F4C0E02090E00C86E3382EC21509F471
:104370005BC0CC2ED12C3C9CC0013D9C900D1124E7
:104380009C01285B3A4F7901F80146885788608C78
:10439000718CF90186889788A08CB18CA501940155
:1043A000C301B2010E947E3D87FF24C0F801668DE3
:1043B000778D80A191A19B01AC010E94A53CF801E1
:1043C00022A133A144A155A10E94BC3FA3019201A7
:1043D0000E94A53C2B013C019B01AC01C501B4012D
:1043E0000E94813F181634F4F701468A578A608E7E
:1043F000718EDC2F3C9CF0013D9CF00D1124E85B9C
:10440000FA4F228D338D448D558D66897789808D45
:10441000918D0E947E3D811101C0DC2FCF5FC4329F
:1044200009F4C0E08701A2CFD0934605DF91CF9178
:104430001F910F91FF90EF90DF90CF90BF90AF90C2
:104440009F908F907F906F905F904F903F902F90B4
:1044500008952F923F924F925F926F927F928F9228
:104460009F92AF92BF92CF92DF92EF92FF920F9303
:104470001F93CF93DF93CDB7DEB7C454D1090FB6E6
:10448000F894DEBF0FBECDBF7B013091E00C232E30
:10449000312C26E3229DA001239D500D1124BA0149
:1044A000685B7A4F7EAB6DABFB0111922A95E9F701
:1044B000F7012485FB01218BF70144815581668139
:1044C0007781EDA9FEA942AB53AB64AB75ABF701A5
:1044D0004085518562857385EDA9FEA9428B538B7A
:1044E000648B758B21FF40C02CE0E1E0F2E0DE013F
:1044F000599601900D922A95E1F78BAB9CAB6BE23C
:1045000072E078AF6FABCE010D9623969FAF8EAF62
:104510002397FE0179962196FFAFEEAF2197F6E340
:104520003F9FC00111249C01285B3A4F3EAF2DAF45
:10453000BE016B5D7F4F7CAF6BAF7AAF69AF10E0B0
:1045400086E3829D9001839D300D1124C901885B13
:104550009A4FFC013C962596FFAFEEAF25976C0174
:10456000F0E1CF0ED11C3CC02CE0E3E0F5E0BFCF82
:10457000EDADFEAD2193319341935193FEAFEDAF7D
:104580002596EEADFFAD259780809180A280B38007
:1045900082169306A406B50610F449015A01259621
:1045A000EEADFFAD259780829182A282B3820E94F8
:1045B000203EA30192010E94853DE9ADFAAD6193D1
:1045C000719381939193FAAFE9AF20E030E0A901B4
:1045D0000E947E3D87FD42C01F5F133009F44CC02E
:1045E000EBA9FCA96191719181919191FCABEBAB2D
:1045F000EFA9F8AD4190519061907190F8AFEFAB99
:10460000A30192010E94BC3F0E948C3F2396EEAD15
:10461000FFAD239761937193819391932396FFAF9D
:10462000EEAF23972196EEADFFAD2197819091904B
:10463000A190B1902196FFAFEEAF2197681979094B
:104640008A099B099B01AC0197FF92CF2227332750
:10465000A901261B370B480B590B8ACF112321F0D8
:10466000113021F080E203C080E801C080E4F6014F
:104670009081892B8083B0CF89288A288B2809F4E0
:1046800094C1CE0185960E943B304B015C0186E3CC
:10469000829D8001839D100D1124085B1A4FF80143
:1046A00082A293A2A4A2B5A2BE016B5D7F4F83E458
:1046B00092E00E94E52FF801668F778F80A391A387
:1046C000BE016B5D7F4F87E392E00E94E52FF8010A
:1046D00062A773A784A795A7D188D0FC12C0F70161
:1046E0002081318142815381D3FC06C0F80126A785
:1046F00037A740AB51AB09C0C501B4010E94BC3F14
:10470000F80166A777A780AB91AB9091E00C809100
:104710004705981711F0D1FE0DC086E3829DF00188
:10472000839DF00D1124E85BFA4F168A178A108ECC
:10473000118E54C02FE035E03CAB2BAB8E010F5FE8
:104740001F4FBE016F5C7F4F7AAB69ABC12CD12C80
:1047500076010FAB19AFEBA9FCA981909190A190C4
:10476000B190FCABEBABEBADFCAD419051906190E7
:104770007190FCAFEBAFA3019201C501B4010E949F
:10478000BC3F9B01AC01C701B6010E94A43C6B0178
:104790007C01A5019401C301B2010E94A43CF8016F
:1047A00061937193819391938F0129A93AA96BAD7C
:1047B0007CAD2617370779F62FEE3FEF4FE75FE323
:1047C000C701B6010E94813F18166CF486E3829DF2
:1047D000F001839DF00D1124E85BFA4F16A217A299
:1047E00010A611A671C02FEE3FEF4FE75FEBC70198
:1047F000B6010E947E3D87FF11C086E3829DF001D5
:10480000839DF00D1124E85BFA4F89E996E7A6E94C
:10481000BEE786A397A3A0A7B1A756C08FA999AD5D
:104820000E943B306FA979AD83E492E00E94E52FAE
:104830004B015C01A701960160E070E080E89FE316
:104840000E94A43C20E030E040E05FE30E94BC3FD7
:104850000E9449406B017C0120916002309161020D
:104860004091620250916302C501B4010E94BC3FB5
:10487000A70196010E94BC3F4B015C01A701960174
:1048800060E070E080E89FE30E94A43C9B01AC01E3
:10489000C501B4010E94853D6B017C0120E030E040
:1048A000A9010E947E3D87FF03C0C12CD12C760157
:1048B00086E3829DF001839DF00D1124E85BFA4FA1
:1048C000C6A2D7A2E0A6F1A686E3829D8001839DC1
:1048D000100D1124085B1A4FF801818981FD67C012
:1048E0008DA99EA9B0D96B017C0180901B05909089
:1048F0001C05A0901D05B0901E05A50194010E9405
:10490000813F18162CF4A5019401C501B40104C01F
:10491000A7019601C701B6010E94BC3FF801628F52
:10492000738F848F958F86E3829D8001839D100D08
:104930001124085B1A4FF80186A097A0A0A4B1A487
:10494000A5019401628D738D848D958D0E94813FA8
:1049500018162CF4F801828E938EA48EB58EC09218
:104960001B05D0921C05E0921D05F0921E058CE0FF
:10497000FE01B596AFE0B5E001900D928A95E1F7A2
:104980008CE0FE013D96A3E0B5E001900D928A9582
:10499000E1F780911F058093E00C8F5F843209F46A
:1049A00080E080931F0508DC02C080E001C081E048
:1049B000CC5BDF4F0FB6F894DEBF0FBECDBFDF91EB
:1049C000CF911F910F91FF90EF90DF90CF90BF900C
:1049D000AF909F908F907F906F905F904F903F909F
:1049E0002F900895CF93DF93CCE1DEE08991882367
:1049F00019F00E94C816FACFDF91CF910895CF9396
:104A0000DF9321E031E0482F429FC001439F900D8A
:104A10001124EC01DD5F40E051E0BE018CE19EE03D
:104A20000E94502F892B61F410921C0EA6DB40E0EF
:104A300051E06CE17EE0CE010E940D2F80E001C0CC
:104A400081E0DF91CF910895CF93DF93C0E08C2F69
:104A5000D6DF81110DC010921C0E8EE30E94C81685
:104A6000C1DF8AE30E94C81687E00E94E11611C0E8
:104A700080911C0E882369F00E942A02D82F8EE3B1
:104A80000E94C816AFDF8AE30E94C8168D2F0E94CD
:104A9000E517CF5FC230D9F6DF91CF9108959FB768
:104AA000F89420911A0E822B80931A0E9FBF0895BE
:104AB0009FB7F8942091190E822B8093190E9FBFF7
:104AC00008959FB7F8948093180E9FBF08952FB74D
:104AD000F8949091170E809589238093170E2FBF1D
:104AE00008959FB7F8942091170E822B8093170E8C
:104AF0009FBF08958F929F92AF92BF92CF92DF9205
:104B0000EF92FF920F931F93CF93DF93EB012BE272
:104B1000E22E22E0F22E8C016B018CE0C80ED11C3B
:104B20006991799189919991F70181909190A190E2
:104B3000B1907F010E94203EA50194010E94853D15
:104B4000F80161937193819391938F01CC15DD05E9
:104B500039F7DF91CF911F910F91FF90EF90DF9088
:104B6000CF90BF90AF909F908F90089520910601B5
:104B70002B7288E0282769F023FB882780F991E0D1
:104B8000892720FF826021FF8460207219F48860E9
:104B9000089580E00895EADF80FF04C080910B0152
:104BA0008F7B03C080910B01806480930B01DEDF5B
:104BB000817008951F920F920FB60F9211240BB6B9
:104BC0000F922F933F934F935F936F937F938F93A6
:104BD0009F93AF93BF93EF93FF93C8DF882309F4AC
:104BE00043C081FF03C00E94D1303EC083FF04C098
:104BF0008091170E826033C082FF04C08091170E2F
:104C000088602DC080FF2EC08091910084618093C8
:104C10009100809191008D7F809391008091900010
:104C2000826080939000809190008E7F80939000AE
:104C300080E090E8909397008093960080E090E465
:104C4000909399008093980010929B0010929A0084
:104C500010929D0010929C008091170E80628093AC
:104C6000170E02C00E94B42FFF91EF91BF91AF9138
:104C70009F918F917F916F915F914F913F912F9174
:104C80000F900BBE0F900FBE0F901F9018952F9294
:104C90003F924F925F926F927F928F929F92AF92CC
:104CA000BF92CF92DF92EF92FF920F931F93CF9319
:104CB000DF93CDB7DEB7E8970FB6F894DEBF0FBE2F
:104CC000CDBF80911E0280FD4EC79091E10C809176
:104CD0001B0E981709F447C78091150E9091160E78
:104CE000892B09F026C310911E0212FF09C0809182
:104CF000E00C26E3289FC0011124885B9A4F01C075
:104D000015D89093160E8093150E2090150E3090A6
:104D1000160E2114310409F426C70091D80D802FF6
:104D2000817000FF09C002FF04C00E7F0093D80D00
:104D3000EDC01092D80DEAC09091D70D9F5F9930C9
:104D400009F0892F8093D70DE82EF12C32E13E9D9A
:104D5000F0013F9DF00D1124EB5CF24FF093340D08
:104D6000E093330DD10150969C915097908BE2E1E6
:104D70008E9FC001112420E030E04D915D916D9136
:104D80007D91FC01E20FF31FEB5CF24F689412F887
:104D9000440F551F661F771F1694D1F74083518328
:104DA000628373832C5F3F4F2C30310531F722E152
:104DB0002E9DF0012F9DF00D11249F012B5C324F91
:104DC000F10184859585A685B78543E0880F991FF5
:104DD000AA1FBB1F4A95D1F7F90184879587A6873B
:104DE000B787D1011C966D917D918D919C911F97F4
:104DF0000E941E3E6093DD0D7093DE0D8093DF0DEB
:104E00009093E00DF10122A133A144A155A10E948C
:104E1000853D9B01AC016093E10D7093E20D8093A1
:104E2000E30D9093E40D60E070E080EA9FE30E9460
:104E3000853D6093E50D7093E60D8093E70D9093AB
:104E4000E80D1092D90D1092DA0D1092DB0D109230
:104E5000DC0D11FD02C003FF1FC06091030E7091B5
:104E6000040E8091050E9091060E6093FB0D7093D9
:104E7000FC0D8093FD0D9093FE0D9B01AC010E94F3
:104E8000BC3FD10156966D937D938D939C9359971A
:104E9000077F0093D80D0FC0F10166897789808D57
:104EA000918D0E9449406093FB0D7093FC0D80939F
:104EB000FD0D9093FE0DF2E1FE9DC001FF9D900D52
:104EC00011249C012B5C324F7901D90151961C921F
:104ED0008091700281FF1AC0F101818985FF16C09F
:104EE00026A537A540A951A960E070E080E89FE3BE
:104EF0000E94853D60930F0E7093100E8093110EEB
:104F00009093120EE1E0D7015196EC931092F70DB9
:104F10001092F80D1092F90D1092FA0DD1015E96D3
:104F20002D913D914D915C91919760E070E080E012
:104F30009FE30E94853D4B015C01F10142A053A01B
:104F400064A075A011FF4CC0F2E0F093F60DD10102
:104F50005696CD90DD90ED90FC905997A701960163
:104F60000E94BC3F9B01AC01C301B2010E94A43C62
:104F70004B015C0120E030E0A9010E947E3D87FFEB
:104F80001EC0F101668D778D80A191A19B01AC01BE
:104F90000E94A53CA30192010E94BC3F9B01AC0171
:104FA000C701B6010E94A43C0E9449406093030ED1
:104FB0007093040E8093050E9093060EB7C18092F5
:104FC000F70D9092F80DA092F90DB092FA0D109293
:104FD000030E1092040E1092050E1092060EA6C13A
:104FE0001092F60D4092070E5092080E6092090E34
:104FF00070920A0E12FF0CC01092030E1092040E53
:105000001092050E1092060EC12CD12C760124C0F0
:10501000E0914705EF5FE43209F4E0E08091E00CB5
:105020008E1759F026E32E9FF0011124E85BFA4F0A
:10503000C688D788E08CF18C03C0C12CD12C7601B6
:10504000C701B6010E9449406093030E7093040E9D
:105050008093050E9093060EC1010E94231E6D875A
:105060007E878F87988B9B01AC010E94BC3F698330
:105070007A838B839C83D10156968D919D910D905F
:10508000BC91A02D89879A87AB87BC879C01AD0115
:1050900069817A818B819C810E947E3D87FF72C0ED
:1050A00029813A814B815C8169857A858B859C85D4
:1050B0000E94A43CA50194010E94BC3F9B01AC014D
:1050C000C301B2010E94A43C6093070E7093080EC6
:1050D0008093090E90930A0E20E030E0A9010E940F
:1050E0007E3D18165CF1B2E0B093F60DF101668DCD
:1050F000778D80A191A19B01AC010E94A53CA301E9
:1051000092010E94BC3F9B01AC01D10156966D916A
:105110007D918D919C9159970E94A43C0E94494099
:105120006093030E7093040E8093050E9093060E09
:105130008091D80D88608093D80DF8C0A7019601A2
:1051400069817A818B819C810E94A43CA501940194
:105150000E94BC3F60930B0E70930C0E80930D0E5B
:1051600090930E0E2D853E854F8558892093FF0D17
:105170003093000E4093010E5093020E33E03093B3
:10518000F60DD4C0A701960169857A858B859C852B
:105190000E94A43CA50194010E94BC3FA30192017E
:1051A0000E94A53C20E030E040E05FE30E94BC3F6D
:1051B0006D837E838F83988720E030E0A9010E9471
:1051C000813F18160CF09AC02D813E814F81588581
:1051D000C301B2010E94813F18160CF08BC0A701D9
:1051E000960169817A818B819C810E94A43CA501F2
:1051F00094010E94BC3F9B01AC0160930B0E709325
:105200000C0E80930D0E90930E0E6D817E818F811A
:1052100098850E94813F1816CCF58D859E85AF85B7
:10522000B8898093FF0D9093000EA093010EB09368
:10523000020E29853A854B855C8569817A818B814F
:105240009C810E947E3D811104C091E09093F60DF7
:105250006DC029853A854B855C8569817A818B8112
:105260009C810E94A43CA50194010E94BC3F9B012B
:10527000AC01C301B2010E94A43C6093070E70937D
:10528000080E8093090E90930A0E50C02D813E8126
:105290004F8158852093070E3093080E4093090ED6
:1052A00050930A0E20930B0E30930C0E40930D0E6C
:1052B00050930E0ED1015E966D917D918D919C91D2
:1052C00091979B01AC010E94A53C2D813E814F81AD
:1052D00058850E94BC3FA70196010E94A53C0E94F0
:1052E00049406093FF0D7093000E8093010E9093E0
:1052F000020E1CC0B2E0B093F60D18C01092070E5B
:105300001092080E1092090E10920A0E8091030E50
:105310009091040EA091050EB091060E8093FF0DA2
:105320009093000EA093010EB093020E186010939C
:105330001E02E091320D48E0E49F900111243A8B67
:10534000298BF901EE51F34F8091D70D8483809121
:10535000150E9091160E98AF8FABDC019296BC9112
:10536000BF8FFC01F3A1F8A3DC019496BC91B9A313
:10537000FC01F5A1FAA32091E50D3091E60D4091D5
:10538000E70D5091E80D6F8D78A18B2F9F2F0E9414
:10539000A43C6BA77CA78DA79EA720E030E0A901C5
:1053A0000E947E3D87FF04C01BA61CA61DA61EA64C
:1053B0002091FF0D2B8B3091000E3C8B4091010E04
:1053C0004D8B5091020E5E8B8091070E8F8B9091CA
:1053D000080E988FA091090EA98FB0910A0EBA8F6E
:1053E000E091FB0DE983F091FC0DFD832091FD0D13
:1053F00029873091FE0D3D8740910B0E4BA35091B4
:105400000C0E5CA380910D0E8DA390910E0E9EA3A9
:10541000A091F70DAFA3B091F80DB8A7E091F90DE9
:10542000E9A7F091FA0DFAA72091030E2FA730916A
:10543000040E38AB4091050E49AB5091060E5AABA5
:105440003F8C08A129A01AA18EE3C82E83ECD82E88
:105450008EE2E82E89E3F82E412C512C3201CB8EBE
:10546000DC8EED8EFE8E8091F60D813009F4FBC04E
:10547000AFA9B8AD5E962D913D914D915C919197FC
:10548000813008F472C0833009F024C1C701B6012D
:105490000E94BC3F4B015C012B893C894D895E8990
:1054A00069817D8189859D850E94A43C9B01AC0119
:1054B000C501B4010E94813F87FD2EC02F89388D20
:1054C000498D5A8D6F8D78A189A19AA10E94A43C23
:1054D0009B01AC010E94A53C6B017C0129813D81AF
:1054E00049855D856B897C898D899E890E94A53C53
:1054F0009B01AC01C701B6010E94853D6B017C0197
:10550000B1E0B093F60DEB89E983FC89FD832D8929
:1055100029873E893D8795C020E030E040E05FE389
:10552000C501B4010E94BC3F9B01AC0169817D8132
:1055300089859D850E94A43CA70196010E94BC3FDD
:105540009B01AC01632D702F822D912F0E94A43CF2
:10555000362E072F282E192FA501940169817D81F0
:1055600089859D850E94A43C79C0C701B6010E942F
:10557000BC3F4B015C0120E030E040E05FE30E9473
:10558000BC3F29813D8149855D850E94A53CA701DD
:1055900096010E94BC3F9B01AC01632D702F822DB0
:1055A000912F0E94A43C362E072F282E192F262F2C
:1055B000372F482F592F6F89788D898D9A8D0E94AA
:1055C000813F18160CF042C02F89388D498D5A8DB5
:1055D0006F8D78A189A19AA10E94A43C9B01AC0186
:1055E0000E94A53C6B017C0129813D8149855D8537
:1055F0006B897C898D899E890E94A53C9B01AC01A9
:10560000C701B6010E94853D6B017C012BA13CA125
:105610004DA15EA16F89788D898D9A8D0E947E3D06
:10562000811104C0B2E0B093F60D03C0E1E0E09355
:10563000F60DFB89F9832C892D833D8939874E89A5
:105640004D873F88088D298C1A8DBEC0A501940115
:1056500069817D8189859D850E94A53C69837D83C3
:1056600089879D87B1C02B893C894D895E89C70197
:10567000B6010E94BC3F9B01AC01632D702F822DAF
:10568000912F0E94A43C5B014C019B01AC016BA1DA
:105690007CA18DA19EA10E94813F18160CF090C0A4
:1056A0002BA13CA14DA15EA1632D702F822D912FC6
:1056B0000E94A43C2B893C894D895E890E94853DCE
:1056C0006B017C0152E05093F60D3BA00CA12DA084
:1056D0001EA17AC0C701B6010E94BC3F4B015C010C
:1056E00029813D8149855D850E947E3D87FF39C0C6
:1056F00020E030E040E05FE3C501B4010E94BC3F20
:105700009B01AC0169817D8189859D850E94A43CB6
:10571000A70196010E94BC3F9B01AC01632D702F35
:10572000822D912F0E94A43C6BAB7CAB8DAB9EABCA
:105730002FA138A549A55AA50E94813F18168CF4BF
:10574000A501940169817D8189859D850E94A43C84
:1057500069837D8389879D873BA80CA92DA81EA9F5
:1057600033C02FA138A549A55AA5632D702F822DCE
:10577000912F0E94A43C9B01AC010E94A53C6B01AF
:105780007C0129813D8149855D856FA578A989A91D
:105790009AA90E94A53C9B01AC01C701B6010E94D9
:1057A000853D6B017C01BFA5B983E8A9ED83F9A90B
:1057B000F9872AA92D873FA008A529A41AA504C006
:1057C0003A2C0B2D282C192DA7019601C301B201EB
:1057D0000E94A53C2B013C012B8D3C8D4D8D5E8D97
:1057E0000E947E3D87FF07C0A30192016B8D7C8DD7
:1057F0008D8D9E8D1CC02BA53CA54DA55EA5632D52
:10580000702F822D912F0E94813F181604F52EE3F0
:1058100033EC4EE259E36B8D7C8D8D8D9E8D0E9415
:10582000A53C6B8F7C8F8D8F9E8FA30192010E9470
:10583000A43C6B017C01232D302F422D512F6FA1F1
:1058400078A589A59AA50E947E3D87FD0CCE898109
:105850009D81A985BD858093FB0D9093FC0DA09340
:10586000FD0DB093FE0DE091330DF091340D918953
:10587000911104C080911E0283FF43C0AFA9B8AD4F
:1058800051968C915197807359F1D296CD90DD90BD
:10589000ED90FC90D5979923D1F020910F0E309187
:1058A000100E4091110E5091120E6091FB0D7091EF
:1058B000FC0D8091FD0D9091FE0D0E94BC3F9B015F
:1058C000AC01C701B6010E94BC3F6B017C01C7015E
:1058D000B6010E9436139093140E8093130E0CC0E1
:1058E00010922702109228021092290210922A0286
:1058F0001092140E1092130E80911E02877F8093D7
:105900001E028091130E9091140EE989FA89EE51CE
:10591000F34FFA87E987978386832091E10D3091D1
:10592000E20D4091E30D5091E40D632D702F822D17
:10593000912F0E94BC3F69837A838B839C830E9452
:105940006B3D6B017C016091DD0D7091DE0D8091EE
:10595000DF0D9091E00D0E946B3D4B015C01A701B2
:1059600096010E94A43C0E94F23D6D837E838F834A
:105970009887ED81FE81A985BA85ED93FC93EF2B85
:1059800041F480911E0281FF04C0816080931E0259
:10599000C3C02091D90D3091DA0D4091DB0D5091AB
:1059A000DC0DC301B2010E94A53C2B013C01298101
:1059B0003A814B815C81C501B4010E94A43C9B01EA
:1059C000AC01C301B2010E94853D4B015C0120EC9A
:1059D00031EE44E65EE40E94BC3F0E946B3D0E94B3
:1059E000F23DE989FA89EE51F34F603D37E07307E4
:1059F0008105910510F4158230C0603A4FE07407BC
:105A00008105910518F451E055830BC06034AFE176
:105A10007A078105910518F4B2E0B58302C023E04E
:105A20002583E989FA89EE51F34F2581022E04C0BE
:105A300096958795779567950A94D2F74D815E8103
:105A400002C0440F551F2A95E2F751834083611528
:105A5000710551E08507910538F4E989FA89EE511D
:105A6000F34F7383628304C08FEF9FEF938382832E
:105A700080911B0E8093320D8F5F8A3019F08093D6
:105A80001B0E02C010921B0EE091150EF091160E27
:105A9000832D902FA22DB12F82A393A3A4A3B5A3EE
:105AA000C092DD0DD092DE0DE092DF0DF092E00DA0
:105AB00029813A814B815C81C701B6010E94A43CD7
:105AC000A50194010E94BC3F6093D90D7093DA0D3B
:105AD0008093DB0D9093DC0D2091F70D3091F80D44
