:1000000029C200003BC2000039C2000037C2000014
:1000100035C2000033C2000031C200002FC2000010
:100020002DC200002BC200000C94F72D0C94AB25C0
:100030000C945B2E23C2000021C200001FC20000EE
:100040001DC200000C94181119C2000017C2000054
:1000500015C2000013C2000011C200000C94CC10A5
:100060000DC200000C9490160C94421607C20000BA
:1000700005C2000003C2000001C20000FFC1000071
:10008000FDC10000FBC10000F9C10000F7C1000084
:10009000F5C10000F3C10000F1C10000EFC1000094
:1000A000EDC10000EBC10000E9C10000E7C10000A4
:1000B000E5C10000E3C10000E1C10000DFC10000B4
:1000C000DDC10000DBC100000C949D14D7C100000D
:1000D000D5C10000D3C10000D1C10000CFC10000D4
:1000E000CDC10000F639FC39FF39023A073A0F3A20
:1000F000173ABD3ABD3ABD3A243A273A303A393A2E
:10010000BD3ABD3ABD3ABD3ABD3ABD3A443A4E3A1F
:100110005A3A623A653A6E3A773A7D3ABD3ABD3A12
:10012000863A8F3A9A3ABD3ABD3ABD3ABD3ABD3A9F
:10013000BD3ABD3ABD3ABD3ABD3ABD3ABD3ABD3A07
:10014000BD3ABD3ABD3ABD3AA43A16040B100B10A5
:1001500020042B04360441040B1045040B105304F7
:100160000B105D04670471040B100B100B1081045D
:100170008E049B041017121782178217821782179A
:1001800082178217821782178217821718171A1779
:100190001C171E17201722172417261782172A1735
:1001A0002C172E17301732173417821736173817B7
:1001B000743377337E338133843387338A338D339B
:1001C0009033A833AB33AE33B133B433B733BA3330
:1001D000BD33C033DC33E333E633E933EC33EF33A1
:1001E000F233F533F833084AD73B3BCE016E84BC7B
:1001F000BFFDC12F3D6C74319ABD56833DDA3D0081
:10020000C77F11BED9E4BB4C3E916BAAAABE0000C9
:1002100000803F05A84CCDB2D44EB93836A9020CA7
:1002200050B9918688083CA6AAAA2ABE0000008080
:100230003F000D0A4772626C20312E3166205B2729
:10024000242720666F722068656C705D0D0A005D62
:10025000000D0A536D61727442656E6368205B53D2
:1002600057205665723A312E312E325D205B485749
:10027000205665723A00244E005B4F50543A005BA2
:1002800041534D20434E433B205357205665723A0D
:10029000312E312E322E32303230303730373B2053
:1002A0004857205665723A005B5645523A312E3116
:1002B000662E32303137303830323A005B544C4F92
:1002C0003A005B4739323A003330003238005B473E
:1002D00000204700204D00205300204600205400FD
:1002E00033382E005B47433A47005B484C503A2472
:1002F0002420242320244720244920244E2024780D
:100300003D76616C20244E783D6C696E6520244AF0
:100310003D6C696E652024534C50202443202458A2
:10032000202448207E2021203F206374726C2D7889
:100330005D0D0A00536C656570696E6700526573E8
:10034000746F72696E67207370696E646C650052B9
:100350006573746F72696E672064656661756C742D
:10036000730050676D20456E6400436865636B20C1
:100370004C696D69747300436865636B20446F6FEB
:10038000720044697361626C656400456E61626C01
:1003900065640043617574696F6E3A20556E6C6FC9
:1003A000636B656400272448277C27245827207422
:1003B0006F20756E6C6F636B00526573657420748B
:1003C0006F20636F6E74696E7565005B4D53473ABD
:1003D000006572726F723A00414C41524D3A007C96
:1003E000413A007C4F763A007C57434F3A007C4CB0
:1003F000643A007C506E3A007C46533A007C4C6E66
:100400003A007C42663A007C57506F733A007C4D4C
:10041000506F733A00536C65657000446F6F723AA9
:1004200000436865636B00416C61726D00486F6DDD
:1004300065004A6F6700486F6C643A0052756E0041
:1004400049646C65006F6B0D0A000D0A005B505229
:10045000423A000011241FBECFEFD1E2DEBFCDBF74
:1004600000E00CBF2FE0A0E0B2E001C01D92A63278
:10047000B207E1F70E94C2340C947242C1CD2F92B0
:100480003F924F925F926F927F928F929F92AF9224
:10049000BF92CF92DF92EF92FF920F931F93CF9371
:1004A000DF93CDB7DEB7CE54D1090FB6F894DEBFD7
:1004B0000FBECDBF8AE3E5ECF2E0DF011D928A9525
:1004C000E9F78BE0E5E8F2E0A6ECB2E001900D92EE
:1004D0008A95E1F78091260E843211F00C942C104D
:1004E00081E08093C6021092C70283E08E8FB1E054
:1004F000BFA3212C312C1AAA19AA10E01F8E1BA20F
:10050000EE24E394F12CEAE0AE2EB12CF1E68F2E2E
:10051000F3E09F2E8E8DE82FF0E0EA5DF14FC08072
:10052000CC2009F438C29FEB9C0D9A3110F00C944A
:10053000FB0F8F5F8E8FBE01665E7F4FCE014E96A2
:100540000E940E34882311F40C94FD0F4A8C5B8CAE
:100550006C8C7D8CC301B2010E94C7410E942F3F69
:10056000062F70E080E090E00E945D3F9B01AC01AF
:10057000C301B2010E94E13D20E030E048EC52E4CA
:100580000E94F9400E945C410E942F3FCB01E7E4AA
:10059000CE1629F0FDE4CF1609F4E4C034C10832C8
:1005A00009F4C6C020F5043168F4013108F08AC0AE
:1005B000043009F452C008F464C00A3009F445C09C
:1005C0000C940B100C3109F440C050F4063110F0BB
:1005D0000C940B1025E1201B2093C80226E0ADC02F
:1005E0000E3199F1063209F44CC00C940B100D3306
:1005F00009F498C0A8F4053381F140F40B3209F4F2
:100600007AC0013309F477C00C940B100C3310F04E
:100610000C940B106AEC600F6093CC0229E08DC043
:100620000C3538F40A3508F053C0003581F10C94CC
:100630000B100C3551F00F3510F00C940B102EE50B
:10064000201B2093C70225E078C0009731F42BA12E
:1006500021110C94FF0F31E03BA30093C502202F22
:100660002D7F2C3119F00C3509F064C0009721F072
:100670000A9711F00C940B10600F6093C50220E0F4
:1006800061C04BA141110C94FF0FA2E0ABA30093FA
:10069000C602063209F050C08431910559F08E31FE
:1006A000910541F08832910529F08233910511F0CE
:1006B0000C940B10B5010E94F24166576093C6027C
:1006C00021E040C06FEE600F6093CA0222E035C0A7
:1006D000892B31F466EA600F6093C90223E032C0CF
:1006E0006A30710511F00C940B100A3511F40C945A
:1006F0000B1024E027C0BBA1B1110C94FF0F0133F4
:1007000031F41092CB0228E0E3E0EBA31BC00A9780
:1007100011F00C940B10F1E0F093CB0228E033E0E1
:100720003BA310C0892B11F00C940B102AE00AC0D7
:1007300027E003C020E001C021E0892B19F087E108
:100740000C943310C70102C0880F991F2A95E2F755
:1007500029A93AA928233923232B09F44DC085E17F
:100760000C943310892B59F7063018F4033098F0A5
:100770001EC00E31C9F030F489EF800F833028F1AC
:100780000C940B10083311F00C940B10E1E0E09383
:10079000D0028EE029C0002319F0013021F104C0FD
:1007A000B3E0B093CD021FC00093CD021CC0043053
:1007B00021F0053031F080E101C080E28093CF026A
:1007C00002C01092CF028CE00FC0083021F0093037
:1007D00031F080E801C080E48093CE0202C0109224
:1007E000CE028DE001C08BE0970102C0220F331FC3
:1007F0008A95E2F7C901ACCFA9A9BAA9A82BB92B50
:10080000BAABA9AB87CE8C2DCC0C990BAA0BBB0B2A
:10081000FC01E654F109E531F10510F00C940B10E0
:100820008827EB55FF4F8F4F0C9444424092D102E2
:100830005092D2026092D3027092D40280E087C0BC
:100840004092D5025092D6026092D7027092D8029E
:10085000116081E07CC04092D9025092DA0260922D
:10086000DB027092DC02126082E071C04092DD0215
:100870005092DE026092DF027092E002146083E028
:1008800066C00093E10284E062C0C301B2010E942D
:100890002A3F6093E2027093E3028093E402909314
:1008A000E50285E054C04092E6025092E702609271
:1008B000E8027092E90286E04AC04092EA02509251
:1008C000EB026092EC027092ED0287E040C0409231
:1008D000EE025092EF026092F0027092F10288E014
:1008E00036C020E030E04FE753E4C301B2010E947C
:1008F000BE40181614F40C9401100093F20289E023
:1009000026C04092F3025092F4026092F502709277
:10091000F602BF8DB160BF8F8AE019C04092F70226
:100920005092F8026092F9027092FA02EF8DE26042
:10093000EF8F8BE00CC04092FB025092FC02609261
:10094000FD027092FE02FF8DF460FF8F8CE0670164
:10095000082E02C0CC0CDD1C0A94E2F7960122217D
:100960003321232B11F00C940310940102C0359510
:1009700027958A95E2F720FF0BC020E030E0A9011F
:10098000C301B2010E94BB3E87FF02C00C94051058
:100990002C283D28BFCD3F8D332329F04BA1411199
:1009A00002C082E08BA325FE0FC08091E2029091ED
:1009B000E302A091E402B091E50281389649A8498A
:1009C000B10514F00C940710FFA1FF2329F020FCBF
:1009D00002C00C94111018C08091C702813071F4CC
:1009E0002BA12230E1F58091C6028035C1F1882328
:1009F000B1F120FC02C00C94111031C0809186022C
:100A000081112DC020FE1BC08091C802813039F5B4
:100A100023E333E34BEC51E46091D1027091D202B5
:100A20008091D3029091D4020E94F9406093D10248
:100A30007093D2028093D3029093D40210C080911D
:100A4000940290919502A0919602B09197028093A2
:100A5000D1029093D202A093D302B093D40230FC7F
:100A600010C08091900290919102A0919202B09159
:100A700093028093EE029093EF02A093F002B09362
:100A8000F10289A99AA996FF15C026FE13C020E09D
:100A900030E0A9016091E6027091E7028091E802DE
:100AA0009091E9020E94BB3E811102C01092D002D7
:100AB000E89426F88091C502843039F426FC03C0FE
:100AC0008CE10C943310E89426F88091CA028823B4
:100AD000B1F0813051F491E024969FAF2497229693
:100AE0001FAE2297A2E0AFAF13C024961FAE24978B
:100AF000B2E02296BFAF2297E1E0EFAF09C0F2E08B
:100B00002496FFAF249721E022962FAF22971FAEA5
:100B10008091C802813021F03BA13330C9F52FC04C
:100B200065ECC62E62E0D62EE12CF12C4F8DA42E62
:100B3000B12CC5010E2C02C0959587950A94E2F759
:100B400080FF12C023E333E34BEC51E4D6019E96C1
:100B50006D917D918D919C91D1970E94F940F60104
:100B600066A777A780AB91ABFFEFEF1AFF0A24E0EF
:100B7000C20ED11C33E0E316F104D9F6CDCF80913B
:100B8000CB02813029F44F8D443011F00C940910C0
:100B90008CE0E9EAF2E0DE011E9601900D928A9562
:100BA000E1F789A99AA991FD08C00091C5020A3010
:100BB000C9F00C3509F4B3C01FC18091CC02873055
:100BC00018F08DE10C94331090918B02891769F322
:100BD000BE01625F7F4F0E94CE14882311F40C94F3
:100BE0001F10E3CF9F8D911103C08AE10C94331045
:100BF000C10180759927892B09F462CF6091E602C3
:100C00007091E7028091E8029091E9020E94C74149
:100C10000E942F3F6730A8F68091E102843141F0B5
:100C2000823011F00C940B1027FE02C00C940B10B4
:100C3000AFEA2A22662319F061506DA703C0B09174
:100C4000CC02BDA765ED72E08DA50E94CE1488236D
:100C500011F40C941F100091E1024090C1025090D9
:100C6000C2026090C3027090C40245ECE42E42E0E0
:100C7000F42E55E8A52E52E0B52EC12CD12CEF8DC7
:100C80008E2E912CC4010C2C02C0959587950A9448
:100C9000E2F780FF35C0043151F5D501D0962D9192
:100CA0003D914D915C91D39758966D917D918D9129
:100CB0009C915B970E94E13DF70126A537A540A9CD
:100CC00051A90E94E13DD70150966D937D938D937C
:100CD0009C935397B2E0CB1213C0A30192010E94E0
:100CE000E13DF701608B718B828B938B09C0F7011B
:100CF00086A597A5A0A9B1A9808B918BA28BB38B58
:100D0000FFEFCF1ADF0A24E0E20EF11C34E0A30E5D
:100D1000B11C43E0C416D10409F0B4CF41C18F8D9A
:100D2000882309F462CF4090C1025090C2026090C3
:100D3000C3027090C40225E8A22E22E0B22E4E011A
:100D40009EE0890E911C35ECE32E32E0F32EC12C8F
:100D5000D12CA82FB0E0BCA7ABA78BA59CA50C2CD1
:100D600002C0959587950A94E2F780FF29C0F401A7
:100D70002081318142815381D50158966D917D91B9
:100D80008D919C915B970E94E13DF70126A537A5C7
:100D900040A951A90E94E13DD7019E966D937D9394
:100DA0008D939C93D197B2E0CB1214C0A301920112
:100DB0000E94E13DF70166A777A780AB91AB0AC01F
:100DC000F50180A991A9A2A9B3A9F70186A797A7C0
:100DD000A0ABB1ABFFEFCF1ADF0A24E0A20EB11C2B
:100DE00034E0830E911C44E0E40EF11C83E0C8164D
:100DF000D10409F0B2CFD3C09BA1933069F40E3176
:100E000009F495C0053309F4C4C00C3109F0C7C01A
:100E100065ED72E086E08EC0AF8DAA2381F3B091BC
:100E2000C902BBA74090C1025090C2026090C302A9
:100E30007090C40285E8A82E82E0B82E95ECE92EC9
:100E400092E0F92E4E01EEE08E0E911CC12CD12CB9
:100E50002A2F30E03EA72DA78DA59EA50C2C02C001
:100E6000959587950A94E2F780FD0BC0F501808D7A
:100E7000918DA28DB38DF70186A797A7A0ABB1ABDB
:100E800044C0053309F441C0FBA5F1112BC0D501C5
:100E9000D0962D913D914D915C91D397F401608155
:100EA0007181828193810E94E23DD7019E962D91AE
:100EB0003D914D915C91D1970E94E23DF70166A76B
:100EC00077A780AB91ABF2E0CF121FC0A3019201D4
:100ED0000E94E23DD7019E966D937D938D939C93E6
:100EE000D19713C0F501208D318D428D538DD701DF
:100EF0009E966D917D918D919C91D1970E94E23D3E
:100F0000F70166A777A780AB91ABFFEFCF1ADF0A97
:100F100024E0A20EB11C34E0E30EF11C44E0840E88
:100F2000911C83E0C816D10409F096CF68CF65ED17
:100F300072E087E00E94CE14882311F40C941F10F5
:100F40009F8D911103C01DA61BA22AC0A5E8B2E087
:100F5000E5ECF2E080E090E04F8D242F30E0A90135
:100F6000082E02C0559547950A94E2F740FD0AC045
:100F700058964D915D916D917C915B97408B518B13
:100F8000628B738B0196149634968330910539F7F2
:100F900006C08091C602823010F00C940D101DA680
:100FA0008091C6028BA7803529F49F8D91110C94F6
:100FB0000F107FC2ABA1A23009F07BC2BBA5B1115B
:100FC00004C0EF8DE11175C22BC020E030E0A90113
:100FD0006091D1027091D2028091D3029091D4029B
:100FE0000E94BB3E882311F40C941110FBA5FC3821
:100FF00009F449C240F4F230A9F0F330B1F0F13015
:1010000009F057C20AC02BA52E3809F43CC208F4D7
:1010100037C22F3809F434C24CC23F8D311149C256
:101020001BA247C24FA144604FA38F8D882309F4B0
:10103000DCCDBFADAB2FB0E0BCABABAB2296FFAD10
:101040002297EF2FF0E0F8AFEFAB81E090E07C016A
:101050000FAC02C0EE0CFF1C0A94E2F722960FAC14
:10106000229702C0880F991F0A94E2F7E82AF92A0A
:101070002F8D822F90E08E219F21892B09F4D3C7D9
:10108000FD01EE0FFF1FEE0FFF1FEB53FD4FAA0FE9
:10109000BB1FAA0FBB1FA356BD4F2D913D914D9174
:1010A0005C9166A577A580A991A90E94E13D2B01DD
:1010B0003C01EFA9F8ADEE0FFF1FEE0FFF1FEB5342
:1010C000FD4FAFA9B8ADAA0FBB1FAA0FBB1FA356F8
:1010D000BD4F2D913D914D915C9166A577A580A95D
:1010E00091A90E94E13D4B015C01610130E8C322FE
:1010F000DD2427FEF5C0E89427F84CE050E063EFCC
:1011000072E08DE992E00E946542892B11F481E240
:10111000AAC78091C8028130B1F423E333E34BECDA
:1011200051E46091EA027091EB028091EC0290919F
:10113000ED020E94F9406093EA027093EB02809303
:10114000EC029093ED028091EA029091EB02A09163
:10115000EC02B091ED028BAF9CAFADAFBEAFA3017F
:101160009201C301B2010E94F9402B966CAF7DAF92
:101170008EAF9FAF2B97A5019401C501B4010E94CA
:10118000F9402F966CAF7DAF8EAF9FAF2F9720E0C9
:1011900030E040E850E46BAD7CAD8DAD9EAD0E947B
:1011A000F9402BAD3CAD4DAD5EAD0E94F9402B96A4
:1011B0002CAD3DAD4EAD5FAD2B970E94E13D2F961E
:1011C0002CAD3DAD4EAD5FAD2F970E94E13D6B0163
:1011D0007C0120E030E0A9010E94BB3E87FD25C7CD
:1011E000C701B6010E9486416B017C012F962CAD90
:1011F0003DAD4EAD5FAD2F972B966CAD7DAD8EADF9
:101200009FAD2B970E94E23D0E9486419B01AC015D
:10121000C701B60190580E94C23E6B017C019BA59C
:10122000933021F4F7FAF094F7F8F09420E030E0EE
:10123000A9016BAD7CAD8DAD9EAD0E94BB3E87FF1D
:1012400011C0F7FAF094F7F8F0948BAD9CADADAD0A
:10125000BEADB0588093EA029093EB02A093EC02EB
:10126000B093ED020BA91CA9000F111F000F111F55
:101270000B521D4FA7019601C501B4010E94F94010
:101280009B01AC01C301B2010E94E13D20E030E0CE
:1012900040E05FE30E94F940D8016D937D938D9308
:1012A0009C9313970FA918AD000F111F000F111F6A
:1012B0000B521D4FA7019601C301B2010E94F940D4
:1012C000A50194010E94E23D20E030E040E05FE3B0
:1012D0000E94F940F8016083718382839383E9C09F
:1012E000212F30E03CAF2BAFE222F322EF2809F4AC
:1012F0009EC631EF23228091C802813009F47BC061
:10130000EBA9FCA9EE0FFF1FEE0FFF1FEB52FD4FE5
:10131000C080D180E280F380A7019601C301B201B1
:101320000E94E13D2B013C01EFA9F8ADEE0FFF1F3C
:10133000EE0FFF1FEB52FD4F80819181A281B3819F
:101340008BAB9CABADABBEAB9C01AD01C501B40199
:101350000E94E13D4B015C01A3019201C301B20176
:101360000E94F9402B013C01A5019401C501B40183
:101370000E94F9409B01AC01C301B2010E94E23D11
:101380000E9486414B015C01A7019601C701B6018D
:101390000E94F9406B017C012BA93CA94DA95EA9D3
:1013A000CA01B9010E94F9409B01AC01C701B60115
:1013B0000E94E23D0E9486416B017C016093EA023B
:1013C0007093EB028093EC029093ED029B01AC01D1
:1013D000C501B4010E94E13D4B015C01E894B7F8FE
:1013E0002AE037ED43EA5BE3C501B4010E94BE4049
:1013F00018164CF15EC005EC12E08BAD9CAD0C2CC8
:1014000002C0959587950A94E2F780FF12C023E306
:1014100033E34BEC51E4D80150966D917D918D9161
:101420009C9153970E94F940F801608B718B828BDD
:10143000938BFFEFCF1ADF0A0C5F1F4F23E0C2161A
:10144000D104D9F65DCF20E030E040E05FE3C50194
:10145000B4010E94BE4018160CF459CE2FE632E1BA
:1014600043E85AE3C701B6010E94F9409B01AC0171
:10147000C501B4010E94BE4018160CF448CE19C034
:101480003FA130613FA38BA58E58823018F44FA145
:1014900048604FA38F8D882309F4A7CB4CE050E020
:1014A00063EF72E08DE992E00E946542892B09F4B6
:1014B0002ECE2FA121709FA190FF03C0C1018E7D70
:1014C00003C0C1018E7D9C7FABA1A111937E892BAE
:1014D00009F0AFC58E010F5F1F4F8DE0F80111922B
:1014E0008A95E9F7222309F457C089A99AA9867B2E
:1014F000892B09F0A0C58091C502853311F08111B7
:101500009AC58091900290919102A0919202B0911F
:1015100093028D839E83AF83B88790918E028091D2
:101520008D02892B4091D1025091D2026091D30259
:101530007091D40249835A836B837C8384608D8746
:101540008091E2029091E302A091E402B091E50261
:1015500089879A87AB87BC878091710285FF06C017
:1015600083EF92E00E94263B811167C5B80183EFAB
:1015700092E00E94563D80911A02811162C50E943C
:101580008619892B09F45DC580E280931A020E94B6
:101590001A260E945D1355C580917102F0908E024B
:1015A00081FF26C08BA58150833018F0FFA1F06425
:1015B000FFA32F8D222339F03BA1323021F44FA11C
:1015C00040684FA315C080E1F81212C080918502D7
:1015D00081509FA19074833030F4992349F09FA1EA
:1015E00090629FA305C0911103C0AFA1A062AFA3F9
:1015F0008091E2029091E302A091E402B091E502B1
:101600008093990290939A02A0939B02B0939C02BC
:1016100089879A87AB87BC878091C70280938602AF
:10162000882311F088E08D878091D1029091D202B9
:10163000A091D302B091D40280939402909395022A
:10164000A0939602B093970289839A83AB83BC835D
:101650008090EE029090EF02A090F002B090F10224
:10166000A501940160919002709191028091920283
:10167000909193020E94BB3EBFA1B074EB2E8111EA
:1016800003C0EFA1E5FF20C0FF2071F0FFA1F7FD2F
:101690000BC0EE2021F040E050E0BA0102C0B501DD
:1016A000A4018F2D0E94083B8091EE029091EF02E1
:1016B000A091F002B091F102809390029093910278
:1016C000A0939202B0939302E1100CC0809190021B
:1016D00090919102A0919202B09193028D839E838A
:1016E000AF83B8878091F202809398028091CF02F5
:1016F00090918E02981751F04D815E816F817885AF
:101700000E94083B8091CF0280938E029D8580913C
:101710008E02892B8D87F090CE0280918D028F15DD
:10172000A9F080911A02823029F00E94B81B8F2DF7
:101730000E946F2F8091CE02811103C010928D0202
:1017400005C090918D02892B80938D029D8580919B
:101750008D02892B8D87F090D00280918F028F159A
:1017600051F0F0928F020E94B81B80911B028111F0
:1017700002C0F09227028091C502843099F4C09093
:10178000E602D090E702E090E802F090E902809152
:101790001A02823039F00E94B81B40E0C701B6013E
:1017A0000E946D308091CA02809389028091C802A4
:1017B000809387022BA1233071F58091CB02809317
:1017C0008A02811108C01092FB021092FC02109252
:1017D000FD021092FE02C090FB02D090FC02E0904D
:1017E000FD02F090FE02A70196016091C102709186
:1017F000C2028091C3029091C4020E94BB3E882322
:1018000051F0C092C102D092C202E092C302F092A3
:10181000C4020E945F3B8091CC0290918B0298178A
:1018200069F080938B028CE0FE013E96A9EAB2E05B
:1018300001900D928A95E1F70E945F3B8091C90269
:10184000809388028091C5028632F1F138F48C31A0
:1018500009F18E31F9F08A3069F04FC08C35D1F141
:10186000863609F441C0883209F047C06DE972E05C
:1018700087E02DC065ED72E08DA50E94BB148091BC
:101880008B023DA5381339C08CE0E5EDF2E0A9EA02
:10189000B2E025C08D8581608D874BA1442329F05E
:1018A000B80183EF92E00E94563DB80185ED92E0C9
:1018B0000E94563D8CE0E5EDF2E0ADE9B2E001902A
:1018C0000D928A95E1F719C06DE972E086E00E94F9
:1018D000BB1413C08CE0E3EFF2E0A5EBB2E00190A3
:1018E0000D928A95E1F707C08CE0E5EBF2E0DF01AD
:1018F0001D928A95E9F70E945F3B8091C602809312
:101900008502803509F429C3BBA1B23009F025C393
:10191000813021F4BE016F5F7F4F06C0811109C085
:101920008D8581608D87B80183EF92E00E94563DDE
:101930000BC38250823008F09FC28091EA029091DE
:10194000EB02A091EC02B091ED028BA39CA3ADA39E
:10195000BEA3AFAD94E0A99F70011124F701E35637
:10196000FD4FFCA7EBA797012B523D4F3AAB29AB9C
:10197000D9014D905D906D907C90208131814281A4
:101980005381C301B2010E94E23D6DA77EA78FA7DC
:1019900098AB2296EFAD2297B4E0EB9F8001112423
:1019A000980123563D4F21963FAF2EAF2197C80196
:1019B0008B529D4F23969FAF8EAF2397DC018D9066
:1019C0009D90AD90BC90F90120813181428153817D
:1019D000C501B4010E94E23D6BAB7CAB8DAB9EAB0D
:1019E00077FA709477F87094D501C401B0588F8F4E
:1019F00098A3A9A3BAA3F701ED50FD4F2DA53EA5CD
:101A00004FA558A960817181828193810E94E13D37
:101A10006B017C01F801ED50FD4F2BA93CA94DA9AC
:101A20005EA960817181828193810E94E13D4B01B9
:101A30005C01A7019601C301B2010E94F9406FAB9E
:101A400078AF89AF9AAFA50194016F8D78A189A174
:101A50009AA10E94F9409B01AC016FA978AD89ADB4
:101A60009AAD0E94E23D6FAB78AF89AF9AAFA50106
:101A70009401C301B2010E94F9404B015C01A7012E
:101A800096016F8D78A189A19AA10E94F9409B01CE
:101A9000AC01C501B4010E94E13D2FA938AD49ADAB
:101AA0005AAD0E94553E6B017C019FA192FF13C06D
:101AB0002DEB37E346E055EBC701B6010E94BE406F
:101AC00087FD1DC02BED3FE049EC50E4C701B60196
:101AD0000E94E13D12C02DEB37E346E055E3C7011C
:101AE000B6010E94BB3E181654F02BED3FE049ECC6
:101AF00050E4C701B6010E94E23D6B017C01809079
:101B0000650290906602A0906702B09068022BA1D7
:101B10003CA14DA15EA1CA01B9010E94E23DA5010F
:101B200094010E94E13DA50194010E94F9400E94A8
:101B300086414B015C0120E030E040E05FE3C701FB
:101B4000B6010E94F9402BA13CA14DA15EA10E94CB
:101B5000F9409F77A50194010E94C23E0E94983FE0
:101B60000E942F3F78AF6FABDB01AB2B09F4D2CED5
:101B70001D854B01A12CB12C13FF12C0C501B4016E
:101B80000E945B3F9B01AC0169817A818B819C81C2
:101B90000E94F94069837A838B839C83177F1D871A
:101BA000C501B4010E945B3F4B015C019B01AC018C
:101BB000C701B6010E94C23E6FA378A789A79AA762
:101BC0002496EFAD2497B4E0EB9FC00111248C0163
:101BD00003561D4FFC01ED50FD4FD8012D913D9155
:101BE0004D915C9160817181828193810E94E13D80
:101BF000A50194010E94C23E2B966CAF7DAF8EAFC3
:101C00009FAF2B972FA138A549A55AA5CA01B901A5
:101C10000E94F9409B01AC0160E070E080E090E43C
:101C20000E94E13D6B017C012BEA3AEA4AE25EE365
:101C30006FA178A589A59AA50E94F9404B015C0186
:101C400020E030E040E850E4C701B6010E94E23DE8
:101C50009B01AC01C501B4010E94F9406BAF7CAFA0
:101C60008DAF9EAF20E030E040E05FE3C701B601FA
:101C70000E94F94027966CAF7DAF8EAF9FAF27973C
:101C80001BA222242394312CEFA9F8ADE215F30511
:101C900009F440CEBBA1BC3008F044C02F8D38A160
:101CA00049A15AA127966CAD7DAD8EAD9FAD27970A
:101CB0000E94F9406B017C01A30192016BAD7CADE8
:101CC0008DAD9EAD0E94F940A70196010E94E23DB4
:101CD0007B016C01A301920127966CAD7DAD8EADA9
:101CE0009FAD27970E94F9404B015C012F8D38A1D1
:101CF00049A15AA16BAD7CAD8DAD9EAD0E94F9405E
:101D00009B01AC01C501B4010E94E13D2B013C01E6
:101D1000EBA1EF5FEBA3470156018F8E98A2A9A21A
:101D2000BAA267C0B10180E090E00E945B3F2FA1A2
:101D300038A549A55AA50E94F9406B017C010E9473
:101D4000BF3E6F8F78A389A39AA3C701B6010E94F3
:101D50007C414B015C01A9A9BAA9CD90DD90ED9021
:101D6000FC90F7FAF094F7F8F0942396AEADBFAD7F
:101D700023978D919D910D90BC91A02D8BA39CA339
:101D8000ADA3BEA3A70196016F8D78A189A19AA1E9
:101D90000E94F9402B013C012BA13CA14DA15EA169
:101DA000C501B4010E94F9409B01AC01C301B2011D
:101DB0000E94E23D2B013C01A7019601C501B4013F
:101DC0000E94F9406B017C012BA13CA14DA15EA1B9
:101DD0006F8D78A189A19AA10E94F9409B01AC0165
:101DE000C701B6010E94E13D6F8F78A389A39AA332
:101DF0001BA2A30192016DA57EA58FA598A90E94A3
:101E0000E23DEBA5FCA560837183828393832F8DD4
:101E100038A149A15AA16BA97CA98DA99EA90E94AC
:101E2000E23D2196AEADBFAD21976D937D938D932D
:101E30009C9313972B962CAD3DAD4EAD5FAD2B977C
:101E4000F80160817181828193810E94E23DD80115
:101E50006D937D938D939C931397BE016F5F7F4F1E
:101E60008DE992E00E94563D80911B0281116CC069
:101E7000BFEF2B1A3B0A08CF8D8584608D87809138
:101E80001A02823009F460C00E94B81B80911B02C4
:101E9000811163C0FFA1F071FF2E10921F022FA1CC
:101EA00023FB882780F90E94F4178091060180782F
:101EB00090910002891749F084E00E9430250E9429
:101EC000961980E00E94F41748C0B80183EF92E0B1
:101ED0000E94563D81E08093190282E00E944025D5
:101EE0000E94961980911B02811137C080911A02BD
:101EF0008111F6CF80911902813081F4FF2051F0D9
:101F00008CE0E1E0F2E0ADE0B2E001900D928A9564
:101F1000E1F707C085E00E94302503C081E080938F
:101F20001F021092190280E00E94F4170E94961975
:101F30000E94C42D0E94C61B0E9402190E94B73D38
:101F400080911F0281118CC08CE0E3EFF2E0ADE9DB
:101F5000B2E001900D928A95E1F78091CD028093D5
:101F60008C02882309F47FC00E94B81B80918C02E8
:101F700090911A02833041F49230D1F188E00E94AE
:101F800040250E94961934C081E08093850210920A
:101F90008902109288021092860210928B0210928F
:101FA0008E0210928D0210928F0284E6809321029D
:101FB0008093220280932302923081F069EA72E0DA
:101FC00080E0ECD48823D9F10E945F3B40E050E0F0
:101FD000BA0180E036D480E00E946F2F8BEC93E052
:101FE0000E94F41882E693E00E94F4180E94D8320E
:101FF00010928C022FC081E036C082E034C088E1AC
:1020000032C086E230C089E12EC084E02CC08BE172
:102010002AC085E228C084E126C08EE124C08FE179
:1020200022C086E120C080E21EC082E21CC083E2A2
:102030001AC084E218C080E116C08FE014C087E0A7
:1020400012C08CE0E3EFF2E0ADE9B2E001900D9256
:102050008A95E1F780E007C01E8E1FA20C947902DA
:102060000E94B92E7ACFC25BDF4F0FB6F894DEBF65
:102070000FBECDBFDF91CF911F910F91FF90EF90D9
:10208000DF90CF90BF90AF909F908F907F906F9098
:102090005F904F903F902F9008959093AB00809366
:1020A000AA00892B21F48091A0008F7D03C080912C
:1020B000A00080628093A0000895CF93DF93809169
:1020C0000004C091FF03C81710F0C81B03C08C1B8D
:1020D000C82FC09510920805109225011092240176
:1020E00080917300816080937300D091FF03809191
:1020F0000004D81720F09D2F981B892F02C08D1B3C
:102100008095C81740F08091210E811104C0809104
:10211000220E882341F0809173008E7F809373009C
:10212000DF91CF9108956091080570E080E090E024
:102130000E945D3F28E137E948E951E40E94BB3E37
:102140001816ACF68BEC93E00E94F41884E393E04D
:102150000E94F4180E94D83280E8DF91CF910C944D
:10216000402580915D02682F20915E02422F982FBA
:10217000917080FD94E0822F817020FD80E861FDE8
:10218000986041FD806462FD906142FD80629093A1
:102190002A0580932B0508951F920F920FB60F9278
:1021A00011248F939F9382B190912A059C71837E15
:1021B000892B82B915BC9F918F910F900FBE0F9004
:1021C0001F90189580916F008D7F80936F00809194
:1021D0008100887F81608093810010922C0580911E
:1021E0005F0290911A028F3F39F42091220E211143
:1021F00003C0903881F402C0943069F090E00097F9
:1022000041F0EFE9FFE03197F1F700C000000197DE
:10221000F6CF81E001C080E09091710292FF02C090
:1022200091E08927882311F02F9A08952F98089517
:102230001F920F920FB60F9211240BB60F922F938D
:102240003F934F935F936F937F938F939F93AF933E
:10225000BF93EF93FF9380912C0581111BC288B12E
:1022600090913C05907E8F71892B88B982B1837ED5
:1022700090913B05892B82B980913A0586BD82E019
:1022800085BD81E080932C05789480914E059091D6
:102290004F05892B09F0B7C08091EB0C90913C0D54
:1022A000981709F49BC08091EB0C28E0829FC00135
:1022B0001124FC01E451F34FF0934F05E0934E05D8
:1022C00022813381309389002093880020813181DD
:1022D00030934A0520934905E48120914B052E1740
:1022E00061F1E0934B0522E1E29FF0011124E15CF2
:1022F000F24FF0934D05E0934C0544855585668576
:102300007785769567955795479540933505509312
:102310003605609337057093380540933105509327
:102320003205609333057093340540932D05509327
:102330002E0560932F0570933005E0914C05F091C8
:102340004D05308920912B05232720933C05DC0186
:10235000A451B34F15969C9115974081518162818C
:102360007381092E04C076956795579547950A9411
:10237000D2F740933D0550933E0560933F0570931F
:1023800040054481558166817781092E04C0769588
:102390006795579547950A94D2F740934105509316
:1023A00042056093430570934405408551856285DD
:1023B000738504C076956795579547959A95D2F79A
:1023C0004093450550934605609347057093480533
:1023D00016968D919C91179760DE15C0F3DEE09103
:1023E0004C05F0914D058189882349F01092AB008E
:1023F0001092AA008091A0008F7D8093A00084E0BD
:102400000E94402547C1809119028130B9F4809122
:102410000601807890910002891781F010921902CC
:102420008CE0E1E0F2E0ADE0B2E001900D928A953F
:10243000E1F78091210E80648093210E10923B057C
:1024400040912D0550912E0560912F05709130051A
:1024500080913D0590913E05A0913F05B0914005CA
:10246000840F951FA61FB71F80932D0590932E05EF
:10247000A0932F05B0933005E0914C05F0914D05E8
:102480004485558566857785481759076A077B0710
:1024900068F524E020933B0544855585668577855E
:1024A000841B950BA60BB70B80932D0590932E05DF
:1024B000A0932F05B093300520898091010290915F
:1024C0000202A0910302B091040227FF04C0019709
:1024D000A109B10903C00196A11DB11D809301029C
:1024E00090930202A0930302B0930402409131053D
:1024F000509132056091330570913405809141050A
:1025000090914205A0914305B0914405840F951F19
:10251000A61FB71F8093310590933205A093330512
:10252000B0933405448555856685778548175907E6
:102530006A077B0778F520913B05286020933B05CF
:102540004485558566857785841B950BA60BB70B4F
:102550008093310590933205A0933305B0933405F1
:1025600020898091050290910602A0910702B09106
:10257000080226FF04C00197A109B10903C0019612
:10258000A11DB11D8093050290930602A09307023E
:10259000B09308024091350550913605609137059A
:1025A000709138058091450590914605A0914705A9
:1025B000B0914805840F951FA61FB71F809335055E
:1025C00090933605A0933705B0933805448555851B
:1025D00066857785481759076A077B0778F5209144
:1025E0003B05206120933B054485558566857785AD
:1025F000841B950BA60BB70B80933505909336057E
:10260000A0933705B09338052089809109029091F5
:102610000A02A0910B02B0910C0225FF04C00197A1
:10262000A109B10903C00196A11DB11D8093090242
:1026300090930A02A0930B02B0930C0280911A02AD
:10264000843039F490913B05809120028923809356
:102650003B058091490590914A05019790934A0561
:1026600080934905892B69F410924F0510924E050D
:102670008091EB0C8F5F8093EB0C8A3011F41092F9
:10268000EB0C90913B0580912A05892780933B05AF
:1026900010922C05FF91EF91BF91AF919F918F9177
:1026A0007F916F915F914F913F912F910F900BBE52
:1026B0000F900FBE0F901F9018958091710282FFAE
:1026C00002C02F9A01C02F9880912A0580933B0564
:1026D00080915C02880F8450819580933A058091A7
:1026E0006F00826080936F0008954F925F926F92A7
:1026F0007F928F929F92AF92BF92CF92DF92EF9292
:10270000FF926B017C0180906D0290906E02A09010
:102710006F02B09070024090690250906A0260901F
:102720006B0270906C02A3019201C501B4010E947A
:10273000BE4087FF19C06091230270E080E090E006
:102740000E945D3F2AE037ED43E25CE30E94F940DE
:10275000A70196010E94F9406B017C01A30192013F
:102760000E94BE4087FD0BC0409228025092290271
:1027700060922A0270922B0280E094E04AC0A50188
:102780009401C701B6010E94BB3E1816FCF020E080
:1027900030E0A901C701B6010E94BB3E81110BC008
:1027A000109228021092290210922A0210922B02F3
:1027B00080E090E02EC08092280290922902A092A0
:1027C0002A02B0922B0281E090E023C0C09228023E
:1027D000D0922902E0922A02F0922B02A5019401E4
:1027E000C701B6010E94E13D2091090530910A051B
:1027F00040910B0550910C050E94F9400E94983FB2
:1028000020E030E040E85FE30E94E23D0E942F3F7D
:10281000CB01FF90EF90DF90CF90BF90AF909F9053
:102820008F907F906F905F904F900895E0EAF0E076
:1028300080818F7D8083E2E0F1E08081877F8083EB
:10284000089590911B02911125C081110AC0109228
:1028500028021092290210922A0210922B02E6DF1F
:1028600017C0803111F4739801C0739A909171026E
:1028700091FF05C0803219F440E050E0BA01CB016D
:10288000BA0133DF0ADC8091020188608093020183
:10289000109225020895E1E0F1E08081806180835B
:1028A00083E08093A0008AE18093A10080E094E01F
:1028B0009093A9008093A8008081886080836B9AA0
:1028C00020916D0230916E0240916F025091700222
:1028D0006091690270916A0280916B0290916C0222
:1028E0000E94E13D9B01AC0160E070EC8FE794E455
:1028F0000E94C23E6093090570930A0580930B0500
:1029000090930C0593CF80918E02811104C0809129
:102910008D02882389F080911A02811101C0CDCBEC
:1029200084FF04C090911C0290FDF9CF803421F403
:1029300080911C0282FDF3CF08951F920F920FB673
:102940000F9211248F93809108058F5F8093080563
:102950008F910F900FBE0F901F9018956BE080E045
:1029600090E00E94BF2E49E550E06CE272E081E009
:1029700090E00C94E12E0F931F93CF93C82F8B01FF
:10298000F7D62DE0C29FC00111244CE050E0B80101
:102990009E5FCF911F910F910C94E12E1F93CF93C7
:1029A000DF93182FEB018DE0189FB00111247E5F9B
:1029B0004CE050E0CE010E94242F892B51F48CE092
:1029C000FE0111928A95E9F7BE01812FD4DF80E0E4
:1029D00001C081E0DF91CF911F910895EF92FF92A6
:1029E0000F931F93CF93DF93CDB7DEB72C970FB61E
:1029F000F894DEBF0FBECDBF182F80FF03C18AE061
:102A000080935C028FEF80935F0284E080935D028D
:102A100081E080935E0283E0809360024AE057ED9C
:102A200063E27CE34093610250936202609363022D
:102A3000709364024FE652E163E07BE340936502EA
:102A400050936602609367027093680240E050E51D
:102A500063EC76E44093690250936A0260936B02E0
:102A600070936C0210926D0210926E0210926F02BF
:102A7000109270028093720280E090E0A6E1B4E4CC
:102A80008093730290937402A0937502B0937602C0
:102A900080E090E8ABE3B5E480937702909378020E
:102AA000A0937902B0937A028AEF90E090937C022F
:102AB00080937B0280E090E0A0E7B1E480937D0208
:102AC00090937E02A0937F02B093800288E7809368
:102AD000710283E998E9A2E6B2E480932C02909314
:102AE0002D02A0932E02B0932F0282E09BEAA2E671
:102AF000B2E48093300290933102A0933202B093FB
:102B0000330288E595E5A5E8B4E480933402909318
:102B10003502A0933602B093370280E090E0AAEF2E
:102B2000B5E48093380290933902A0933A02B093AF
:102B30003B0280E090E8ABEBB5E480933C029093DD
:102B40003D02A0933E02B0933F0280E090E8ABE3E9
:102B5000B4E48093400290934102A0934202B09368
:102B6000430280E090E0AAEFB3E4809344029093A4
:102B70004502A0934602B093470280E090E0A8E4AB
:102B8000B3E48093480290934902A0934A02B09321
:102B90004B0280934C0290934D02A0934E02B0934F
:102BA0004F0280E090E8A2EAB4EC80935002909348
:102BB0005102A0935202B093530280E090E6ACE140
:102BC000B5EC8093540290935502A0935602B093B3
:102BD000570280E090E0A6E1B3EC80935802909316
:102BE0005902A0935A02B0935B028FE892ECA5EFD2
:102BF000BCE38093810290938202A0938302B093FE
:102C00008402ACDE11FF0FC0CE0101967C018CE086
:102C1000F70111928A95E9F700E0B701802FABDE4A
:102C20000F5F0830D1F712FF14C060E080E093E03E
:102C30000E94BF2E60E081E093E00E94BF2E60E022
:102C400081E094E00E94BF2E60E082E094E00E9468
:102C5000BF2E13FF0AC060E08EEA93E00E94BF2EF1
:102C600060E08FEA93E00E94BF2E2C960FB6F89496
:102C7000DEBF0FBECDBFDF91CF911F910F91FF90AF
:102C8000EF9008951F920F920FB60F9211240BB67A
:102C90000F928F939F93EF93FF9380910205E82FFC
:102CA000F0E0EE5FFB4F90819093C6008F5F8093C2
:102CB000020590910104891305C08091C1008F7DA8
:102CC0008093C100FF91EF919F918F910F900BBE68
:102CD0000F900FBE0F901F901895E091010491E0A6
:102CE0009E0F20910205921305C02091210E24FF12
:102CF000F8CF0BC0F0E0EE5FFB4F808390930104B0
:102D00008091C10080628093C1000895CF93C82F45
:102D100081ED93E069D28C2F44D2CF910C949C31F9
:102D20001F920F920FB60F9211240BB60F922F9392
:102D30003F934F935F936F937F938F939F93AF9343
:102D4000BF93CF93EF93FF93C091C6008091070587
:102D50008130C1F480ED8C0F8A3008F49CC08FEB79
:102D60008C0F863010F489EC05C08FE98C0F86300B
:102D700018F489EA8C0F8FC010920705109206058F
:102D800087E2C4DFC632E1F030F4C83161F0C1320D
:102D9000B1F588E00CC0CF3569F0CE3739F0CF33CC
:102DA00071F581E004C00E949C30ACC082E00E94BA
:102DB0004025A8C081E08093070510920605A2C0B7
:102DC0000E94882F10929B0010929A0010929D00F2
:102DD00010929C0010929900109298000E94882FE7
:102DE0008FEF90E090939B0080939A0090939D00CA
:102DF00080939C00909399008093980083C0C7FFB4
:102E00003BC08C2F90E0FC01E458F109EE31F10554
:102E100008F078C08827E654FF4F8F4F0C94444247
:102E200080E2C5CF80911A0285FF6CC080E4BFCFDD
:102E300081E00DC082E00BC084E009C088E007C0DB
:102E400080E105C080E203C080E401C080E80E9408
:102E5000272558C081E00DC082E00BC084E009C086
:102E600088E007C080E105C080E203C080E401C0C3
:102E700080E80E941E2546C0E091FF0381E08E0F8E
:102E8000909100048917F1F1F0E0E150FD4FC0830B
:102E90008093FF0337C09091060590FD09C0E92F8C
:102EA000E695F0E0ED5FFA4F8295807F80830AC05F
:102EB000A92FB0E01197B595A795AD5FBA4FCC910A
:102EC0008C0F8C939F5F909306059630D8F01092EC
:102ED0000705109206050E94882F8091030590E057
:102EE00090939900809398008091040590E09093CE
:102EF0009B0080939A008091050590E090939D003F
:102F000080939C00FF91EF91CF91BF91AF919F91E2
:102F10008F917F916F915F914F913F912F910F9082
:102F20000BBE0F900FBE0F901F9018958F929F921F
:102F3000AF92BF92EF92FF921F93CF93DF93CDB7E3
:102F4000DEB72A970FB6F894DEBF0FBECDBF61156E
:102F500071058105910589F480E32A960FB6F894EE
:102F6000DEBF0FBECDBFDF91CF911F91FF90EF90DD
:102F7000BF90AF909F908F90B0CE20E04AE0842E1B
:102F8000912CA12CB12C11E0120FEE24E394F12C22
:102F9000EC0EFD1EE20EF11CA50194010E940642FA
:102FA000F7016083B901CA01212F611571058105FF
:102FB000910549F7112341F0FE01E10FF11D8081D8
:102FC000805D8BDE1150F6CF2A960FB6F894DEBFE7
:102FD0000FBECDBFDF91CF911F91FF90EF90BF90BB
:102FE000AF909F908F90089510920002909171027F
:102FF00097FD03C090E890930002882329F0809108
:10300000000280588093000208958F929F92AF92A1
:10301000BF92CF92DF92EF92FF920F931F93CF93C5
:10302000DF93CDB7DEB72D970FB6F894DEBF0FBE96
:10303000CDBF6B017C01042F20E030E0A9010E948C
:10304000BB3E87FF06C08DE248DEF7FAF094F7F842
:10305000F094102F123060F020E030E048EC52E4A1
:10306000C701B6010E94F9406B017C011250F2CFFA
:1030700000FF0AC020E030E040E251E4C701B601A1
:103080000E94F9406B017C0120E030E040E05FE30A
:10309000C701B6010E94E23D0E942A3F10E03AE0DB
:1030A000832E912CA12CB12C611571058105910500
:1030B00091F0EE24E394F12CEC0EFD1EE10EF11CD8
:1030C000A50194010E940642605DF7016083B90189
:1030D000CA011F5FE9CF80E3101748F4E1E0F0E098
:1030E000EC0FFD1FE10FF11D80831F5FF5CF101363
:1030F00011C0FE01E10FF11D80E381831F5F0AC053
:10310000101302C08EE2E9DDFE01E10FF11D8081A6
:10311000E4DD11501111F4CF2D960FB6F894DEBFF7
:103120000FBECDBFDF91CF911F910F91FF90EF9018
:10313000DF90CF90BF90AF909F908F900895209197
:10314000710220FF08C02BE832E441E25DE30E94F7
:10315000F94041E001C040E058CF2091710220FFCA
:1031600008C02BE832E441E25DE30E94F94044E00C
:1031700001C043E04ACFCF92DF92EF92FF9297FFD8
:103180000BC06B017C018DE2A8DD66277727CB01A0
:103190006C197D098E099F09FF90EF90DF90CF9009
:1031A000C5CECF93DF93843630F06AE00E94E641CB
:1031B000C0E3C90F03C0C0E08A3030F06AE00E946B
:1031C000E641D0E3D90F01C0D0E0805D86DDDD238C
:1031D00011F08D2F82DDCC2321F08C2FDF91CF9148
:1031E0007CCDDF91CF910895CF93DF93FC01849143
:1031F000EF012196882319F070DDFE01F8CFDF91F1
:10320000CF910895E1E0F2E0AEE0B5E04191519157
:10321000619171914D935D936D937D9382E0ED305B
:10322000F807A1F70895BF92CF92DF92EF92FF9235
:103230000F931F93CF93DF937C01FC0106A517A585
:10324000D0A9C1A9818980FF18C06091220270E0D5
:1032500080E090E00E945D3F2AE037ED43E25CE3CE
:103260000E94F9409B01AC01B8018D2F9C2F0E9458
:10327000F9408B01D82FC92F2DC082FD17C0609156
:10328000210270E080E090E00E945D3F2AE037ED8F
:1032900043E25CE30E94F9409B01AC01B8018D2F31
:1032A0009C2F0E94F9408B01D82FC92FF701B2A49F
:1032B000C3A4D4A4F5A42B2D3C2D4D2D5F2DB80116
:1032C0008D2F9C2F0E94BE40181624F40B2D1C2D10
:1032D000DD2DCF2D20E030E040E85FE3B8018D2FF9
:1032E0009C2F0E94BE40181624F000E010E0D0E8A9
:1032F000CFE3B8018D2F9C2FDF91CF911F910F91BC
:10330000FF90EF90DF90CF90BF900895809151058E
:103310009091EA0C981739F026E3829FC00111249E
:103320008E5A9A4F089580E090E008952F923F9230
:103330004F925F926F927F928F929F92AF92BF92C5
:10334000CF92DF92EF92FF920F931F93CF93DF9371
:10335000CDB7DEB7A7970FB6F894DEBF0FBECDBFCF
:103360003CD680911C02882309F4E2C1CE0101966B
:103370001C018DE0D1011D928A95E9F786E08D87C9
:10338000C5DF009771F400918E0280918D02082BA9
:103390008090900290909102A0909202B09093023F
:1033A00006C0FC01018982A893A8A4A8B5A88091B1
:1033B000710281FF03C080E20E941E25C12CD12C26
:1033C00090ECE92E90E4F92E102F1073F02FF07F7F
:1033D000FEA300740FA380911C02882309F4A8C1E6
:1033E00090911B029111A4C180FF9FC190911A027C
:1033F000292F207C09F453C182FDA6C0109224021B
:1034000061E072E0CE010E960E94492580911C0277
:1034100081FD21C08CE0FE013E96DE015A960190AE
:103420000D928A95E1F72AA13BA14CA15DA1C701AC
:10343000B6010E94E23D6B017C0120E030E048E9EA
:1034400051EC0E94BB3E87FD06C0C12CD12C88E9FF
:10345000E82E81ECF82E0091710204FF66C04E88C0
:103460005F88688C798C20E030E048E951ECC3013A
:10347000B2010E94BB3E87FF58C001FD56C080913B
:103480002702813009F051C0A7019601C301B201A2
:103490000E94BB3E87FF19C0CE8ADF8AE88EF98E74
:1034A00080E090E0A8E4B3E489839A83AB83BC8393
:1034B0008D859EA1892B8D878D829E82AF82B88655
:1034C000B101CE010E960E94BD30A6E0AD871D82EF
:1034D0001E821F82188640E050E0BA0180E0B1D918
:1034E00080E00E946F2F20E030E048E951EC6E89C7
:1034F0007F89888D998D0E94BB3E87FF1EC080E02A
:1035000090E0A8E9B1EC8E8B9F8BA88FB98F80E0FB
:1035100090E0AAE7B4E489839A83AB83BC83B101CA
:10352000CE010E960E94BD3008C040E050E0BA01C6
:1035300080E087D980E00E946F2F80911C028D7FF0
:10354000846080931C02F1C09038C1F48BEC93E04E
:103550004BDE84E393E048DE0E94D83240E050E046
:10356000BA0180E06ED980E00E946F2F0E94E210C5
:1035700080911B028111DCC030D5FACF903449F420
:103580000E949C25811105C080911C028F7D809333
:103590001C0280911C0283FFC8C08091710282715D
:1035A000803109F5809127028130E9F420E030E094
:1035B00048E951EC6E897F89888D998D0E94BB3EC8
:1035C00018168CF0CE8ADF8AE88EF98E80E090E0C3
:1035D000AAE7B4E489839A83AB83BC83B101CE01AB
:1035E0000E960E94BD3080918E028823C9F0809192
:1035F0001C0281FD15C08091710281FF06C080917F
:103600001E02886080931E020BC0B501A401812FA9
:1036100018D941E060E070E080E890E40E946D30ED
:1036200080918D02882371F080911C0281FD0AC077
:103630008FA10E946F2F41E060E070E080E89FE37F
:103640000E946D308091710282718031E9F4809125
:1036500027028130C9F480911C0281FD15C080E0F1
:1036600090E0A8E4B3E489839A83AB83BC838D851F
:103670009EA1892B8D878D829E82AF82B886B101F3
:10368000CE014A960E94BD3080911C0281FD4DC042
:10369000806180931C0282E00E94402546C0809198
:1036A00024028823A9F181FF0DC080918E02882316
:1036B00061F140E050E0BA0180E0C3D8A1E0A093FE
:1036C000240233C08C7089F180918E028823B1F07E
:1036D0008BEC93E089DD8DE393E086DD0E94D832A8
:1036E0008091710281FF06C080911E0288608093E4
:1036F0001E0204C0B501A401812FA3D88091240229
:1037000083FF03C082E00E944025109224020DC076
:1037100080911E0283FF09C0B501A401812F91D8B9
:1037200080911E02877F80931E02EDD856D453CE1F
:10373000A7960FB6F894DEBF0FBECDBFDF91CF9135
:103740001F910F91FF90EF90DF90CF90BF90AF90BF
:103750009F908F907F906F905F904F903F902F90B1
:103760000895D4DD892B19F082E00C94402508954A
:10377000F8DFDCDD80911B02811107C0C7DD892BDA
:10378000C1F780911A028830A1F308958CE1EEE030
:10379000F5E0DF011D928A95E9F71092510510922C
:1037A000EA0C81E080930D051092500508952F9248
:1037B0003F924F925F926F927F928F929F92AF92C1
:1037C000BF92CF92DF92EF92FF920F931F93CF930E
:1037D000DF93C091EA0CC11101C0C4E2C150D09185
:1037E0005005DC1709F41DC1EC2EF12C26E3C29F15
:1037F000800111240E5A1A4FF801A28CB38CC48C8C
:10380000D58C668D778D80A191A19B01AC010E9422
:10381000E23DF80122A133A144A155A10E94F94043
:103820004B018C019B01AC01B501C6010E94BB3E5E
:1038300087FD02C05401680186E38E9DF0018F9DD3
:10384000F00D1124EE5AFA4FC501D601868B978BE5
:10385000A08FB18FC11101C0C4E2C150DC1761F06B
:1038600026E32E9DC0012F9D900D11249C012E5A00
:103870003A4F7901D6E333C080915105D81360C027
:103880000E94A02D5DC0AC2EB12CDA9DC001DB9D45
:10389000900D1124FC01EE5AFA4F6F01C11101C0C5
:1038A000C4E2C150809151058C1302C00E94A02D2A
:1038B000DA9D8001DB9D100D11240E5A1A4FF8017C
:1038C000828C938CA48CB58CA50194016689778930
:1038D000808D918D0E94BB3E811106C07601809142
:1038E0005005C813D0CF2CC0F801668D778D80A10C
:1038F00091A19B01AC010E94E23DF80122A133A1FC
:1039000044A155A10E94F940F70126893789408DCD
:10391000518D0E94E23D2B013C019B01AC01C50190
:10392000B4010E94BE40F80118162CF4468A578A4A
:10393000608E718ED3CF868A978AA08EB18ECECFBD
:10394000D0915005F6E3DF9F800111240E5A1A4FE3
:10395000C1E0CD0FC43209F4C0E02090EA0C86E348
:10396000382EC21509F45BC0CC2ED12C3C9CC00172
:103970003D9C900D11249C012E5A3A4F7901F8017B
:1039800046885788608C718CF90186889788A08C4E
:10399000B18CA5019401C301B2010E94BB3E87FF17
:1039A00024C0F801668D778D80A191A19B01AC01A7
:1039B0000E94E23DF80122A133A144A155A10E9439
:1039C000F940A30192010E94E23D2B013C019B01C1
:1039D000AC01C501B4010E94BE40181634F4F701D1
:1039E000468A578A608E718EDC2F3C9CF0013D9C8C
:1039F000F00D1124EE5AFA4F228D338D448D558DE2
:103A000066897789808D918D0E94BB3E811101C0AE
:103A1000DC2FCF5FC43209F4C0E08701A2CFD0937E
:103A20005005DF91CF911F910F91FF90EF90DF90A4
:103A3000CF90BF90AF909F908F907F906F905F904E
:103A40004F903F902F9008952F923F924F925F9208
:103A50006F927F928F929F92AF92BF92CF92DF929E
:103A6000EF92FF920F931F93CF93DF93CDB7DEB703
:103A7000C454D1090FB6F894DEBF0FBECDBF7B0191
:103A80003091EA0C232E312C26E3229DA001239DA8
:103A9000500D1124BA016E5A7A4F7EAB6DABFB010B
:103AA00011922A95E9F7F7012485FB01218BF70193
:103AB0004481558166817781EDA9FEA942AB53AB64
:103AC00064AB75ABF7014085518562857385EDA9BF
:103AD000FEA9428B538B648B758B21FF40C02CE079
:103AE000E1E0F2E0DE01599601900D922A95E1F7AE
:103AF0008BAB9CAB6CE272E078AF6FABCE010D96F6
:103B000023969FAF8EAF2397FE0179962196FFAF44
:103B1000EEAF2197F6E33F9FC00111249C012E5A7E
:103B20003A4F3EAF2DAFBE016B5D7F4F7CAF6BAFA9
:103B30007AAF69AF10E086E3829D9001839D300DDE
:103B40001124C9018E5A9A4FFC013C962596FFAF6D
:103B5000EEAF25976C01F0E1CF0ED11C3CC02CE0FC
:103B6000EEE0F5E0BFCFEDADFEAD21933193419393
:103B70005193FEAFEDAF2596EEADFFAD259780805A
:103B80009180A280B38082169306A406B50610F435
:103B900049015A012596EEADFFAD259780829182AD
:103BA000A282B3820E945D3FA30192010E94C23EA5
:103BB000E9ADFAAD6193719381939193FAAFE9AF57
:103BC00020E030E0A9010E94BB3E87FD42C01F5F9C
:103BD000133009F44CC0EBA9FCA96191719181915A
:103BE0009191FCABEBABEFA9F8AD41905190619096
:103BF0007190F8AFEFABA30192010E94F9400E94CF
:103C0000C9402396EEADFFAD2397619371938193E5
:103C100091932396FFAFEEAF23972196EEADFFADC4
:103C2000219781909190A190B1902196FFAFEEAF36
:103C30002197681979098A099B099B01AC0197FFB3
:103C400092CF22273327A901261B370B480B590B8C
:103C50008ACF112321F0113021F080E203C080E8E7
:103C600001C080E4F6019081892B8083B0CF892840
:103C70008A288B2809F494C1CE0185960E940630CB
:103C80004B015C0186E3829D8001839D100D112410
:103C90000E5A1A4FF80182A293A2A4A2B5A2BE01A5
:103CA0006B5D7F4F84E492E00E94B02FF801668F35
:103CB000778F80A391A3BE016B5D7F4F88E392E075
:103CC0000E94B02FF80162A773A784A795A7D18897
:103CD000D0FC12C0F7012081318142815381D3FC95
:103CE00006C0F80126A737A740AB51AB09C0C501F4
:103CF000B4010E94F940F80166A777A780AB91ABA9
:103D00009091EA0C80915105981711F0D1FE0DC0E9
:103D100086E3829DF001839DF00D1124EE5AFA4F47
:103D2000168A178A108E118E54C02AE135E03CABFA
:103D30002BAB8E010F5F1F4FBE016F5C7F4F7AABC5
:103D400069ABC12CD12C76010FAB19AFEBA9FCA943
:103D500081909190A190B190FCABEBABEBADFCAD41
:103D60004190519061907190FCAFEBAFA301920133
:103D7000C501B4010E94F9409B01AC01C701B60125
:103D80000E94E13D6B017C01A5019401C301B201D8
:103D90000E94E13DF80161937193819391938F01AA
:103DA00029A93AA96BAD7CAD2617370779F62FEE16
:103DB0003FEF4FE75FE3C701B6010E94BE40181610
:103DC0006CF486E3829DF001839DF00D1124EE5A80
:103DD000FA4F16A217A210A611A671C02FEE3FEF40
:103DE0004FE75FEBC701B6010E94BB3E87FF11C0E2
:103DF00086E3829DF001839DF00D1124EE5AFA4F67
:103E000089E996E7A6E9BEE786A397A3A0A7B1A78D
:103E100056C08FA999AD0E9406306FA979AD84E490
:103E200092E00E94B02F4B015C01A701960160E077
:103E300070E080E89FE30E94E13D20E030E040E058
:103E40005FE30E94F9400E9486416B017C01209152
:103E50006102309162024091630250916402C50197
:103E6000B4010E94F940A70196010E94F9404B015C
:103E70005C01A701960160E070E080E89FE30E948A
:103E8000E13D9B01AC01C501B4010E94C23E6B0142
:103E90007C0120E030E0A9010E94BB3E87FF03C007
:103EA000C12CD12C760186E3829DF001839DF00D1B
:103EB0001124EE5AFA4FC6A2D7A2E0A6F1A686E3D5
:103EC000829D8001839D100D11240E5A1A4FF80116
:103ED000818981FD67C08DA99EA9A5D96B017C014F
:103EE0008090260590902705A0902805B090290580
:103EF000A50194010E94BE4018162CF4A50194015E
:103F0000C501B40104C0A7019601C701B6010E9412
:103F1000F940F801628F738F848F958F86E3829DBD
:103F20008001839D100D11240E5A1A4FF80186A0AE
:103F300097A0A0A4B1A4A5019401628D738D848D76
:103F4000958D0E94BE4018162CF4F801828E938E37
:103F5000A48EB58EC0922605D0922705E092280542
:103F6000F09229058CE0FE01B596AAE1B5E001903A
:103F70000D928A95E1F78CE0FE013D96AEE0B5E04A
:103F800001900D928A95E1F780910D058093EA0CDE
:103F90008F5F843209F480E080930D0508DC02C055
:103FA00080E001C081E0CC5BDF4F0FB6F894DEBF4C
:103FB0000FBECDBFDF91CF911F910F91FF90EF907A
:103FC000DF90CF90BF90AF909F908F907F906F9039
:103FD0005F904F903F902F9008953F924F925F9245
:103FE0006F927F928F929F92AF92BF92CF92DF9209
:103FF000EF92FF920F931F93CF93DF93CDB7DEB76E
:10400000A4970FB6F894DEBF0FBECDBF1091220E5D
:10401000112369F181E080931A0288ED93E0E4D8DE
:10402000812FBFD80E949C3185EF91E0019739F034
:10403000EFE9FFE03197F1F700C00000F7CF115032
:10404000123030F08FB7F8941092220E8FBF0FC04D
:104050008BEC93E0C9D889EB93E0C6D80E94D832A4
:1040600080E104D58091210E84FFFCCFEBCF10912D
:10407000210E112309F45DC314FF04C081E0809375
:104080001B0266C410FF54C28CE0E1E0F2E0DE01E6
:10409000599601900D928A95E1F7BE01675E7F4FB8
:1040A000CE010D96F6D48CE30E946D1680911A0213
:1040B0008830E1F058F4813091F1A8F0823091F12C
:1040C000843009F040C08DE294E03CC0803221F1A0
:1040D00018F4803171F037C0803439F1803899F5A7
:1040E00085E194E02FC080E494E02CC08CE394E060
:1040F00029C080911C0287FD0FC086E394E074D82C
:1041000080911C0280FF06C080E319C082FF16C0A8
:1041100085FFFACF81E313C082E394E013C087E206
:1041200094E010C081E294E00DC08BE194E05CD893
:1041300080911C0283FFEACF83E301C082E30E94E7
:104140006D1601C051D880916002F82FF170BF2E1A
:1041500080FF07C080912602882319F08EE094E04A
:1041600053C04090C1025090C2026090C302709050
:10417000C40249EA842E42E0942E9E012F5F3F4FF5
:104180007901CE010D966C0100E0F401619171910D
:10419000819191914F0120853185428553850E94FF
:1041A000E23DF7016083718382839383023061F47F
:1041B000A30192010E94E23DF70160837183828333
:1041C0009383BB2019F0CACFB11011C0F701208131
:1041D000318142815381F6016081718182819381B5
:1041E0000E94E13DF60160837183828393830F5FB8
:1041F000F4E0EF0EF11C24E0C20ED11C033029F6CE
:10420000B110ACCF87E094E00E94F418CE010D9677
:104210000E9483318091600281FF21C082E094E09E
:104220000E94F4189091EA0C80915105981710F0B3
:104230008D5D01C08150891B0E94D1188CE20E94C3
:104240006D16809100049091FF03981720F0981B41
:10425000892F809502C08150891B0E94D11856D8A1
:10426000009791F0FC01C288D388E488F588C114D6
:10427000D104E104F10441F08DEF93E00E94F418C1
:10428000C701B6010E94BB1888EF93E00E94F418A2
:1042900080911A028C7749F06091050E7091060E9C
:1042A0008091070E9091080E03C060E070E0CB0192
:1042B0000E949F188CE20E946D16609128027091F6
:1042C000290280912A0290912B0240E00E94051859
:1042D0000E940C2E082F19D4F82E809106018078A8
:1042E000B0900002B8268091090191E0F82FF87093
:1042F0009F2E83FD90E0809106018470C82E20914E
:10430000060181E0322F3071A32E24FD80E0799BDD
:1043100007C039B121E0363008F420E0E22E01C0B8
:10432000E12C7D9B07C039B121E0363008F420E054
:10433000D22E01C0D12C892B8B298C29802B8F293F
:104340008E2909F453C083EF93E00E94F418BB2038
:1043500019F080E50E946D16911003C080E70E945D
:104360006D16CC2019F087E40E946D16A11003C0D1
:1043700087E60E946D16EE2019F082E70E946D1606
:10438000DD2019F082E40E946D160023C9F000FFC1
:1043900003C088E70E946D1604FF03C088E50E94F1
:1043A0006D1601FF03C089E70E946D1605FF03C06B
:1043B00089E50E946D1602FF03C08AE50E946D1612
:1043C000FF20A1F0F0FE03C084E40E946D16F1FE10
:1043D00003C082E50E946D16F2FE03C088E40E94CD
:1043E0006D16F3FE03C083E50E946D168EEE93E01A
:1043F0000E94F418A0917800B091790020ED34E18A
:1044000042E050E00E944C4228EE3FE540E050E0A0
:104410000E942842CA01B9010E94BB18809126025D
:10442000882321F081508093260218C080911A02BF
:104430008C7711F08DE101C089E080932602809194
:104440002502811103C081E08093250288EE93E06C
:104450000E94F418CE0101960E94833180912502BA
:10446000882321F08150809325025BC080911A023D
:104470008C7711F083E101C089E08093250283EEFF
:1044800093E00E94F418809121020E94D1188CE2DE
:104490000E946D16809122020E94D1188CE20E9427
:1044A0006D16809123020E94D11880910201082F7D
:1044B000087083FF0BC08091A000082F007285FF59
:1044C00005C0739B02C002E001C001E080910201BF
:1044D000FF24F394982F907285FFF12C80910201B4
:1044E00086FF04C08F2D8260F82E04C0011102C027
:1044F0009923B9F08FED93E00E94F418002339F06E
:10450000013011F483E501C083E40E946D16F0FED2
:1045100003C086E40E946D16F1FE03C08DE40E9484
:104520006D168EE30E946D160E949C3181E09ED232
:10453000812F887E09F479C080911A02982F937098
:1045400009F063C08872A1F080911C02807C81F424
:104550000E94A02D82E080931E0280911A02803278
:1045600039F417FDF3C180911C02806880931C020E
:1045700080911A02811103C091E090931C0216FFF2
:1045800007C085FD05C090911C02906490931C02A9
:1045900013FF05C0807E19F480E180931A0215FF95
:1045A00034C08BEC93E00E94F41887E793E00E94FC
:1045B000F4180E94D83280911C0287FD21C090918E
:1045C0001A029034B1F483FF14C080911E0282FF5E
:1045D0000AC00E94A02D86E080931E0280911C02DA
:1045E0008E7F80931C0280911C02837E8260809368
:1045F0001C0280911A02803819F080E480931A021C
:1046000080911C02806280931C0217FF0CC0809175
:104610001A02813029F480911C02856080931C026B
:1046200080E880931A0288EE21D211FF42C0812FC8
:104630008876E9F580911A02803471F480911C0229
:1046400085FD0AC084FF03C010921A0205C082FFD4
:1046500003C0886080931C0280911A02882381F035
:1046600084FF25C090911C0290FF21C0803141F44D
:1046700080912402882321F088608093240217C04F
:1046800010921E020E948619892B69F080911C02EB
:1046900086FD09C010921C0288E080931A02CAD2DB
:1046A0000E945D1304C010921C0210921A0282E054
:1046B000DDD112FF3EC080911A02807D90911C02D4
:1046C0008823D1F080911D02811116C097FD14C07E
:1046D0000E94A02D809151058093500568D880914B
:1046E0001E0281FF05C090911C02916090931C02F4
:1046F000897F80931E021BC097FF09C010921E0283
:1047000045D80E94C42D0E94B92E0E9402198091A2
:104710001C0285FF08C08F77816080931C0280E4B3
:1047200080931A0204C010921C0210921A0284E0B4
:104730009DD19091230E992309F4ABC08FB7F894C3
:104740001092230E8FBF4091210290FD02C0842F52
:1047500001C084E691FD865F92FD8A5093FD8F5FD4
:1047600094FD8150893C08F088EC8A3008F48AE096
:104770003091220295FD02C0232F01C024E696FD50
:1047800022E397FD29E1481303C0231709F481C0F0
:10479000809321022093220210922502109151054C
:1047A0003090EA0C89E9D82E96E7E92E26E9F22E18
:1047B0000EE736E3432E131509F457C0812E912CD2
:1047C000489CC001499C900D1124FC01EE5AFA4FFF
:1047D0005F01CF010E941319562E672E782EC92E25
:1047E0002D2D3E2D4F2D502F0E94BE4018164CF4FB
:1047F0002D2D3E2D4F2D502F6D2D7E2D8F2D902F39
:1048000008C0252D362D472D5C2D652D762D872D45
:104810009C2D0E94F940F501628F738F848F958FD4
:10482000489CC001499C900D11249C012E5A3A4F7E
:104830007901F90186A097A0A0A4B1A4A5019401D3
:10484000628D738D848D958D0E94BE4018162CF458
:10485000F701828E938EA48EB58E1F5F143209F4F9
:1048600010E0D52C73010C2DA6CF8D2D9E2DAF2DD4
:10487000B02F8093260590932705A0932805B09329
:1048800029050E94A02D80915105809350050E941A
:10489000D71B9091240E992309F452C08FB7F89436
:1048A0001092240E8FBF2091230290FD02C0822F10
:1048B00001C084E691FD865F92FD8A5093FD8F5F73
:1048C00094FD8150893C08F088EC8A3008F48AE035
:1048D000281749F020911E02286020931E02809321
:1048E00023021092250280911A0295FF0DC080319B
:1048F00059F420912402211102C022E003C020FFBC
:1049000003C0246020932402292F207CC9F088232F
:1049100011F08871A9F010918D0297FF05C017FF63
:1049200002C01F7701C0106896FF05C016FF02C0C5
:104930001F7B01C01064812F0E946F2F10938D0286
:1049400080911A028C7F21F075D102C080E217CECF
:10495000A4960FB6F894DEBF0FBECDBFDF91CF9106
:104960001F910F91FF90EF90DF90CF90BF90AF908D
:104970009F908F907F906F905F904F903F900895A1
:10498000CF93DF93C6E2DEE08991882319F00E947D
:104990006D16FACFDF91CF910895CF93DF9321E089
:1049A00031E0482F429FC001439F900D1124EC013C
:1049B000DD5F40E051E0BE0186E29EE00E94242FD0
:1049C000892B69F41092260E0E94B81B40E051E03A
:1049D00066E27EE0CE010E94E12E80E001C081E02F
:1049E000DF91CF910895CF93DF93C0E08C2FD5DF77
:1049F00081110DC01092260E8EE30E946D16C0DF4D
:104A00008AE30E946D1687E00E94861611C080918D
:104A1000260E882369F00E943F02D82F8EE30E9461
:104A20006D16AEDF8AE30E946D168D2F0E947B31DA
:104A3000CF5FC230D9F6DF91CF9108959FB7F89438
:104A40002091240E822B8093240E9FBF08959FB740
:104A5000F8942091230E822B8093230E9FBF0895FC
:104A60009FB7F8948093220E9FBF08952FB7F894B4
:104A70009091210E809589238093210E2FBF089558
:104A80009FB7F8942091210E822B8093210E9FBF17
:104A900008958F929F92AF92BF92CF92DF92EF9242
:104AA000FF920F931F93CF93DF93EB012CE2E22E43
:104AB00022E0F22E8C016B018CE0C80ED11C6991B2
:104AC000799189919991F70181909190A190B190FC
:104AD0007F010E945D3FA50194010E94C23EF80142
:104AE00061937193819391938F01CC15DD0539F713
:104AF000DF91CF911F910F91FF90EF90DF90CF90BA
:104B0000BF90AF909F908F900895209106012A76D4
:104B100088E0282779F023FB882780F991E089270E
:104B2000922F907409F4826021FF846025FD03C0F8
:104B30008860089580E00895E8DF80FF04C08091D8
:104B40000B018F7B03C080910B01806480930B016C
:104B5000DCDF817008951F920F920FB60F9211241F
:104B60000BB60F922F933F934F935F936F937F9367
:104B70008F939F93AF93BF93EF93FF93C6DF8823E9
:104B800009F445C081FF03C00E949C3040C083FFF0
:104B900004C08091210E826038C082FF04C08091E1
:104BA000210E886032C080FF32C080919100846005
:104BB00080939100809191008D7F809391008091EE
:104BC0009100806180939100809190008260809339
:104BD0009000809190008E7F8093900080E090E81C
:104BE000909397008093960080E090E490939900D2
:104BF0008093980010929B0010929A0010929D0052
:104C000010929C008091210E80628093210EFF9172
:104C1000EF91BF91AF919F918F917F916F915F9134
:104C20004F913F912F910F900BBE0F900FBE0F90A1
:104C30001F9018952F923F924F925F926F927F92A2
:104C40008F929F92AF92BF92CF92DF92EF92FF929C
:104C50000F931F93CF93DF93CDB7DEB7E8970FB6CF
:104C6000F894DEBF0FBECDBF80911E0280FD4FC7FE
:104C70009091EB0C8091250E981709F448C780910C
:104C80001F0E9091200E892B09F027C310911E0250
:104C900012FF09C08091EA0C26E3289FC00111246D
:104CA0008E5A9A4F02C00E9486199093200E8093CC
:104CB0001F0E20901F0E3090200E2114310409F495
:104CC00026C70091E20D802F817000FF09C002FF0E
:104CD00004C00E7F0093E20DEDC01092E20DEAC019
:104CE0009091E10D9F5F993009F0892F8093E10D3C
:104CF000E82EF12C32E13E9DF0013F9DF00D112494
:104D0000E15CF24FF0933E0DE0933D0DD1015096E2
:104D10009C915097908BE2E18E9FC001112420E07E
:104D200030E04D915D916D917D91FC01E20FF31F9B
:104D3000E15CF24F689412F8440F551F661F771F0D
:104D40001694D1F740835183628373832C5F3F4F66
:104D50002C30310531F722E12E9DF0012F9DF00D11
:104D600011249F01215C324FF10184859585A68530
:104D7000B78543E0880F991FAA1FBB1F4A95D1F73B
:104D8000F90184879587A687B787D1011C966D9115
:104D90007D918D919C911F970E945B3F6093E70DE1
:104DA0007093E80D8093E90D9093EA0DF10122A133
:104DB00033A144A155A10E94C23E9B01AC01609366
:104DC000EB0D7093EC0D8093ED0D9093EE0D60E084
:104DD00070E080EA9FE30E94C23E6093EF0D709303
:104DE000F00D8093F10D9093F20D1092E30D10925F
:104DF000E40D1092E50D1092E60D11FD02C003FFC7
:104E00001FC060910D0E70910E0E80910F0E90914B
:104E1000100E6093050E7093060E8093070E90930C
:104E2000080E9B01AC010E94F940D10156966D938A
:104E30007D938D939C935997077F0093E20D0FC04C
:104E4000F10166897789808D918D0E9486416093FA
:104E5000050E7093060E8093070E9093080EF2E1F4
:104E6000FE9DC001FF9D900D11249C01215C324FDD
:104E70007901D90151961C928091710281FF1AC06B
:104E8000F101818985FF16C026A537A540A951A942
:104E900060E070E080E89FE30E94C23E6093190EDC
:104EA00070931A0E80931B0E90931C0EE1E0D701B5
:104EB0005196EC931092010E1092020E1092030E76
:104EC0001092040ED1015E962D913D914D915C9111
:104ED000919760E070E080E09FE30E94C23E4B014A
:104EE0005C01F10142A053A064A075A011FF4CC069
:104EF000F2E0F093000ED1015696CD90DD90ED904A
:104F0000FC905997A70196010E94F9409B01AC01C2
:104F1000C301B2010E94E13D4B015C0120E030E0A1
:104F2000A9010E94BB3E87FF1EC0F101668D778DEF
:104F300080A191A19B01AC010E94E23DA3019201DD
:104F40000E94F9409B01AC01C701B6010E94E13DFE
:104F50000E94864160930D0E70930E0E80930F0E8B
:104F60009093100EB7C18092010E9092020EA09203
:104F7000030EB092040E10920D0E10920E0E1092AF
:104F80000F0E1092100EA6C11092000E4092110E3C
:104F90005092120E6092130E7092140E12FF0CC0FB
:104FA00010920D0E10920E0E10920F0E1092100E07
:104FB000C12CD12C760124C0E0915105EF5FE43281
:104FC00009F4E0E08091EA0C8E1759F026E32E9F59
:104FD000F0011124EE5AFA4FC688D788E08CF18C84
:104FE00003C0C12CD12C7601C701B6010E948641B5
:104FF00060930D0E70930E0E80930F0E9093100E13
:10500000C1010E9413196D877E878F87988B9B0142
:10501000AC010E94F94069837A838B839C83D10120
:1050200056968D919D910D90BC91A02D89879A8760
:10503000AB87BC879C01AD0169817A818B819C81A2
:105040000E94BB3E87FF72C029813A814B815C81FF
:1050500069857A858B859C850E94E13DA501940137
:105060000E94F9409B01AC01C301B2010E94E13DE5
:105070006093110E7093120E8093130E9093140E82
:1050800020E030E0A9010E94BB3E18165CF1B2E0BE
:10509000B093000EF101668D778D80A191A19B01E7
:1050A000AC010E94E23DA30192010E94F9409B01E4
:1050B000AC01D10156966D917D918D919C9159973E
:1050C0000E94E13D0E94864160930D0E70930E0E8A
:1050D00080930F0E9093100E8091E20D8860809364
:1050E000E20DF8C0A701960169817A818B819C81CC
:1050F0000E94E13DA50194010E94F9406093150EC4
:105100007093160E8093170E9093180E2D853E8582
:105110004F8558892093090E30930A0E40930B0E49
:1051200050930C0E33E03093000ED4C0A7019601CB
:1051300069857A858B859C850E94E13DA501940156
:105140000E94F940A30192010E94E23D20E030E07C
:1051500040E05FE30E94F9406D837E838F839887F0
:1051600020E030E0A9010E94BE4018160CF09AC061
:105170002D813E814F815885C301B2010E94BE40FE
:1051800018160CF08BC0A701960169817A818B817A
:105190009C810E94E13DA50194010E94F9409B0180
:1051A000AC016093150E7093160E8093170E9093BA
:1051B000180E6D817E818F8198850E94BE401816E1
:1051C000CCF58D859E85AF85B8898093090E909327
:1051D0000A0EA0930B0EB0930C0E29853A854B85D1
:1051E0005C8569817A818B819C810E94BB3E8111A3
:1051F00004C091E09093000E6DC029853A854B85DF
:105200005C8569817A818B819C810E94E13DA50149
:1052100094010E94F9409B01AC01C301B2010E94BC
:10522000E13D6093110E7093120E8093130E9093D4
:10523000140E50C02D813E814F8158852093110E50
:105240003093120E4093130E5093140E2093150EAC
:105250003093160E4093170E5093180ED1015E96A0
:105260006D917D918D919C9191979B01AC010E94D4
:10527000E23D2D813E814F8158850E94F940A70172
:1052800096010E94E23D0E9486416093090E709350
:105290000A0E80930B0E90930C0E1CC0B2E0B093DC
:1052A000000E18C01092110E1092120E1092130ED2
:1052B0001092140E80910D0E90910E0EA0910F0E73
:1052C000B091100E8093090E90930A0EA0930B0ECE
:1052D000B0930C0E186010931E02E0913C0D48E054
:1052E000E49F900111243A8B298BF901E451F34F8B
:1052F0008091E10D848380911F0E9091200E98AFD4
:105300008FABDC019296BC91BF8FFC01F3A1F8A397
:10531000DC019496BC91B9A3FC01F5A1FAA32091FC
:10532000EF0D3091F00D4091F10D5091F20D6F8D18
:1053300078A18B2F9F2F0E94E13D6BA77CA78DA7A3
:105340009EA720E030E0A9010E94BB3E87FF04C079
:105350001BA61CA61DA61EA62091090E2B8B309104
:105360000A0E3C8B40910B0E4D8B50910C0E5E8BB8
:105370008091110E8F8B9091120E988FA091130E29
:10538000A98FB091140EBA8FE091050EE983F091C8
:10539000060EFD832091070E29873091080E3D8768
:1053A0004091150E4BA35091160E5CA38091170EE1
:1053B0008DA39091180E9EA3A091010EAFA3B09162
:1053C000020EB8A7E091030EE9A7F091040EFAA728
:1053D00020910D0E2FA730910E0E38AB40910F0E7D
:1053E00049AB5091100E5AAB3F8C08A129A01AA1CD
:1053F0008EE3C82E83ECD82E8EE2E82E89E3F82EB9
:10540000412C512C3201CB8EDC8EED8EFE8E8091A4
:10541000000E813009F4FBC0AFA9B8AD5E962D91A6
:105420003D914D915C919197813008F472C0833029
:1054300009F024C1C701B6010E94F9404B015C018B
:105440002B893C894D895E8969817D8189859D850E
:105450000E94E13D9B01AC01C501B4010E94BE4028
:1054600087FD2EC02F89388D498D5A8D6F8D78A17B
:1054700089A19AA10E94E13D9B01AC010E94E23DFD
:105480006B017C0129813D8149855D856B897C8922
:105490008D899E890E94E23D9B01AC01C701B60146
:1054A0000E94C23E6B017C01B1E0B093000EEB891B
:1054B000E983FC89FD832D8929873E893D8795C035
:1054C00020E030E040E05FE3C501B4010E94F94014
:1054D0009B01AC0169817D8189859D850E94E13DAB
:1054E000A70196010E94F9409B01AC01632D702F2A
:1054F000822D912F0E94E13D362E072F282E192F45
:10550000A501940169817D8189859D850E94E13D88
:1055100079C0C701B6010E94F9404B015C0120E04F
:1055200030E040E05FE30E94F94029813D814985F8
:105530005D850E94E23DA70196010E94F9409B0112
:10554000AC01632D702F822D912F0E94E13D362EEC
:10555000072F282E192F262F372F482F592F6F89C5
:10556000788D898D9A8D0E94BE4018160CF042C02D
:105570002F89388D498D5A8D6F8D78A189A19AA177
:105580000E94E13D9B01AC010E94E23D6B017C0168
:1055900029813D8149855D856B897C898D899E89BD
:1055A0000E94E23D9B01AC01C701B6010E94C23ED0
:1055B0006B017C012BA13CA14DA15EA16F89788D6F
:1055C000898D9A8D0E94BB3E811104C0B2E0B093D8
:1055D000000E03C0E1E0E093000EFB89F9832C8903
:1055E0002D833D8939874E894D873F88088D298CC9
:1055F0001A8DBEC0A501940169817D8189859D8533
:105600000E94E23D69837D8389879D87B1C02B8994
:105610003C894D895E89C701B6010E94F9409B0112
:10562000AC01632D702F822D912F0E94E13D5B0113
:105630004C019B01AC016BA17CA18DA19EA10E949C
:10564000BE4018160CF090C02BA13CA14DA15EA14C
:10565000632D702F822D912F0E94E13D2B893C8973
:105660004D895E890E94C23E6B017C0152E05093DD
:10567000000E3BA00CA12DA01EA17AC0C701B6014F
:105680000E94F9404B015C0129813D8149855D857E
:105690000E94BB3E87FF39C020E030E040E05FE37E
:1056A000C501B4010E94F9409B01AC0169817D8173
:1056B00089859D850E94E13DA70196010E94F940E0
:1056C0009B01AC01632D702F822D912F0E94E13D33
:1056D0006BAB7CAB8DAB9EAB2FA138A549A55AA572
:1056E0000E94BE4018168CF4A501940169817D8149
:1056F00089859D850E94E13D69837D8389879D879A
:105700003BA80CA92DA81EA933C02FA138A549A5D7
:105710005AA5632D702F822D912F0E94E13D9B0190
:10572000AC010E94E23D6B017C0129813D814985EC
:105730005D856FA578A989A99AA90E94E23D9B0180
:10574000AC01C701B6010E94C23E6B017C01BFA53E
:10575000B983E8A9ED83F9A9F9872AA92D873FA084
:1057600008A529A41AA504C03A2C0B2D282C192D04
:10577000A7019601C301B2010E94E23D2B013C0149
:105780002B8D3C8D4D8D5E8D0E94BB3E87FF07C0EB
:10579000A30192016B8D7C8D8D8D9E8D1CC02BA5E0
:1057A0003CA54DA55EA5632D702F822D912F0E94E3
:1057B000BE40181604F52EE333EC4EE259E36B8D30
:1057C0007C8D8D8D9E8D0E94E23D6B8F7C8F8D8FA9
:1057D0009E8FA30192010E94E13D6B017C01232D6C
:1057E000302F422D512F6FA178A589A59AA50E942F
:1057F000BB3E87FD0CCE89819D81A985BD858093A7
:10580000050E9093060EA093070EB093080EE0913C
:105810003D0DF0913E0D9189911104C080911E02C1
:1058200083FF43C0AFA9B8AD51968C915197807357
:1058300059F1D296CD90DD90ED90FC90D5979923BB
:10584000D1F02091190E30911A0E40911B0E5091FB
:105850001C0E6091050E7091060E8091070E9091BE
:10586000080E0E94F9409B01AC01C701B6010E94DD
:10587000F9406B017C01C701B6010E94751390933A
:105880001E0E80931D0E0CC0109228021092290249
:1058900010922A0210922B0210921E0E10921D0ED0
:1058A00080911E02877F80931E0280911D0E909131
:1058B0001E0EE989FA89E451F34FFA87E987978345
:1058C00086832091EB0D3091EC0D4091ED0D5091C0
:1058D000EE0D632D702F822D912F0E94F940698368
:1058E0007A838B839C830E94A83E6B017C0160912C
:1058F000E70D7091E80D8091E90D9091EA0D0E94FD
:10590000A83E4B015C01A70196010E94E13D0E9467
:105910002F3F6D837E838F839887ED81FE81A985DC
:10592000BA85ED93FC93EF2B41F480911E0281FF29
:1059300004C0816080931E02C3C02091E30D3091AA
:10594000E40D4091E50D5091E60DC301B2010E94B6
:10595000E23D2B013C0129813A814B815C81C501EB
:10596000B4010E94E13D9B01AC01C301B2010E9460
:10597000C23E4B015C0120EC31EE44E65EE40E9445
:10598000F9400E94A83E0E942F3FE989FA89E4511C
:10599000F34F603D37E073078105910510F41582E0
:1059A00030C0603A4FE074078105910518F451E06A
:1059B00055830BC06034AFE17A078105910518F477
:1059C000B2E0B58302C023E02583E989FA89E45176
:1059D000F34F2581022E04C096958795779567959C
:1059E0000A94D2F74D815E8102C0440F551F2A955B
:1059F000E2F7518340836115710551E085079105F8
:105A000038F4E989FA89E451F34F7383628304C05F
:105A10008FEF9FEF938382838091250E80933C0DBF
:105A20008F5F8A3019F08093250E02C01092250EE8
:105A3000E0911F0EF091200E832D902FA22DB12FFB
:105A400082A393A3A4A3B5A3C092E70DD092E80DBF
:105A5000E092E90DF092EA0D29813A814B815C8157
:105A6000C701B6010E94E13DA50194010E94F940E1
:105A70006093E30D7093E40D8093E50D9093E60D34
:105A80002091010E3091020E4091030E5091040EB0
:105A9000632D702F822D912F0E94BB3E8111E8C88B
:105AA00020E030E0A901632D702F822D912F0E94FC
:105AB000BE4090911E0218165CF4916090931E02F5
:105AC0008091E20D82FD23C082608093E20D1FC0B1
:105AD00092FF04C0916090931E0219C01092200E94
